S02300002E2E2F63656C6C626F6172642F6275696C642F63656C6C626F6172642E6269009A
S325080040000000012011C4000811740008197400081B7400081D7400081F74000800000000A7
S325080040200000000000000000000000002174000823740008000000002574000827740008F2
S3250800404061C4000861C4000861C4000861C4000861C4000861C4000861C4000861C40008EA
S3250800406061C4000861C4000861C4000861C4000861C4000861C4000861C4000861C40008CA
S3250800408061C4000861C4000861C400083174000841740008517400086174000861C400084A
S325080040A061C400087174000861C4000861C4000881740008000000000000000061C4000854
S325080040C091740008000000000000000061C4000800000000A174000861C40008000000004E
S325080040E061C4000861C4000800000000000000000000000000000000000000000000000058
S3250800410000000000000000000000000061C40008000000000000000061C4000861C400080A
S3250800412061C4000861C4000861C4000861C4000861C4000800000000000000000000000090
S3250800414061C4000861C4000861C4000861C4000861C4000861C4000861C4000861C40008E9
S3250800416061C4000861C4000861C400080000000061C4000861C40008000000000000000050
S3250800418061C4000861C4000861C400080000000001F0FF01102A2BDB10F0070F08D010F863
S325080041A0013B013A8B422DD010F0070F42B3F6D1F0B441EA012141EA014122F007047FF0F4
S325080041C000070023F0E80256083C85EA010586EA010685FA47F5A3FA87F586FA47F6A5FA17
S325080041E087F68EB9EED1F0BC01F0FF0102F0070232B110F8013B013A83EA010313B1F8D136
S325080042000020704701387047002D06BF35460338073815F0010F07D1013015F4807F02BFFB
S32508004220013015F4C03F0130F0BC0138704700BF034613F8012B002AFBD1181A0138704713
S3250800424081F0004102E000BF83F0004330B54FEA41044FEA430594EA050F08BF90EA020F7F
S325080042601FBF54EA000C55EA020C7FEA645C7FEA655C00F0E2804FEA5454D4EB5555B8BF55
S325080042806D420CDD2C4480EA020281EA030382EA000083EA010180EA020281EA0303362D0C
S325080042A088BF30BD11F0004F4FEA01314FF4801C4CEA113102D0404261EB410113F0004F76
S325080042C04FEA03334CEA133302D0524263EB430394EA050F00F0A780A4F10104D5F1200EB4
S325080042E00DDB02FA0EFC22FA05F2801841F1000103FA0EF2801843FA05F359410EE0A5F1FC
S3250800430020050EF1200E012A03FA0EFC28BF4CF0020C43FA05F3C01851EBE37101F0004507
S3250800432007D54FF0000EDCF1000C7EEB00006EEB0101B1F5801F1BD3B1F5001F0CD3490881
S325080043405FEA30004FEA3C0C04F101044FEA445212F5800F80F09A80BCF1004F08BF5FEA60
S32508004360500C50F1000041EB045141EA050130BD5FEA4C0C404141EB0101013C28BFB1F5D9
S32508004380801FE9D291F0000F04BF01460020B1FA81F308BF2033A3F10B03B3F120020CDA74
S325080043A00C3208DD02F1140CC2F10C0201FA0CF021FA02F10CE002F11402D8BFC2F1200C88
S325080043C001FA02F120FA0CFCDCBF41EA0C019040E41AA2BF01EB0451294330BD6FEA0404C2
S325080043E01F3C1CDA0C340EDC04F11404C4F1200220FA04F001FA02F340EA030021FA04F313
S3250800440045EA030130BDC4F10C04C4F1200220FA02F001FA04F340EA0300294630BD21FA30
S3250800442004F0294630BD94F0000F83F4801306BF81F480110134013D4EE77FEA645C18BF0E
S325080044407FEA655C29D094EA050F08BF90EA020F05D054EA000C04BF1946104630BD91EA48
S32508004460030F1EBF0021002030BD5FEA545C05D14000494128BF41F0004130BD14F58004A5
S325080044803CBF01F5801130BD01F0004545F0FE4141F470014FF0000030BD7FEA645C1ABF21
S325080044A0194610467FEA655C1CBF0B46024650EA013406BF52EA033591EA030F41F4002110
S325080044C030BD00BF90F0000F04BF0021704730B54FF4806404F132044FF000054FF000013D
S325080044E050E700BF90F0000F04BF0021704730B54FF4806404F1320410F0004548BF404289
S325080045004FF000013EE700BF42004FEAE2014FEA31014FEA02701FBF12F07F4393F07F4F02
S3250800452081F06051704732F07F4208BF704793F07F4F04BF41F40021704730B54FF4607416
S3250800454001F0004521F000411CE700BF50EA010208BF704730B54FF000050AE050EA0102F8
S3250800456008BF704730B511F0004502D5404261EB41014FF4806404F132045FEA915C3FF4E2
S32508004580D8AE4FF003025FEADC0C18BF03325FEADC0C18BF033202EBDC02C2F1200300FA2E
S325080045A003FC20FA02F001FA03FE40EA0E0021FA02F11444BDE600BF70B54FF0FF0C4CF437
S325080045C0E06C1CEA11541DBF1CEA135594EA0C0F95EA0C0F00F0DEF82C4481EA030621EAE4
S325080045E04C5123EA4C5350EA013518BF52EA033541F4801143F4801338D0A0FB02CE4FF067
S325080046000005E1FB02E506F00042E0FB03E54FF00006E1FB03569CF0000F18BF4EF0010E90
S32508004620A4F1FF04B6F5007F64F5407404D25FEA4E0E6D4146EB060642EAC62141EA555153
S325080046404FEAC52040EA5E504FEACE2EB4F1FD0C88BFBCF5E06F1ED8BEF1004F08BF5FEA28
S32508004660500E50F1000041EB045170BD06F0004646EA010140EA020081EA0301B4EB5C04D7
S32508004680C2BFD4EB0C0541EA045170BD41F480114FF0000E013C00F3AB8014F1360FDEBFB9
S325080046A0002001F0004170BDC4F10004203C35DA0C341BDC04F11404C4F1200500FA05F339
S325080046C020FA04F001FA05F240EA020001F0004221F0004110EBD37021FA04F642EB060194
S325080046E05EEA430E08BF20EAD37070BDC4F10C04C4F1200500FA04F320FA05F001FA04F242
S3250800470040EA020001F0004110EBD37041F100015EEA430E08BF20EAD37070BDC4F1200508
S3250800472000FA05F24EEA020E20FA04F301FA05F243EA020321FA04F001F0004121FA04F2AB
S3250800474020EA020000EBD3705EEA430E08BF20EAD37070BD94F0000F0FD101F0004640004D
S3250800476041EB010111F4801F08BF013CF7D041EA060195F0000F18BF704703F000465200AF
S3250800478043EB030313F4801F08BF013DF7D043EA0603704794EA0C0F0CEA135518BF95EA2B
S325080047A00C0F0CD050EA410618BF52EA4306D1D181EA030101F000414FF0000070BD50EA2E
S325080047C0410606BF1046194652EA430619D094EA0C0F02D150EA013613D195EA0C0F05D16B
S325080047E052EA03361CBF104619460AD181EA030101F0004141F0FE4141F470014FF00000D5
S3250800480070BD41F0FE4141F4780170BD70B54FF0FF0C4CF4E06C1CEA11541DBF1CEA135562
S3250800482094EA0C0F95EA0C0F00F0A7F8A4EB050481EA030E52EA03354FEA013100F08880BD
S325080048404FEA03334FF0805545EA131343EA12634FEA022245EA111545EA10654FEA00261B
S325080048600EF000419D4208BF964244F1FD0404F5407402D25B084FEA3202B61A65EB0305BE
S325080048805B084FEA32024FF480104FF4002CB6EB020E75EB030E22BFB61A754640EA0C0034
S325080048A05B084FEA3202B6EB020E75EB030E22BFB61A754640EA5C005B084FEA3202B6EB95
S325080048C0020E75EB030E22BFB61A754640EA9C005B084FEA3202B6EB020E75EB030E22BF44
S325080048E0B61A754640EADC0055EA060E18D04FEA051545EA16754FEA06164FEAC30343EA50
S3250800490052734FEAC2025FEA1C1CC0D111F4801F0BD141EA00014FF000004FF0004CB6E7A2
S3250800492011F4801F04BF01430020B4F1FD0C88BFBCF5E06F3FF6AFAEB5EB030C04BFB6EB04
S32508004940020C5FEA500C50F1000041EB045170BD0EF0004E4EEA113114EB5C04C2BFD4EB42
S325080049600C0541EA045170BD41F480114FF0000E013C90E645EA060E8DE60CEA135594EA13
S325080049800C0F08BF95EA0C0F3FF43BAF94EA0C0F0AD150EA01347FF434AF95EA0C0F7FF42A
S325080049A025AF104619462CE795EA0C0F06D152EA03353FF4FDAE1046194622E750EA41064B
S325080049C018BF52EA43067FF4C5AE50EA41047FF40DAF52EA43057FF4EBAE12E74FF0FF3CD6
S325080049E006E000BF4FF0010C02E000BF4FF0010C4DF804CD4FEA410C7FEA6C5C4FEA430C76
S32508004A0018BF7FEA6C5C1BD001B050EA410C0CBF52EA430C91EA030F02BF90EA020F00200E
S32508004A20704710F1000F91EA030F58BF994208BF90422CBFD8176FEAE37040F0010070471B
S32508004A404FEA410C7FEA6C5C02D150EA013C07D14FEA430C7FEA6C5CD6D152EA033CD3D0F1
S32508004A605DF8040B704700BF8446104662468C461946634600E000BF01B5FFF7B7FF002883
S32508004A8048BF10F1000F01BD4DF808EDFFF7F4FF0CBF012000205DF808FB00BF4DF808EDB3
S32508004AA0FFF7EAFF34BF012000205DF808FB00BF4DF808EDFFF7E0FF94BF012000205DF8C6
S32508004AC008FB00BF4DF808EDFFF7CEFF94BF012000205DF808FB00BF4DF808EDFFF7C4FF6B
S32508004AE034BF012000205DF808FB00BF4FEA410C7FEA6C5C02D150EA013C0AD14FEA430CF9
S32508004B007FEA6C5C02D152EA033C02D14FF0000070474FF0010070474FEA410212F50012B3
S32508004B2015D211D56FF47873B3EB625212D94FEAC12343F0004343EA505311F0004F23FA3F
S32508004B4002F018BF404270474FF00000704750EA013005D111F0004008BF6FF000407047B0
S32508004B604FF00000704700BF4A0011D212F5001211D20DD56FF47873B3EB62520ED44FEAAC
S32508004B80C12343F0004343EA505323FA02F070474FF00000704750EA013002D14FF0FF3075
S32508004BA070474FF0000070474FEA4102B2F1E04324BFB3F5001CDCF1FE5C0DD901F0004C07
S32508004BC04FEAC0024CEA5070B2F1004F40EB830008BF20F00100704711F0804F21D113F1E1
S32508004BE03872BCBF01F00040704741F480114FEA5252C2F11802C2F1200C10FA0CF320FA28
S32508004C0002F018BF40F001004FEAC1234FEAD32303FA0CFC40EA0C0023FA02F34FEA430374
S32508004C20CCE77FEA625307D150EA01331EBF4FF0FE4040F44000704701F0004040F0FE402B
S32508004C4040F40000704700BF53B94AB9002908BF00281CBF4FF0FF314FF0FF3000F00CB809
S32508004C60ADF1080C6DE904CE0AF042F9DDF804E0DDE9022304B07047704700BF10B5054C7C
S32508004C80237833B9044B13B10448AFF300800123237010BDD801002000000000ACF10008DC
S32508004CA008B5034B1BB103490348AFF3008008BD00000000DC010020ACF1000888401040D7
S32508004CC070478840104070470841104070470841104070471040884080B270471040084106
S32508004CE0C0B270471040084180B27047032A40F2E780F8B505460E460027076007223946B3
S32508004D003078FFF7DBFF04462870082203217078FFF7D4FF0443E4B22C7010220421B07834
S32508004D20FFF7CCFF0443E4B22C7020220521F078FFF7C4FF0443E4B22C70402206213079F7
S32508004D40FFF7BCFF0443E4B22C70802207217079FFF7B4FF04432C7001223946B079FFF71B
S32508004D60ADFF0446687002220121F079FFF7A6FF0443E4B26C7004220221307AFFF79EFFCE
S32508004D800443E4B26C7008220321707AFFF796FF0443E4B26C7010220421B07AFFF78EFFCC
S32508004DA00443E4B26C7020220521F07AFFF786FF0443E4B26C7040220621307BFFF77EFF7F
S32508004DC00443E4B26C7080220721707BFFF776FF04436C7001223946B07BFFF76FFF04464E
S32508004DE0A87002220121F07BFFF768FF0443E4B2AC7004220221307CFFF760FF0443E4B25F
S32508004E00AC7008220321707CFFF758FF0443E4B2AC7010220421B07CFFF750FF0443E4B243
S32508004E20AC7020220521F07CFFF748FF0443E4B2AC7040220621307DFFF740FF0443E4B2F6
S32508004E40AC7080220721707DFFF738FF0443AC7001223946B07DFFF731FF0446E870022226
S32508004E600121F07DFFF72AFF0443E4B2EC7004220221307EFFF722FF0443E4B2EC700822CC
S32508004E800321707EFFF71AFF0443E4B2EC7010220421B07EFFF712FF0443E4B2EC702022A3
S32508004EA00521F07EFFF70AFF0443E4B2EC7040220621307FFFF702FF0443EC700420F8BD6D
S32508004EC06FF0150070470B7803704B78C3F3000343704B78C3F3400383704B78C3F38003C9
S32508004EE0C3704B78C3F3C00303714B78C3F3001343714B78C3F3401383714B78C3F38013B5
S32508004F00C3714B78C3F3C01303728B78C3F300034372CB7883720B79C3F30003C3720B79EF
S32508004F20C3F3400303730B79C3F3800343730B79C3F3C00383730B79C3F30013C3730B7987
S32508004F40C3F3401303740B79C3F3801343740B79C3F3C01383744B79C3F30003C3744B79C3
S32508004F60C3F3400303754B79C3F3800343754B79C3F3C00383754B79C3F30013C3754B793F
S32508004F80C3F3401303764B79C3F3801343764B79C3F3C01383768B79C3F30003C3768B797B
S32508004FA0C3F3400303777047062A52D970B504460D4600210160C0F8031007222878FFF790
S32508004FC07DFE06462070F8220321B5F80100FFF778FE06432670FF220521B5F80100FFF74A
S32508004FE076FE607007220D21B5F80100FFF76FFE0646A070F8220321B5F80300FFF761FE58
S325080050000643A670FF220521B5F80300FFF75FFEE07007220D21B5F80300FFF758FE0646EA
S325080050202071F8220321B5F80500FFF74AFE06432671FF220521B5F80500FFF748FE6071BD
S3250800504007220D21B5F80500FFF741FEA071072070BD6FF015007047F3EE047A30EE270AC6
S325080050609FED047AC0EE077AFCEEE77A17EE903A98B27047C800C83AF3EE047A30EE270A56
S325080050809FED047AC0EE077AFCEEE77A17EE903A98B27047C800C83AF3EE047A30EE270A36
S325080050A09FED047AC0EE077AFCEEE77A17EE903A98B27047C800C83A38B504460D460B78B7
S325080050C00370D1F8013000EE103AFFF7C5FFA4F80100D5F8053000EE103AFFF7CDFFA4F82E
S325080050E00300D5F8093000EE103AFFF7D5FFA4F8050038BD052A52D970B504460D460021C4
S325080051000160818007222878FFF7D8FD06462070F82203216878FFF7D1FD064326700722C5
S3250800512005216878FFF7D0FD06466070F8220321A878FFF7C3FD0643667007220521A878DA
S32508005140FFF7C2FD0646A070F8220321E878FFF7B5FD0643A67007220521E878FFF7B4FD35
S325080051600646E070F82203212879FFF7A7FD0643E670072205212879FFF7A6FD0646207107
S32508005180F82203216879FFF799FD06432671072205216879FFF798FD6071062070BD6FF038
S325080051A01500704782B0F3EE047A30EE270A9FED067AC0EE077AFCEEE77ACDED017A9DF8E5
S325080051C0040002B0704700BFC9C8C83E82B0F3EE047A30EE270A9FED067AC0EE077AFCEEF9
S325080051E0E77ACDED017A9DF8040002B0704700BFC9C8C83E82B0F3EE047A30EE270A9FED47
S32508005200067AC0EE077AFCEEE77ACDED017A9DF8040002B0704700BFC9C8C83E82B0F3EEE6
S32508005220047A30EE270A9FED067AC0EE077AFCEEE77ACDED017A9DF8040002B0704700BF17
S32508005240C9C8C83E38B504460D460B7803704B784370D1F8023000EE103AFFF7A3FFA070D8
S32508005260D5F8063000EE103AFFF7B0FFE070D5F80A3000EE103AFFF7BDFF2071D5F80E3063
S3250800528000EE103AFFF7CAFF607138BD062A52D970B504460D4600210160C0F803100722B0
S325080052A02878FFF70BFD06462070F8220321B5F80100FFF706FD06432670FF220521B5F8AE
S325080052C00100FFF704FD607007220D21B5F80100FFF7FDFC0646A070F8220321B5F80300BA
S325080052E0FFF7EFFC0643A670FF220521B5F80300FFF7EDFCE07007220D21B5F80300FFF73D
S32508005300E6FC06462071F8220321B5F80500FFF7D8FC06432671FF220521B5F80500FFF737
S32508005320D6FC607107220D21B5F80500FFF7CFFCA071072070BD6FF0150070479FED047A58
S32508005340C0EE077AFCEEE77A17EE903A98B27047A000A0389FED047AC0EE077AFCEEE77AF9
S3250800536017EE903A98B27047A000A0389FED047AC0EE077AFCEEE77A17EE903A98B2704783
S32508005380A000A03838B504460D460B780370D1F8013000EE103AFFF7D1FFA4F80100D5F8A5
S325080053A0053000EE103AFFF7D5FFA4F80300D5F8093000EE103AFFF7D9FFA4F8050038BD67
S325080053C0072A56D970B504460D4600210160416007222878FFF772FC06462070F822032133
S325080053E06878FFF76BFC06432670072205216878FFF76AFC06466070F82203216888FFF7B8
S3250800540060FC06436670FF2205216888FFF75FFCA07007220D216888FFF759FC0646E0703D
S32508005420F8220321A888FFF74CFC0643E670FF220521A888FFF74BFC207107220D21A88847
S32508005440FFF745FC06466071F8220321E888FFF738FC06436671FF220521E888FFF737FC12
S32508005460A07107220D21E888FFF731FCE071082070BD6FF0150070479FED047AC0EE077A19
S32508005480FCEEE77A17EE903A98B27047A000A0389FED047AC0EE077AFCEEE77A17EE903A18
S325080054A098B27047A000A0389FED047AC0EE077AFCEEE77A17EE903A98B27047A000A03899
S325080054C038B504460D460B7803704B784370D1F8023000EE103AFFF7CFFF6080D5F80630EE
S325080054E000EE103AFFF7D4FFA080D5F80A3000EE103AFFF7D9FFE08038BD042A26D970B5C9
S3250800550004460D46FF2200212878FFF7EBFB06462080FF2208216878FFF7DCFB0643268050
S32508005520FF220021A878FFF7DDFB06466080FF220821E878FFF7CEFB064366800122002125
S325080055402879FFF7CBFB2071002070BD6FF0150070470B8803804B8843800B79037170477C
S3250800556090F88E2090F98E30002B00DB704710B50446017B02F03F03994208D300230373D5
S3250800558012F0400F03D102F07F0280F88E2002F0A3FBA368C01A237B043304EB4303DB885D
S325080055A0984200D210BDA188206803F06DF902F093FBA060237B01332373F3E72DE9F84347
S325080055C007460E4691469846202006F04BFF05460024046087614660C0F81090C0F81480E2
S325080055E0304606F03FFFE860304606F03BFFA860380106F037FFE861234605E0E96800228E
S32508005600CA54A968CA5401336A689A42F6D82846BDE8F88308B5C369026803EB02135B68D8
S3250800562003B1984708BD10B5C3694FEA011E03EB01111468D2F804C09068D26843F80E40F6
S32508005640C1F804C08860CA6010BD38B504460D46C369026803EB0213DB6803B19847256062
S32508005660E36903EB05135B680BB12046984763690BB12046984738BD00687047C3685A5C44
S3250800568083685B5C9A4200D0704783685B5C83F00103C2685354F7E738B50446002500E0F3
S325080056A001356368AB4217D9E3685A5DA3685B5D9A42F5D0E26923681B01D358002BEFD091
S325080056C0E268A368525D5A55E26923681B01D358E9B220469847E3E7E369226803EB021369
S325080056E09B680BB12046984723690BB12046984738BD000010B586B00446694601A804F085
S3250800570035FD2268064B9A4206D8049C04F00AFD04B1400006B010BD059C04F015FDF7E71C
S32508005720FFFF00408446002318468B4211D200B503E001339BB28B4209D23CF813203CF8C6
S3250800574010E07245F5D2002AF3D01846F1E75DF804FB704768B3F8B50E461D46074651B3CF
S325080057601AB100203060844609E01221FFF7DAFF37F81020F5E70CF1010C1FFA8CFCBCF158
S32508005780110F19D837F81CE046F660539E4538BF9E465419AEEB0403002BECDBA645EAD06E
S325080057A03368012101FA0CF10B433360013080B2E1E7002070470020F8BD08B540F201601E
S325080057C000F0D4FA08BD000008B50421014806F0FDF808BDCC04002070B5094D00242C831F
S325080057E0084E2146304606F0F1F80421304606F0EDF8AC6022462146034801F013FD70BDBF
S32508005800F4010020CC0400208403002008B529B1012902D10121FFF718FF08BD014B0022D8
S325080058209A60FAE7F401002008B511B1032904D008BD0021FFF709FFFAE70121FFF705FF0A
S32508005840F6E7000010B5044602F0FEF908494B8B0A8B0831FFF77EFF20B900212046FFF7A7
S32508005860F4FE10BD02212046FFF7EFFEF9E700BFF401002070B51D4E012333717269B168EF
S325080058801B4801F0CFFC1B4C236800255D622046FFF730FF23689A6A0132B0FBF2F207EE34
S325080058A0902AF8EE677ADFED146A67EEA67A87EEA67ABCEEC77A83ED0D7A6FF001021A6146
S325080058C0204605F0E5FC2946204605F0ADFF0B4C2946204606F07AF82268536A71690B4404
S325080058E053632946204605F09FFF70BDF4010020840300208004002000007A44CC04002041
S3250800590038B50021144B9960144C204606F05EF823685D6A2046FFF7EDFE23689A6A0132A6
S32508005920B0FBF2F207EE902AF8EE677A9FED0C7A67EE877ADFED0B6A87EEA67ABCEEC77A2B
S3250800594017EE102A15449D636FF004021A610421204605F069FF38BDF4010020CC040020DF
S3250800596000409C4500007A4410B5044611B1022904D010BD0021FFF768FEFAE70C4B1B7B52
S3250800598093B902F061F90A494B8B0A8B0831FFF7E1FE20B103212046FFF757FEE9E70021FE
S325080059A02046FFF752FEE4E70221FFF767FEE0E7F401002038B5084B00241C719C60074DC7
S325080059C0284605F09BFC2146284605F0FFFF2146034805F0FBFF38BDF401002080040020A8
S325080059E0CC040020B0F5FA7F28BF4FF4FA70014B58837047F401002070B52DED028B84B004
S32508005A00384C0025A560257301266661364B2A4604210846FFF7D2FD2060257125612583D7
S32508005A204FF4FA736383314B0093314B0193029503956A462946FFF7F6FD00952D4B0193CB
S32508005A4003956A4631462068FFF7EDFD2A4B00932A4B019302952A4B03936A460221206803
S32508005A60FFF7E1FD274B0093274B0193274B03936A4603212068FFF7D6FD2068FFF7CAFDC7
S32508005A80234C2046FFF736FE2268936A3344B0FBF3F307EE903AF8EE677ADFED1E8A67EE1B
S32508005AA0A87A9FED1D8A87EE887ABCEEC77A82ED0B7A2046FFF71EFE23689B6A3344B0FB03
S32508005AC0F3F307EE903AF8EE677A67EEA87A87EE887ABCEEC77A84ED037A04B0BDEC028B9B
S32508005AE070BD00BFF4010020BB5700080D580008D957000845580008695900087558000894
S32508005B00B55900082958000801590008C9570008800400200060EA4600007A4408B5036834
S32508005B20104A1268934204D00F4A1268934207D008BD0E4B002199601868FFF79FFDF7E733
S32508005B40037F012B07D0022BF2D10321074B1868FFF794FDECE70221044B1868FFF78EFDFF
S32508005B60E6E700BF80040020CC040020F4010020037F012B00D0704770B5044603685D6B0B
S32508005B80224B1B7903B300221146214801F04AFB2046FFF7AFFD2268936A0133B0FBF3F3D4
S32508005BA007EE903AF8EE677ADFED1A6A67EEA67A87EEA67AFCEEC77A17EE903A2B445363D8
S32508005BC0124B00221A7170BD104E7269B168104801F028FB2046FFF78DFD2268936A013321
S32508005BE0B0FBF3F307EE903AF8EE677ADFED096A67EEA67A87EEA67AFCEEC77A17EE903A3D
S32508005C002B44536301233371DDE700BFF40100208403002000007A4408B50E480E4B0360BD
S32508005C200523436000238360C3604FF4402202614FF4801242610376012242768376C2765D
S32508005C400377437702F062F800B908BD00F0D6FCFBE700BF100200200064004000B589B011
S32508005C600023039304930593069307930268244B9A4202D009B05DF804FB03F5D6339A6D5F
S32508005C8042F000729A659A6D02F000720192019ADA6C42F00102DA64DB6C03F0010302932E
S32508005CA0029B4FF4C053039302230493032306930923079303A94FF0904002F001FD00223F
S32508005CC01146132002F080FC132002F08DFC00221146142002F078FC142002F085FC002234
S32508005CE01146152002F070FC152002F07DFC00221146162002F068FC162002F075FCB9E7CE
S32508005D000064004070B504460E4601F0E5FF0546204602F0F6F930B901F0DEFF431BB3429D
S32508005D20F6D9032000E0002070BD000070B504460E4615460321FFF7E5FF90B90023324636
S32508005D402946204602F039F928B9074A138823F00103138006E0044A138843F0010313802C
S32508005D6000E0032070BD00BF3C02002010B52DED028B92B000230D930E930F9340F201637E
S32508005D80984217D040F20353984200F0E28040F20323984200F0198140F22223984200F083
S32508005DA0448140F20223984200F09A8112B0BDEC028B10BD00238DF80330C24B1868FFF7B1
S32508005DC05BFC30B1431E022B06D801238DF8033002E000238DF80330BB4B1B78072B00F0BD
S32508005DE0B6808DF80030B94B1B889DF8012063F300028DF80120C3F34001D2B261F341023D
S32508005E008DF80120C3F300219DF8022061F300028DF80220C3F380019DF8012061F382027E
S32508005E208DF80120C3F3C001D2B261F3C3028DF80120C3F30011D2B261F304128DF8012099
S32508005E40C3F34011D2B261F345128DF80120C3F38011D2B261F386128DF80120C3F3C01372
S32508005E60D2B263F3C7128DF80120964B9A689DF8043062F300038DF80430DBB26FF34103CB
S32508005E808DF80430DBB26FF382038DF80430DBB26FF3C3038DF80430DBB26FF304138DF815
S32508005EA00430DBB26FF345138DF80430DBB26FF386138DF80430DBB26FF3C7138DF80430DD
S32508005EC09DF805306FF300038DF80530DBB26FF341038DF80530DBB26FF382038DF80530B0
S32508005EE0DBB26FF3C3038DF80530DBB26FF304138DF80530DBB26FF345138DF80530DBB2D7
S32508005F006FF386138DF80530DBB26FF3C7138DF805309DF806306FF300038DF80630DBB2C3
S32508005F206FF341038DF80630694602A8FEF7CBFF40F201630C93042202A90AA8FEF7D6FE59
S32508005F4010900CAA0AA96248FFF7F0FE2EE7052347E70C9300242FE08DF808308DF80940D4
S32508005F605C4B03EB84021268CDF80A20621C03EB82021268CDF80E20A21C03EB8202126888
S32508005F80CDF81220E21C03EB82031B68CDF8163002A96846FFF756F9062269460AA8FFF7E0
S32508005FA0A9F810900CAA0AA94948FFF7BFFE012001F098FE0434E4B2232C3FF6F7AE424BB9
S32508005FC01B78072BC8D10523C6E70C93002429E03D4B1B788DF8083001F09AFB10EE103A0E
S32508005FE0CDF8093001F08EFB10EE103ACDF80D3001F082FB10EE103ACDF8113002A96846BC
S32508006000FFF75AF8072269460AA8FEF7CDFF10900CAA0AA92E48FFF789FE012001F062FE71
S325080060200434E4B2232CD3D9C0E60C93002440E08DF808308DF80940274B33F8142007EEAF
S32508006040102AB8EE477ADFED257A87EE277A17EE102ACDF80A20621C33F8122007EE102AD8
S32508006060B8EE477A87EE277A17EE102ACDF80E20A21C33F8123007EE103AB8EE477AC7EEDD
S32508006080277A17EE903ACDF8123002A96846FFF717FA082269460AA8FFF792F910900CAAB9
S325080060A00AA90B48FFF742FE012001F01BFE0334E4B2112C3FF67AAE034B1B78072BB7D169
S325080060C00523B5E7F40100201C0300203C02002010020020F00300203006002000401C46FF
S325080060E00C930024112C3FF661AE1D4B1B788DF8083001F06FFD07EE900AF8EE677A9FED57
S32508006100198AC7EE887A17EE903ACDF8093001F071FD07EE900AF8EE677AC7EE887A17EED9
S32508006120903ACDF80D3001F075FDC0EE087A17EE903ACDF8113002A96846FFF723F9072289
S3250800614069460AA8FFF7A2F810900CAA0AA90648FFF7ECFD012001F0C5FD0334E4B2C1E7C1
S325080061601C03002000401C461002002000B58FB000210C910D910CAB05AA01F0DBFF60B964
S325080061801F4A138823F001031380059BB3F5007F09D05BB30FB05DF804FB194A138843F051
S325080061A001031380F6E705220CA901A8FFF7A5F901A903A8FFF7CDF9BDF80C00FFF712FC6E
S325080061C0BDF80E300F4A13839DF8103013733BB1012BDFD101210B4B1868FFF74FFAD9E7B5
S325080061E00021084B1868FFF749FAD3E7054B1868FFF742FA0028CDD102F0FAF9CAE700BF8D
S325080062003C020020F4010020F0B58BB000240694019400944FF478760296039604940594A3
S325080062200794012708970E4D6946284601F014FE06940194009402960396049405970794B0
S3250800624008976946284601F007FE48F60301284602F015F8284601F082FE0BB0F0BD00BFC9
S3250800626010020020022908D004290AD0012900D07047064B00221A707047044B00225A7034
S325080062807047024B00229A70F2E700BF3802002008B5436A13F4C05F03D01D4A1378013345
S325080062A01370436A13F4C04F03D0194A537801335370436A13F4C03F03D0154A937801336E
S325080062C09370134B1B78042B1DD9114B00221A7001210F4B5B78042B04D941F002010C4BA9
S325080062E000225A700A4B9B78042B04D941F00401074B00225A70436A13F0C00F05D109B1AD
S3250800630001F0D9FE08BD0021E3E70721F8E700BF3802002008B50121FFF7A4FF08BD08B5DD
S325080063200221FFF79FFF08BD08B50421FFF79AFF08BD0000F0B589B00024039404940594D3
S32508006340069407942D4BDA6C42F00402DA64DA6C02F004020092009ADA6C42F00102DA64A3
S32508006360DA6C02F001020192019ADA6C42F00202DA64DB6C03F002030293029B204F2246A4
S325080063804FF44041384602F07AFA1E4E22460321304602F074FA22464FF400414FF090407E
S325080063A002F06DFA4FF440430393012504950594069403A9384602F083F94FF487730393BD
S325080063C00494059403A94FF0904002F079F90323039304950594069403A9304602F070F95A
S325080063E04FF40043039304950594069403A94FF0904002F065F909B0F0BD00BF0010024025
S32508006400000800480004004808B51248124B0360124B4360002383600122C26003614361A8
S325080064208361C361036202F02DFC50B90021094803F037F940B90021064803F060F930B98B
S3250800644008BD00F0DBF8F1E700F0D8F8F3E700F0D5F8F5E74002002000540040EC9C90107D
S3250800646010B59CB0044600211791189119911A911B91542202A806F02AFE22681B4B9A4236
S3250800648001D01CB010BD4023029302A803F05CFF48BB174CE36C43F00203E364E36C03F01E
S325080064A002030093009BC0231793122318930123199303231A9304231B9317A90D4802F0AF
S325080064C0FFF8A36D43F40013A365A36D03F400130193019B00221146202002F075F82020B3
S325080064E002F082F8CDE700F089F8D2E70054004000100240000400482DE9F04186B0064649
S325080065000F461546DFF8C480002488F80C40C8F80000A8F8041001F0DFFBC8F80800012288
S325080065203946304602F0ABF9009401940294039404940594214611E0631CDBB206AA02EB3A
S325080065404402962022F8180C0234E4B206AA02EB4303FA2223F8182C0131C9B2194B1E7822
S325080065608E42E9D8631E06AA02EB43034FF47A7223F8182C144F62006946384606F031FE73
S3250800658097F8803023F03F0304F03F04234387F8803003F07F038EB16FF07F021343DBB216
S325080065A00A4A82F88E3003F0BF034DB140221343064A82F88E3006B0BDE8F0810022EDE78C
S325080065C00022F4E71C0300209A0200208C02002008B50368064A1268934204D0054A1268A3
S325080065E0934200D008BD044B1968FFF797FAF9E780040020CC040020F401002072B6FEE736
S3250800660000B597B04422002105A806F060FD0023009301930293039304934FF4007003F037
S32508006620A3F830BB012205924FF4A023069302230F93032110911192282212920722139282
S3250800664014930423159305A803F078F998B90F2300930323019300230293039304930421CB
S32508006660684603F0ABFC40B903F09EFD17B05DF804FBFFF7C3FFFFF7C1FFFFF7BFFF000000
S3250800668008B501F00DFBFFF7BBFFFFF753FEFFF7C3FAFFF7B9FE00F0E7FD00F00BFE01F021
S325080066A0CFF901F03BF801F01BF901F09FF802214FF0904002F0DCF844B204214FF0904031
S325080066C002F0D6F844EA400464B208214FF0904002F0CEF844EA8003DBB2144A1370072B23
S325080066E01FD000F007FFDFED120AB7EE000A00F035FFFFF781F9FFF787FD0E4800F020F8A4
S3250800670001224FF400414FF09040FFF7F5FE0A48FEF726FF00F080F8084B1868FEF7BCFF75
S32508006720F5E7134605221A70DBE700BF1C03002000007042180500208C020020F4010020F3
S3250800674010B52DED028B0446FEF7D4FF2268936A0133B0FBF3F307EE903AF8EE677AB2EE3B
S325080067600E7A67EE877A9FED298A87EE887ABCEEC77A82ED0D7A2046FEF7BCFF2268936AF9
S325080067800133B0FBF3F307EE903AF8EE677AB3EE047A67EE877A87EE887ABCEEC77A82ED5A
S325080067A00E7A2046FEF7A6FF2268936A0133B0FBF3F307EE903AF8EE677A9FED157A67EE01
S325080067C0877A87EE887ABCEEC77A82ED0F7A23686FF002021A6123686FF004021A612368F1
S325080067E06FF008021A610021204605F01DF80421204605F019F80821204605F015F8054BA4
S3250800680000221A70BDEC028B10BD00BF00007A44000048431E03002008B52B4B1B7813F0A9
S32508006820010F09D0294B1878B8B101F083F9264A137823F001031370234B1B7813F0020FDD
S3250800684028D0224B187858B101F080F91F4B1B78042B0FD101F08AF90CE001F059F9E6E746
S3250800686001F05EF940F22220FFF780FA40F20220FFF77CFA15490A780132154B83FB020328
S325080068805B1003EB8303D31A0B700F4A137823F0020313700C4B1B7813F0040F00D108BD8E
S325080068A000F0DEFE40F20350FFF760FA40F20320FFF75CFA40F20160FFF758FA024A1378D6
S325080068C023F004031370EAE71E0300201D0300206766666638B52DED028B044603685D6A12
S325080068E0037F022B0CD0042B41D0012B02D0BDEC028B38BD2D4A137843F001031370F6E7FD
S32508006900FEF7F8FE2268936A0133B0FBF3F307EE903AF8EE677AB2EE0E7A67EE877A9FEDA2
S32508006920248A87EE887AFCEEC77A17EE903A2B4453632046FEF7DEFE2268936A0133B0FB68
S32508006940F3F307EE903AF8EE677AB3EE047A67EE877A87EE887AFCEEC77A17EE903A2B4468
S325080069609363124A137843F002031370BFE7FEF7C1FE2268936A0133B0FBF3F307EE903A0C
S32508006980F8EE677A9FED0B7A67EE877ADFED086A87EEA67AFCEEC77A17EE903A2B44D36349
S325080069A0024A137843F004031370A0E71E03002000007A440000484310B5044610F0010F05
S325080069C003D114F0020F07D110BD01224FF40041054801F054FFF4E701224FF48041024897
S325080069E001F04DFFF0E700BF000800482DE9F04786B005460C4690463C2940F287800120B1
S32508006A00FFF7DAFF80238DF814304FF00A09CDF808900126019605AF009733460022214673
S32508006A20284602F08DF9CDF808900196009733460C222146284602F057FA9DF81470002FD0
S32508006A4068D140238DF81430CA46CDF8089001960DF11409CDF800903346082221462846D7
S32508006A6002F06EF900238DF81430CDF808A00196CDF80090334603222146284602F060F9AC
S32508006A8038FA06F314BF334600238DF81430CDF808A00196CDF800903346072221462846B5
S32508006AA002F04EF98DF81460CDF808A00196CDF8009033460B222146284602F041F9B8F1ED
S32508006AC0000F25D003238DF814304FF00A09CDF808904FF00108CDF8048005AE00964346A3
S32508006AE000222146284602F02BF9CDF80890CDF80480009643463E222146284602F0F4F9A2
S32508006B009DF81430434506D0FF2704E0022077E70223D8E70227384606B0BDE8F08730B564
S32508006B2087B014461D460023ADF814300A2302930223019305AB00930123203202F0D4F954
S32508006B40B0B9072C09D09DF814209DF815301B0903EB02132B8007B030BD9DF914309BB272
S32508006B605B009BB29DF8152003EBD2132B80F2E7FF20F0E7000000002DE970432DED048BD6
S32508006B8082B014461E460025ADF806500DF10603FFF7C5FF0546002851D1072C55D0BDF874
S32508006BA00600FDF79FFCFDF7FFFF07EE900A67EEA78A27EEA88A28EEA89AFDF7A5FC2AA32A
S32508006BC0D3E90023FDF7F8FC29A3D3E90023FDF73DFB8046894618EE900AFDF795FC26A386
S32508006BE0D3E90023FDF7E8FC02460B4640464946FDF72CFB8046894618EE100AFDF784FCDE
S32508006C001FA3D3E90023FDF7D7FC02460B4640464946FDF71BFB8046894619EE100AFDF79C
S32508006C2073FC19A3D3E90023FDF7C6FC02460B4640464946FDF70AFBFDF7B6FF3060284638
S32508006C4002B0BDEC048BBDE87083BDF9063007EE903AF8EEE77AB6EE007A67EE877AC6ED8B
S32508006C60007AECE7AFF3008078F866091DD1B5BF8D6D946A48C15F4014D96C91716F003FAD
S32508006C804D6BA2295AD539BE4DF93B553332553D10B586B08DF8143052000A230293012374
S32508006CA0019305AC00942A3202F04AF806B010BD10B586B08DF8143052000A2302930123DE
S32508006CC0019305AC00942B3202F03AF806B010BD38B52DED048B20EE008A20EE089A68EE95
S32508006CE0088A10EE100AFDF70FFC21A3D3E90023FDF762FC20A3D3E90023FDF7A7FA044667
S32508006D000D4618EE100AFDF7FFFB1DA3D3E90023FDF752FC02460B4620462946FDF796FA31
S32508006D2004460D4619EE100AFDF7EEFB16A3D3E90023FDF741FC02460B4620462946FDF77F
S32508006D4085FA04460D4618EE900AFDF7DDFB10A3D3E90023FDF730FC02460B46204629467D
S32508006D60FDF774FAFDF700FFC0B2BDEC048B38BD26CD1A14EEC8FABF3C287C76E26D6B4031
S32508006D8071573D0215A7A3BF02379B32E41C423F561B5D2AC72BC0BE70B52DED028B82B0D3
S32508006DA005460E46B0EE408AF0EE608A072A18D01446B0EE600AFFF78BFF034622463146D3
S32508006DC02846FFF765FFB0EE480AFFF781FF0346224631462846FFF76BFF02B0BDEC028B99
S32508006DE070BDFDEEC07ACDED017A9DF804300722FFF74EFFFDEEE87ACDED017A9DF804307E
S32508006E00072231462846FFF753FFE6E708B500220121024801F033FD08BD00BF0004004805
S32508006E2008B501221146024801F029FD08BD00BF0004004810B582B00446FF238DF80730BD
S32508006E40FFF7E4FF01231A460DF10701204603F0ACFD2046FFF7E4FF02B010BD4FF0000CB6
S32508006E601022604514DD10B411F80C3083EAD213DBB2094C34F8133083EA022292B20CF1BE
S32508006E80010C6045F0DC500080B25DF8044B7047500080B2704700BFC8F1000810B582B0D9
S32508006EA0044607238DF8043011238DF8053001A90220FFF7D3FFC0F307238DF806308DF8F8
S32508006EC007002046FFF7A2FF642304220DEB0201204603F06AFD2046FFF7A2FF02B010BDBC
S32508006EE010B582B0044603238DF8043070238DF8053001A90220FFF7B1FFC0F307238DF843
S32508006F0006308DF807002046FFF794FF2046FFF7C5FF2046FFF77AFF642304220DEB020115
S32508006F20204603F042FD2046FFF77AFF02B010BD10B582B0044603238DF8043041F03801CD
S32508006F408DF8051001A90220FFF788FFC0F307238DF806308DF807002046FFF76BFF2046F0
S32508006F60FFF754FF642304220DEB0201204603F01CFD2046FFF754FF02B010BD70B582B01B
S32508006F8004460E4607238DF8043014238DF8053001A90220FFF762FFC0F307238DF80630B6
S32508006FA08DF807002046FFF745FF2046FFF72EFF642304220DEB0201204603F0F6FC00F02B
S32508006FC08BFE0546002301930A2304220DEB0201204603F05AFF019B23B900F07DFE431BD7
S32508006FE0B342F1D32046FFF71BFF019B13B1002002B070BD0320FBE730B583B00446154633
S325080070000023019309BB01238DF8053001A90220FFF724FFC0F307238DF806308DF8070000
S325080070202046FFF7F3FE642304220DEB0201204603F0BBFC642308222946204603F0B5FC13
S325080070402046FFF7EDFE03B030BD0129DED124238DF80530DAE700002DE9F04184B00546DA
S325080070600F4600238DF80C300A21FFF787FF032802D0002426462CE0354A138843F0020337
S325080070801380002061E0324A138843F00203138000205AE02E4A138823F00203138003E011
S325080070A008F101085FFA88F8B8F1020F0FD804EB440343449BB201AA32F818204FF6FF717A
S325080070C08A42EDD027F813200136F6B2E8E70134E4B2052C38D81F4B1B5D8DF80D3003A9BD
S325080070E00220FFF7BBFEC0F307238DF80E308DF80F002846FFF79EFE2846FFF787FE0A2367
S32508007100042203A9284603F050FC80460028BAD16423082201A9284603F0B7FE2846FFF794
S325080071207FFE01A90620FFF799FE9DF80A209DF80B3003EB02239BB29842ABD0044A13883A
S3250800714043F002031380C2E7304604B0BDE8F0813C020020C8F3000838B50D46144600238F
S3250800716006E02A792E4931F813100A432A710133112B44D84FF0010C0CFA03FC1CEA000FDB
S32508007180F5D0112BF3D801A252F823F06371000863710008637100086371000863710008C9
S325080071A0637100086371000863710008D5710008D5710008D5710008D5710008E371000899
S325080071C0E3710008E3710008E3710008F1710008F17100086A79124931F813100A436A7107
S325080071E0C5E722780E4931F813100A432270BEE762780B4931F813100A436270B7E729466E
S325080072000620FFF72BFEC0F30723AB71E87121460620FFF723FEC0F30723A371E07138BDEE
S32508007220D0F3000830B585B0044608460025029503950095019502238DF8083012018DF8CA
S325080072400D206A4602A9FFF787FF2046FFF7F2FD02AA29462046FFF7CFFE6A460121204655
S32508007260FFF7CAFE05B030BD08B51048104B03604FF482734360002383604FF4E062C26045
S32508007280036143614FF4007282613022C2610362436283620722C26203630823436303F065
S325080072A015FB00B908BDFFF7A9F9FBE7840300200030014008B51048104B03604FF4827395
S325080072C04360002383604FF4E062C260036143614FF4802282613022C2610362436283621C
S325080072E00722C26203630823436303F0EFFA00B908BDFFF783F9FBE720030020003C00408F
S3250800730070B58AB000230593069307930893099303682F4A934204D02E4A934222D00AB055
S3250800732070BD2D4B1A6E42F480521A661A6E02F480520092009ADA6C42F00102DA64DB6C0E
S3250800734003F001030193019BE023059302230693032308930523099305A94FF0904001F06C
S32508007360AFF9DCE71C4B9A6D42F400429A659A6D02F400420292029ADA6C42F00102DA6487
S32508007380DA6C02F001020392039ADA6C42F00202DA64DB6C03F002030493049B1023059378
S325080073A002260696032508950624099405A94FF0904001F085F938230593069600230793F7
S325080073C00895099405A9054801F07AF9A7E700BF00300140003C004000100240000400482E
S325080073E082B00A4B1A6E42F001021A661A6E02F001020092009A9A6D42F080529A659B6D00
S3250800740003F080530193019B02B070470010024008B502F0D3FEFEE7FEE7FEE7FEE7FEE7B4
S3250800742070477047704708B500F04AFC08BD000008B5024800F03DFF08BD00BF1002002078
S3250800744008B5024800F035FF08BD00BF1002002008B5024800F02DFF08BD00BF1002002064
S3250800746008B5024800F025FF08BD00BF1002002008B5024803F05FFF08BD00BF80040020AD
S3250800748008B5024803F057FF08BD00BF1805002008B5024802F0C3F808BD00BF4002002033
S325080074A008B5024804F0DCFB08BD00BF640500200E4AD2F8883043F47003C2F888300C4B92
S325080074C01A6842F001021A60002199601A6822F0A85222F410221A604FF48052DA601A6832
S325080074E022F480221A609961704700BF00ED00E000100240F8B5002421E002370123BB4093
S32508007500DB431BB2124A11880B40138027460322104B195D1048FFF769FA70B16DB100F05C
S32508007520DBFB801B6328E8D902370123BB40084A11880B4313800025E8E70134E4B2052C6C
S3250800754004D800F0C9FB06460125DFE7F8BD00BF3C0200203CF400084002002038B52DEDE2
S32508007560028BF0EE408AB0EE608A00250FE0F0EE680AB0EE480A2246084B595D0848FFF735
S325080075800BFC0134E4B2052CF1D90135EDB2052D01D80024F7E7BDEC028B38BD3CF40008CB
S325080075A04002002070B50646002530E0B21C01239340DB431BB2244A11880B401380234BB2
S325080075C003EB8403D3ED007A214B93ED007AF4EEC77AF1EE10FA01DDB0EE677A1C4B83ED48
S325080075E0007AB9EE047AF4EEC77AF1EE10FA0CDB184B93ED007AF4EEC77AF1EE10FA01D5AC
S32508007600B0EE677A134B83ED007A0135EDB2052D18D806EB46046400E4B22C44E4B20B4B0D
S3250800762003EB84032A460C49895D0C48FFF7A4FA0028BBD0B21C01239340034A11880B4388
S325080076401380E2E770BD00BF3C020020F0030020E8030020040000203CF40008400200209A
S32508007660F8B5204B00221A601F4B204A1A60002404E02046FFF796FF0134E4B2052CF8D934
S32508007680002425460026002701E00134A4B2232C19D8174B03EB8403D3ED007AB9EE047A1E
S325080076A0F4EEC77AF1EE10FAEFDB17EE900AFCF72BFF02460B4630463946FCF7C7FD064699
S325080076C00F460135E1E72846FCF7FCFE02460B4630463946FDF79AF8FDF766FA054B1860BE
S325080076E0F8BD00BFE80300200400002000007042F0030020EC030020014B93ED000A704778
S32508007700EC030020014B93ED000A7047E8030020014B93ED000A70470400002000B58FB00F
S3250800772000230A930B930C930D9307930893099300930193029303930493059306932A4841
S325080077404FF08042026041F63F72426083604FF0FF32C2604FF400720261836103F0F0FEDC
S3250800776060BB4FF480530A930AA91F4803F0CCFF38BB1D4803F014FF30BB002307930993B3
S3250800778007A9194804F0A6F908BB002200920192029204926946144803F06CFFD0B90422EB
S325080077A06946114803F066FFB8B9082269460E4803F060FFA0B90FB05DF804FBFEF71EFFEB
S325080077C0CFE7FEF71BFFD4E7FEF718FFD5E7FEF715FFDAE7FEF712FFE1E7FEF70FFFE4E7ED
S325080077E0FEF70CFFE7E700BF1805002010B59AB000241694179418941994139414941594D8
S325080078000C940D940E940F941094119412942C22214601A805F05BFC2F48304B0360446042
S3250800782084604FF6FF73C36004614461846103F087FE00283AD14FF48053169316A92648F6
S3250800784003F062FF002834D1234803F0A9FE002832D100231393159313A91F4804F03AF9AE
S3250800786000282CD100220C920D920E920F921092119212920CA9184803F0FCFE10BB042259
S325080078800CA9154803F0F6FEF8B90023019302930393049305934FF4005206920B9301A9AA
S325080078A00D4804F04FF998B91AB010BDFEF7A6FEC1E7FEF7A3FEC7E7FEF7A0FEC9E7FEF784
S325080078C09DFECFE7FEF79AFED9E7FEF797FEDCE7FEF794FEE8E700BFCC0400200040014029
S325080078E010B592B000240B940C940D940E940F94109411942C222146684605F0E8FB1F483F
S325080079001F4B03604FF6FF13436084604FF6FF73C36004614461846103F012FE08BB1748C0
S3250800792003F03EFE00BB00220B920C920D920E920F92109211920BA9104803F09BFEB0B9CC
S325080079400023009301930293039304934FF4005205920A936946094804F0F4F850B912B099
S3250800796010BDFEF74BFEDAE7FEF748FEDBE7FEF745FEE5E7FEF742FEF1E700BF80040020BC
S325080079800044014000B585B00368B3F1804F08D01D4A934219D01D4A934221D005B05DF858
S325080079A004FB03F504339A6D42F001029A659B6D03F001030193019B002211461C2000F07C
S325080079C003FE1C2000F010FEE8E7114B1A6E42F480321A661B6E03F480330293029BDDE71A
S325080079E00B4B1A6E42F400321A661B6E03F400330393039B00221146192000F0E5FD19200F
S32508007A0000F0F2FDCAE700BF00400140004401400010024008B50368074A1268934204D015
S32508007A20064A1268934203D008BDFEF753FFFBE7FEF79EF8F8E700BF1805002080040020CE
S32508007A4008B50B480B4B03604FF4E133436000238360C36003610C2242618361C36103628A
S32508007A60436204F0A2FC00B908BDFEF7C7FDFBE7640500200038014010B59CB0044600212A
S32508007A801791189119911A911B91542202A805F01EFB22681C4B9A4201D01CB010BD0123FD
S32508007AA0029302A802F050FC58BB184B1A6E42F480421A661A6E02F480420092009ADA6C13
S32508007AC042F00102DA64DB6C03F001030193019B4FF4C063179302231893002419940323E0
S32508007AE01A9307231B9317A94FF0904000F0E8FD22462146252000F067FD252000F074FD41
S32508007B00CBE7FEF77BFDD0E7003801400010024008B50248FFF7E4F908BD00BF84030020B1
S32508007B2008B502490248FFF797FA08BD300600208403002008B5022804D900210248FFF777
S32508007B40F7F908BD4021F9E78403002008B5022804D903490348FFF77FFA08BD0249F9E7C0
S32508007B60E8050020840300200C060020012301E00133DBB2112B0FD8134A32F81320134912
S32508007B8031F81310521A12F57A6FF1DA104A138843F48073138070470B4B1B8843B10B4BB8
S32508007BA05B8C5BB10A4A138823F4807313807047074A138843F4807313807047044A138838
S32508007BC043F48073138070470C060020E80500203C02002000234AF2104006E0044A32F879
S32508007BE01320904228BF10460133112BF6D97047300600200023184606E0054A32F81320D6
S32508007C00904238BF10460133112BF6D9704700BF3006002000239FED0A7A09E0094A32F893
S32508007C20132007EE902AF8EEE77A37EE277A0133112BF3D9B3EE020A87EE000A704700BF69
S32508007C4000000000300600200048704730060020104B1B780BB90120704710B504464FF48F
S32508007C607A70B0FBF3F30C4A1068B0FBF3F000F0C3FC68B90F2C01D901200AE000222146A6
S32508007C804FF0FF3000F0A0FC044B1C60002000E0012010BD08000020000000200C000020AF
S32508007CA010B5032000F07EFC0020FFF7D1FF10B10124204610BD0446FFF792FBF9E70000B8
S32508007CC0034B1B78034A11680B441360704700BF0800002054060020014B1868704700BFD3
S32508007CE05406002038B50446FFF7F6FF0546B4F1FF3F02D0044B1B781C44FFF7EDFF401B5B
S32508007D00A042FAD338BD00BF08000020002800F0A18038B5044690F82030D3B122681368F9
S32508007D2043F001031360FFF7D7FF054623685A6812F0010F10D1FFF7CFFF401B0A28F5D915
S32508007D40636A43F400336362052384F82030012038BDFDF783FFE1E71A6822F002021A60BF
S32508007D60FFF7BAFF054623685A6812F0020F0DD0FFF7B2FF401B0A28F5D9636A43F4003385
S32508007D806362052384F820300120E1E7227E012A3DD01A6822F080021A60637E012B3BD0B3
S32508007DA02268136823F040031360A37E012B39D02268136823F020031360E37E012B37D04F
S32508007DC02268136843F010031360237F012B35D02268136823F008031360637F012B33D05D
S32508007DE02268136823F004031360A368E268134322691343626913436268013A2168134352
S32508007E00CB6100206062012384F82030A0E71A6842F080021A60C0E72268136843F04003FD
S32508007E201360C2E72268136843F020031360C4E72268136823F010031360C6E7226813684F
S32508007E4043F008031360C8E72268136843F004031360CAE701207047026890F82030013BFB
S32508007E60DBB2012B05D9436A43F4802343620120704730B4D2F8003243F00103C2F8003256
S32508007E804B6903F01F03012000FA03F3D2F81C026FEA030C20EA0300C2F81C02C869B0B92B
S32508007EA0D2F80C020CEA0000C2F80C028C884869CD6844EA0544483042F830400C88486946
S32508007EC08D6844EA0544483002EBC0004460C86901281BD0886980BBD2F804020CEA000028
S32508007EE0C2F80402086970BBD2F814020CEA0000C2F81402096A01292BD0D2F8003223F0CB
S32508007F000103C2F80032002030BC7047D2F80C021843C2F80C028C8848690D6844EA0544F4
S32508007F20483042F830408C8948698D6844EA0544483002EBC0004460CCE7D2F80402184338
S32508007F40C2F80402CEE7D2F814021843C2F81402D0E7D2F81C120B43C2F81C32CDE770B5B5
S32508007F60044690F82050EDB2012D06D0436A43F4002343620125284670BD022380F82030B4
S32508007F800268136823F001031360FFF7A5FE064623685B6813F0010F0CD0FFF79DFE831B13
S32508007FA00A2BF5D9636A43F400336362052384F82030E0E700256562DDE730B590F820C0FC
S32508007FC00468A4680CF1FF3C5FFA8CFCBCF1010F6BD814F0E05F62D0C4F3016CBCF1020FAB
S32508007FE005D9436A43F400034362012062E0012404FA0CF41C608B68002B3DD10D68CB6833
S32508008000046843EA45550CF118031B01E55003680C690CF1180E03EB0E135C600B7D012B34
S3250800802035D0D17993791B0443EA0163517943EA012314790168234301EB0C11C1F88C3131
S32508008040D17893781B0443EA0163517843EA0123117802680B4302EB0C12C2F888310268CB
S325080080600CF1180C4FEA0C1C52F80C3043F0010342F80C3000201DE04C6843EAC403CC6844
S3250800808023430CF11804240105682B51BFE7036803EB0E13596841F480715960C1E7436A30
S325080080A043F400134362012004E0436A43F480234362012030BD90F82030013BDBB2012BB7
S325080080C005D9436A43F4802343620120704711F0010F04D00268936843F08003936011F0BC
S325080080E0020F04D00268936843F40043936011F0040F04D00268936843F400039360002021
S32508008100704790F82030013BDBB2012B01D9002070470368986810F0806000D001209A68DE
S3250800812012F0006F00D001309B6813F0805FEFD00130704790F820C00CF1FF3C5FFA8CFCB2
S32508008140BCF1010F00F2958030B451B90468E46814F0030F10D1436A43F4001343620120F3
S3250800816077E00468246914F0030F05D1436A43F40013436201206CE001F11B042401056809
S325080081802C5904F004049460002C64D101F11B04240105682C59640D1460046801F11B0C69
S325080081A04FEA0C1C54F80C4004F00204D46004686444646804F00F0414610468644464684E
S325080081C0C4F307249461046864446468240C5461026802EB0112D2F8B8211A70026802EB07
S325080081E00112D2F8B821C2F307225A70026802EB0112D2F8B821C2F307429A70026802EBA7
S325080082000112D2F8B821120EDA70026802EB0112D2F8BC211A71026802EB0112D2F8BC2183
S32508008220C2F307225A71026802EB0112D2F8BC21C2F307429A71026802EB0112D2F8BC215C
S32508008240120EDA7179B90268D36843F02003D360002030BC704701F11B04240105682C595A
S32508008260E408546099E70268136943F020031361EEE7436A43F4802343620120704790F8BF
S325080082802030013BDBB2012B05D9436A43F48023436201207047026853690B435361002061
S325080082A07047704770477047704770477047704770472DE9F84F054603685C69D3F804801A
S325080082C09F68D3F80CB0D3F810A0D3F8189014F001063BD017F0010616D001229A6017F0E6
S325080082E0020F08D117F0040F0CD117F0080606D04FF4805608E0FEF70DF8002604E0FFF7A9
S32508008300D0FF01E04FF4006617F4807F0DD02B684FF480729A6017F4007F40F0868017F482
S32508008320806F00F0868046F4005617F4803F0DD02B684FF480329A6017F4003F40F0838014
S3250800834017F4802F00F0838046F4004614F0080F07D01BF0100F04D046F400762B6810227D
S32508008360DA6014F0040F02D01BF0080F79D114F0020F04D02B68DB6813F0030F78D114F03F
S32508008380400F07D01AF0100F04D046F480662B6810221A6114F0200F02D01AF0080F6BD1EA
S325080083A014F0100F04D02B681B6913F0030F6AD114F4003F02D018F0100F68D114F4803F11
S325080083C002D018F0080F69D114F4004F7AD018F0040F74D014F4807F04D019F0010F01D09F
S325080083E046F0010614F4007F04D019F0020F01D046F0020614F4806F04D019F0040F01D0F6
S3250800840046F0040614F4006F59D019F0700956D0B9F1400F65D058D8B9F1200F5ED0B9F1B7
S32508008420300F42D146F0200644E02846FDF777FF7BE717F4006F02D046F4804675E728460C
S32508008440FFF730FF71E72846FDF76EFF7EE717F4002F02D046F4803678E72846FFF723FF7C
S3250800846074E72B680822DA602846FFF71DFF7EE72846FDF77BFE82E72B6808221A612846CD
S32508008480FFF714FF8CE72846FFF70FFF90E72B6810225A602846FFF70AFF8FE72B6808224A
S325080084A05A602846FFF704FF8EE7B9F1100F01D146F008062A68936923F0700393612B689E
S325080084C004225A609EB9BDE8F88FB9F1500F0BD0B9F1600FEED146F48076EBE746F0100621
S325080084E0E8E746F04006E5E746F08006E2E76B6A33436B622846FDF7CBFEE4E7002807DBBA
S3250800850000F01F02400901239340024A42F82030704700BF00E100E0002808DB0901C9B25F
S3250800852000F1604000F5614080F80013704700F00F000901C9B2014B1954704714ED00E0EF
S3250800854000B500F00700C0F1070CBCF1040F28BF4FF0040C031D062B0FD9C31E4FF0FF3E11
S325080085600EFA0CF021EA000199400EFA03FE22EA0E0241EA02005DF804FB0023EEE7000066
S32508008580BFF34F8F0549CA6802F4E062044B1343CB60BFF34F8F00BFFDE700BF00ED00E0F6
S325080085A00400FA05074AD36823F4E0631B041B0C000200F4E060034343F0BF6343F4003343
S325080085C0D360704700ED00E010B50446054BD868C0F30220FFF7B4FF01462046FFF79CFF7B
S325080085E010BD00BF00ED00E008B5FFF787FF08BD08B5FFF7C5FF00000138B0F1807F0BD2E9
S325080086004FF0E0235861054AF02182F823100020986107221A6170470120704700ED00E02B
S3250800862090F82530DBB2022B06D00423C363002380F82430012070470268136823F00E03A2
S3250800864013600268136823F001031360436C03F01C03016C012202FA03F34B6080F825207F
S32508008660002380F824301846704708B590F82530DBB2022B03D00423C363012008BD026824
S32508008680136823F00E0313600268136823F001031360436C03F01C03016C012202FA03F308
S325080086A04B6080F82520002380F82430836B13B198470020E2E70020E0E790F82500704790
S325080086C0F0B583B0002362E085685E000324B44025EA0405CC68B4402C438460456825EA9A
S325080086E00C054C68C4F300149C402C4344605FE0DD08083550F8254003F0070C4FEA8C0C08
S325080087004FF00F0E0EFA0CFE24EA0E0E0C6904FA0CF444EA0E0440F8254060E0022400E01D
S32508008720002404FA0EF42C430CF1020C4C4D45F82C404C4CA568D44325EA02064F6817F4B6
S32508008740801F01D042EA0506464DAE60ED6804EA05064F6817F4001F01D042EA0506414DFE
S32508008760EE606D6804EA05064F6817F4003F01D042EA05063B4D6E602D682C404E6816F4AF
S32508008780803F01D042EA0504364A146001330A6832FA03F462D04FF0010C0CFA03FC1CEAC0
S325080087A00202F3D04C6804F00304013C012C8BD94C6804F00304032C0CD0C4685D004FF0E5
S325080087C0030C0CFA05FC24EA0C0C8C68AC4044EA0C04C4604C6804F00304022C88D004686C
S325080087E04FEA430E4FF0030C0CFA0EFC24EA0C0C4C6804F0030404FA0EF444EA0C0404600C
S325080088004C6814F4403FC1D0174C256E45F001052566246E04F001040194019C4FEA930C2D
S325080088200CF102050E4C54F8255003F0030E4FEA8E0E0F2404FA0EF425EA0405B0F1904F67
S325080088403FF46EAF094CA04206D004F58064A0423FF464AF072464E7012462E703B0F0BD64
S32508008860000001400004014000100240000400480369194201D001207047002070470AB1C4
S325080088808161704781627047436901EA030221EA030141EA02418161704703689A6912F075
S325080088A0020F01D000229A6203689A6912F0010F03D19A6942F001029A61704710B4019C0B
S325080088C0C1F3090141EA02411943214321F0004102685368640D04F4806444F07F7444F47B
S325080088E0583444F47F7444F0030423EA04030B4353605DF8044B704711F0010F09D090F896
S32508008900413003F02803282B01D0F22302E0422300E0002311F0020F09D043F0440C90F841
S32508008920412002F02802282A10D043F0F40311F4004F0DD110290ED020290FD0402910D096
S3250800894001680A6822EA03030B6070476346EEE743F0B803EEE743F09003EDE743F02003C9
S32508008960ECE743F04003EBE72DE9F041044603689F6917F010074CD00E4690461022DA61F9
S3250800898000252368986910F0200F3BD1002D39D1B6F1FF3FF5D0FFF79FF9A0EB0800B042E9
S325080089A001D8002EEDD121684B6803F4804394F84220D2B2886910F4004F02D00BB9202A58
S325080089C018D123689B6913F0200FDAD1FFF784F9A0EB08001928F4D9636C43F02003636434
S325080089E0202384F84130002384F8423084F840300125E6E74B6843F480434B60FFF76CF996
S32508008A008046DEE7002D40D12022DA610427012500E000252268936913F4807F05D047F014
S32508008A2001074FF48071D161012513F4806F06D047F0080722684FF48061D161012513F475
S32508008A40007F24D047F0020723684FF40072DA6101252046FFF721FF2268536823F0FF736E
S32508008A6023F48B3323F4FF7323F001035360636C3B436364202384F84130002384F842306B
S32508008A8084F840302846BDE8F0810427C2E7002DF8D0DEE770B504460D46164623689B691D
S32508008AA013F0020F1DD1324629462046FFF75CFFC8B9B5F1FF3FF1D0FFF70EF9801BA84260
S32508008AC001D8002DEAD1636C43F020036364202384F84130002384F8423084F8403001208D
S32508008AE000E0002070BD0120FCE72DE9F0410646884617461D463468A46938EA04040CBF78
S32508008B0001240024BC4218D1B5F1FF3FF3D0FFF7E3F8069BC01AA84201D8002DEBD1736C99
S32508008B2043F020037364202386F84130002386F8423086F84030012000E00020BDE8F08190
S32508008B402DE9F04182B0044690461D46089E099F194B00934FF08073EAB2FFF7AFFE3A46D5
S32508008B6031462046FFF796FFF8B9012D0ED123685FFA88F29A62009733460022802120462E
S32508008B80FFF7B3FFA8B902B0BDE8F08123684FEA18229A623A4631462046FFF77BFF30B946
S32508008BA023685FFA88F29A62E5E70120EBE70120E9E70120E7E700BF002000802DE9F04108
S32508008BC082B0044690461D46089E099F184B00930023EAB2FFF772FE3A4631462046FFF716
S32508008BE059FFF8B9012D0ED123685FFA88F29A6200973346002240212046FFF776FFA8B932
S32508008C0002B0BDE8F08123684FEA18229A623A4631462046FFF73EFF30B923685FFA88F2AD
S32508008C209A62E5E70120EBE70120E9E70120E7E70020008070B505460C4616462B689B6936
S32508008C4013F0200F1AD1324621462846FFF78CFEB0B9FFF741F8801BA04201D8002CEDD144
S32508008C606B6C43F020036B64202385F84130002385F8423085F84030012070BD0020FCE769
S32508008C800120FAE7002859D010B5044690F84130002B43D0242384F841302268136823F0E1
S32508008CA0010313606368226823F0706313612268936823F400439360E368012B33D0A36829
S32508008CC0226843F404439360E368022B31D02268536843F0007343F4004353602268D36835
S32508008CE023F40043D360236962691343A169226843EA0123D360E369216A22680B431360F2
S32508008D002268136843F00103136000206064202384F84130206384F8420010BD80F840308C
S32508008D20FDF79EFBB6E7A368226843F400439360CAE723684FF400625A60C8E701207047D7
S32508008D402DE9F04F83B00E46BDF834A00E9D90F84110C9B2202940F0BB80044690469946EE
S32508008D600C9BCBB1BAF1000F16D090F84030012B00F0B2804FF0010B80F840B0FEF7ACFF89
S32508008D800746009019235A464FF400412046FFF7ACFE30B101209CE04FF400736364012066
S32508008DA097E0212384F84130402384F84230002363640C9A6262A4F82AA0636301970095FF
S32508008DC04B46424631462046FFF7BAFE70B9638D9BB2FF2B0FD9FF222285002300934FF0AC
S32508008DE0807331462046FFF769FD21E0002384F8403058466DE0628D92B2228500230093AE
S32508008E004FF00073D2B231462046FFF757FD0FE0628D92B22285002300934FF00073D2B232
S32508008E2031462046FFF74AFD638D9BB2002B33D03A4629462046FFF72DFE00284ED1626A16
S32508008E40236812789A62636A01336362638D9BB2013B9BB26385238D013B9BB22385628DAF
S32508008E6092B2002AE0D0002BDED100972B46002280212046FFF739FE90BB638D9BB2FF2BDC
S32508008E80C6D9FF222285002300934FF0807331462046FFF713FDC7E73A4629462046FFF799
S32508008EA0C9FEF8B923682022DA6121684B6823F0FF7323F48B3323F4FF7323F001034B6043
S32508008EC084F84120002384F8423084F8403000E0022003B0BDE8F08F0220FAE70120F8E7CE
S32508008EE00120F6E70120F4E72DE9F04F83B00E46BDF834A00E9D90F84110C9B2202940F08D
S32508008F00BC800446904699460C9BCBB1BAF1000F16D090F84030012B00F0B3804FF0010BB3
S32508008F2080F840B0FEF7D8FE0746009019235A464FF400412046FFF7D8FD30B101209DE003
S32508008F404FF400736364012098E0222384F84130402384F84230002363640C9A6262A4F87A
S32508008F602AA06363019700954B46424631462046FFF724FE70B9638D9BB2FF2B0FD9FF227F
S32508008F802285444B00934FF0807331462046FFF795FC21E0002384F8403058466EE0628D79
S32508008FA092B222853B4B00934FF00073D2B231462046FFF783FC0FE0628D92B2228500232B
S32508008FC000934FF00073D2B231462046FFF776FC638D9BB2002B34D000972B4600220421BA
S32508008FE02046FFF782FD00284DD123685A6A636A1A70636A01336362228D013A92B2228501
S32508009000638D9BB2013B9BB26385638D9BB2002BDED0002ADCD100972B4680212046FFF7A2
S3250800902064FD90BB638D9BB2FF2BC5D9FF222285002300934FF0807331462046FFF73EFCB4
S32508009040C6E73A4629462046FFF7F4FDF8B923682022DA6121684B6823F0FF7323F48B33CA
S3250800906023F4FF7323F001034B6084F84120002384F8423084F8403000E0022003B0BDE863
S32508009080F08F0220FAE70120F8E70120F6E70120F4E700BF002400807047704710B5044666
S325080090A003681A68002180F8421012F4804F0ED01A6822F480421A6094F84130DBB2292B65
S325080090C00DD094F84130DBB22A2B18D010BD12F4004FF1D01A6822F400421A60ECE7282389
S325080090E084F841302123236301212046FFF704FC002384F840302046FFF7CEFFE6E72823DD
S3250800910084F841302223236302212046FFF7F4FB002384F840302046FFF7BFFFD6E770477E
S32508009120F8B5044690F8413003F02803282B06D003680822DA61002380F84030F8BD0368EF
S325080091409E69C6F300469A69120C02F0FE059A68C2F30902DF6807F0FE07C168022922D199
S3250800916085EAD21515F0060F10D1816C01318164816C0229E2D1002181640820D86184F8DE
S32508009180401031462046FFF7CAFFD7E74FF40041FFF7B2FB002384F840303A463146204684
S325080091A0FFF7BDFFCAE74FF40041FFF7A5FB002384F840302A4631462046FFF7B0FFBDE77F
S325080091C07047000010B50446174BC36200230363202280F8412080F84230436311F0040FEC
S325080091E013D003685A6A436A1A70436A01334362038D53B1013B0385438D9BB2013B9BB294
S325080092004385436C43F00403436448F203012046FFF772FB23681022DA61002384F84030DA
S325080092202046FFF7CDFF10BD0000FFFF7047704708B590F84130DBB2602B06D00023036392
S3250800924080F84030FFF7F2FF08BD202380F841300023036380F84030FFF7E9FFF4E7000016
S3250800926010B5044690F84130002280F842203B48E0626285626C0A436264283BDBB2022B32
S3250800928019D803212046FFF737FB282384F84130334B6363236BA26B1AB1112B1BD0212BC8
S325080092A019D0E26B1AB1122B36D0222B34D02046FFF7BEFF10BD48F203012046FFF71CFB74
S325080092C094F84130DBB2602B02D0202384F8413000236363DEE723681A6812F4804F03D006
S325080092E01A6822F480421A60A06BFFF7E6F901280ED0A36B1B4A9A63002384F84030A06B1B
S32508009300FFF7B3F90028D5D0A06B836B9847D1E72046FFF78DFFCDE723681A6812F4004F42
S3250800932003D01A6822F400421A60E06BFFF7C5F901280ED0E36B0B4A9A63002384F8403043
S32508009340E06BFFF792F90028B4D0E06B836B9847B0E72046FFF76CFFACE700BF0000FFFFC1
S32508009360D19400088996000870B504460D460268166890F84130DBB22021D161212B0DD07F
S32508009380292B0BD0222B01D02A2B0ED148F202012046FFF7B1FA2223236306E048F201010D
S325080093A02046FFF7A9FA212323632268536843F4004353602268536823F0FF7323F48B33C5
S325080093C023F4FF7323F0010353602046FFF765FA16F4804F40D02268136823F48043136036
S325080093E0A36B1BB11B685B689BB2638515F0040F11D025F0040523685A6A636A1A70636A80
S3250800940001336362238D33B1013B2385638D9BB2013B9BB26385638D9BB21BB1636C43F014
S3250800942004036364002384F842306363636C1BBBE36A13F5803F2DD194F84130DBB2222BEB
S3250800944038D0202384F841300023236384F840302046FFF721FE2CE016F4004FC6D0226831
S32508009460136823F400431360E36B002BBED01B685B689BB26385B9E7616C2046FFF7F0FE5D
S3250800948094F84130DBB2282B13D129462046FFF799FE0EE02046FFF701FE0C4BE362202373
S325080094A084F841300023236384F840302046FFF787FE70BD202384F841300023236384F8B9
S325080094C040302046FFF7E9FDF3E700BF0000FFFFF8B5C76A90F84030012B00F09E800446DB
S325080094E00D461646012380F8403011F0200F02D012F0200F19D115F0100F3ED016F0100F2F
S325080095003BD0638D9BB243BB94F84130DBB2282B0ED094F84130DBB2292B11D023681022C0
S32508009520DA61002084F84000F8BDFFF71DFFE2E7B7F1007FEDD129462046FFF743FEF0E7AE
S3250800954017F5803FEAD023681022DA612046FFF7A4F92046FFF7A2FDE3E723681022DA61CA
S32508009560636C43F00403636417B1B7F1807FD8D1616C2046FFF774FED3E715F0040F1FD099
S3250800958016F0040F1CD0638D9BB273B123685A6A636A1A70636A01336362238D013B238557
S325080095A0638D9BB2013B9BB26385638D9BB2002BB7D117F5803FB4D02046FFF76FFDB0E751
S325080095C015F0080F02D016F0080F18D115F0020FA7D016F0020FA4D0638D9BB2A3B1626A14
S325080095E0236812789A62636A01336362638D9BB2013B9BB26385238D013B238591E729465D
S325080096002046FFF78DFD8CE7B7F1807F01D0002F87D12046FFF742FD83E7022084E710B58D
S3250800962002689369116813F4807F09D011F0800F06D0446C44F0010444644FF48074D461FB
S3250800964013F4806F0AD011F0800F07D0426C42F00802426402684FF48064D46113F4007FE9
S325080096600AD011F0800F07D0436C43F00203436403684FF40072DA61416C11F00B0F00D119
S3250800968010BDFFF7EDFDFBE708B5806A836B0BB100229A63C36B0BB100229A63FFF7C8FDF9
S325080096A008BD034690F84120D2B2202A23D190F84020012A21D0012280F84020242280F826
S325080096C041200068026822F0010202601868026822F480520260186802681143016019687E
S325080096E00A6842F001020A60202283F84120002083F84000704702207047022070470346A0
S3250800970090F84120D2B2202A21D190F84020012A1FD0012280F84020242280F8412000680E
S32508009720026822F0010202601868026822F4706242EA0122026019680A6842F001020A6025
S32508009740202283F84120002083F84000704702207047022070470000024B186800F4C060B8
S32508009760704700BF00700040B0F5007F0FD01F4B1B6803F4C063B3F5806F34D01B4A136830
S3250800978023F4C06343F48063136000207047174B1B6803F4C063B3F5007F20D0134A13682F
S325080097A023F4C06343F400731360114B1B68322202FB03F30F4AA2FB03239B0C013300E047
S325080097C0013B0A4A526912F4806F01D0002BF7D1064B5B6913F4806F03D1002070470020A1
S325080097E07047032070470020704700BF007000400000002083DE1B4330B583B00446204BD8
S325080098009B6D13F0805F0BD0FFF7A6FFB0F5007F17D0802C1FD82DD0702C2DD000211BE07A
S32508009820174DAB6D43F08053AB65AB6D03F080530193019BFFF790FFAB6D23F08053AB65E7
S32508009840E4E7802C03D9A02C03D9022104E0002102E0012100E003210A4A136823F00703E3
S325080098600B431360136803F007038B4206D1002003B030BD0221EFE70121EDE70120F7E74F
S325080098800010024000200240284A9368D26802F0030213F00C030AD00C2B06D0042B1FD051
S325080098A0082B20D00020024610E0012AF6D11F4A126812F0080F0CD11C4AD2F89420C2F3BB
S325080098C003221B4951F8222043B100200C2B0DD07047164A1268C2F30312F2E71046F5E7D8
S325080098E014480022F2E714480022EFE70F4BDB6803F00303022B16D0032B00D10E4A0B495B
S32508009900CB68C3F302130133C868C0F3062002FB00F0B0FBF3F0CB68C3F3416301335B0067
S32508009920B0FBF3F0D4E7034AE9E700BF00100240F4F300080024F40000127A00002800F0F7
S325080099402783F0B583B00446964B9D6805F00C05DE6806F00306036813F0100F5AD0E5B1AF
S325080099600C2D18D0A369002B00F0BB808D4A136843F001031360FEF7AFF90746894B1B6819
S3250800998013F0020F40F09A80FEF7A6F9C01B0228F4D9032007E3012EE4D1824B1B6813F0B1
S325080099A0020F03D0A369002B00F0F482206A7D4B1B6813F0080F5BD07A4B1B6803F0F003D0
S325080099C098425CD8774B1A6842F008021A601A6822F0F002216A0A431A605A6822F47F4200
S325080099E0E16942EA01225A60002D60D0FFF74CFF6C4B9B68C3F303136B4AD35C03F01F03E9
S32508009A00D8406A4B18606A4B1868FEF721F9002840F0C982236813F0010F00F08180082D48
S32508009A2075D00C2D71D06368B3F5803F00F09780B3F5A02F00F099805A4B1A6822F48032B1
S32508009A401A601A6822F480221A606368002B00F09980FEF741F90746524B1B6813F4003FE9
S32508009A605ED1FEF739F9C01B6428F5D903209AE24C4BD3F894301B0903F0F003A0E7FFF701
S32508009A80BBFE002840F08882464B1A6842F008021A601A6822F0F002216A0A431A605A683A
S32508009AA022F47F42E16942EA01225A609EE7206AFFF7A2FE002899D0012074E2394B1A68BB
S32508009AC042F008021A601A6822F0F002216A0A431A605A6822F47F42E16942EA01225A60FE
S32508009AE098E7304A136823F001031360FEF7F4F807462C4B1B6813F0020F8BD0FEF7ECF8EA
S32508009B00C01B0228F5D903204DE2032E8BD1254B1B6813F4003F03D06368002B00F03E82D3
S32508009B20236813F0020F58D0042D45D00C2D41D0E368002B77D01B4A136843F48073136086
S32508009B40FEF7CAF80646174B1B6813F4806F61D1FEF7C2F8801B0228F5D9032023E2114A22
S32508009B60136843F4803313606FE703F18043A3F53C331A6842F480221A601A6842F48032AD
S32508009B801A6062E7FEF7A8F80746064B1B6813F4003FC5D0FEF7A0F8C01B6428F5D903207E
S32508009BA001E200BF001002402CF40008000000200C000020022EBBD1AC4B1B6813F4806F03
S32508009BC003D0E368002B00F0EB81A84A536823F0F853216943EA01635360236813F0080F54
S32508009BE04CD063699BB3A14AD2F8943043F00103C2F89430FEF770F806469C4BD3F89430D4
S32508009C0013F0020F3AD1FEF767F8801B0228F4D90320C8E1954A536823F0F853216943EAB6
S32508009C2001635360D9E7914A136823F480731360FEF752F806468D4B1B6813F4806FCCD0F4
S32508009C40FEF74AF8801B0228F5D90320ABE1874AD2F8943023F00103C2F89430FEF73CF860
S32508009C600646824BD3F8943013F0020F06D0FEF733F8801B0228F4D9032094E1236813F06C
S32508009C80040F7AD0794B9B6D13F0805F36D1774B9A6D42F080529A659B6D03F08053019376
S32508009CA0019B0126724B1B6813F4807F28D0A368012B39D0052B3FD06C4BD3F8902022F0D2
S32508009CC00102C3F89020D3F8902022F00402C3F89020A368002B3DD0FDF7FEFF0746634BDB
S32508009CE0D3F8903013F0020F46D1FDF7F5FFC01B41F288339842F2D9032054E10026D1E714
S32508009D005B4A136843F480731360FDF7E5FF0746574B1B6813F4807FC9D1FDF7DDFFC01BE3
S32508009D200228F5D903203EE1504AD2F8903043F00103C2F89030CCE74C4BD3F8902042F00F
S32508009D400402C3F89020D3F8902042F00102C3F89020BEE7FDF7C0FF0746444BD3F89030AA
S32508009D6013F0020F08D0FDF7B7FFC01B41F288339842F2D9032016E1E6B9236813F0200F5B
S32508009D8035D0636AE3B1394AD2F8983043F00103C2F89830FDF7A0FF0646344BD3F8983090
S32508009DA013F0020F23D1FDF797FF801B0228F4D90320F8E02D4A936D23F080539365DCE75E
S32508009DC02A4AD2F8983023F00103C2F89830FDF783FF0646254BD3F8983013F0020F06D027
S32508009DE0FDF77AFF801B0228F4D90320DBE0A36A002B00F0D780022B27D00C2D00F0D78055
S32508009E001A4B1A6822F080721A601B6813F0006F04D1164AD36823F00303D360134AD36886
S32508009E2023F0887323F48033D360FDF755FF04460E4B1B6813F0007F00F0A880FDF74CFFC2
S32508009E40001B0228F4D90320ADE0084BDB6803F00301E26A91420DD00C2D00F0A680034B0C
S32508009E601B6813F0806F2FD001209CE0001002400070004003F07002216B0139B2EB011FD9
S32508009E80EAD103F4FE42616BB2EB012FE4D103F07842A16BB2EBC16FDED103F4C001E26B3A
S32508009EA05208013AB1EB425FD6D103F0C063226C5208013AB3EB426FCED13E4B1B6813F0E5
S32508009EC0007F49D000206EE03A4A136823F080731360FDF701FF0546364B1B6813F0007F31
S32508009EE006D0FDF7F9FE401B0228F5D903205AE0304AD36830491940E36A206B013843EA1E
S32508009F000013606B43EA0023E06B4008013843EA4053206C4008013843EA4063A06B43EA64
S32508009F20C0631943D160136843F080731360D36843F08073D360FDF7CFFE04461D4B1B68C5
S32508009F4013F0007F06D1FDF7C7FE001B0228F5D9032028E0002026E0164B1A6842F0807276
S32508009F601A60DA6842F08072DA60FDF7B5FE0446104B1B6813F0007F06D1FDF7ADFE031BD4
S32508009F80022BF5D903200EE000200CE000200AE001207047012006E0012004E0012002E0AA
S32508009FA0012000E0002003B0F0BD0120FBE70120F9E700BF001002408C809D01002800F03B
S32508009FC0988070B50C4605464E4B1B6803F007038B420BD24B4A136823F007030B431360E8
S32508009FE0136803F007038B4240F085802B6813F0010F39D06B68032B09D0022B26D063BB0F
S3250800A000414A126812F0020F06D1012070E03E4A126812F0007F70D03B498A6822F0030282
S3250800A02013438B60FDF758FE0646374B9B6803F00C036A68B3EB820F16D0FDF74DFE801BF3
S3250800A04041F288339842F0D9032051E02E4A126812F4003FE0D101204AE02B4A126812F4E5
S3250800A060806FD9D1012043E02B6813F0020F06D0254A936823F0F003A9680B439360214B4A
S3250800A0801B6803F00703A3420AD91E4A136823F0070323431360136803F00703A3422ED135
S3250800A0A02B6813F0040F06D0174A936823F4E063E9680B4393602B6813F0080F07D0124AEB
S3250800A0C0936823F46053296943EAC1039360FFF7DBFB0D4B9B68C3F303130C4AD35C03F0CC
S3250800A0E01F03D8400A4B18600A4B1868FDF7B0FD70BD012070470120FAE70120F8E70120AD
S3250800A100F6E700BF00200240001002402CF40008000000200C000020014B1868704700BF2B
S3250800A1200000002008B5FFF7F7FF054B9B68C3F30223044AD35C03F01F03D84008BD00BFEC
S3250800A1400010024024F4000808B5FFF7E5FF054B9B68C3F3C223044AD35C03F01F03D84050
S3250800A16008BD00BF0010024024F400080F2303600B4B9A6802F0030242609A6802F0F0026F
S3250800A18082609A6802F4E062C2609B68DB0803F4E0630361034B1B6803F007030B607047FF
S3250800A1A00010024000200240024A136843F4002313607047001002407047000008B5064B7B
S3250800A1C0DB6913F4807F00D108BDFFF7F5FF024B4FF480721A62F7E700100240F8B5044682
S3250800A1E00D46584BDB6813F0030F17D0554BDB6803F003030268934201D0012616E0002AE9
S3250800A20000F09E804F4BDB68C3F3021301334268934201D0012609E000261BE00368022B2D
S3250800A22057D0032B5CD0012B02D001263046F8BD444A126812F0020F5ED04248C26822F030
S3250800A24073026168013943EA01131343C3600026002EEBD13B4A136823F080631360FDF751
S3250800A2603BFD0746374B1B6813F0006F05D0FDF733FDC31B022BF5D90326002ED6D1002DD7
S3250800A2803CD130490B6923F0784323F4FE43A068E268D20642EA002213430B61294A136868
S3250800A2A043F080631360FDF717FD0546254B1B6813F0006F05D1FDF70FFD401B0228F5D926
S3250800A2C00326002EB2D11F4A1369A1690B431361ACE71C4A126812F4806FAED10126A5E74B
S3250800A2E0184A126812F4003FA7D1164A126812F4802FA2D1012699E70126A9E7012D0FD04A
S3250800A3001048026922F0C06222F4FE42A16863695B08013B5B0643EA01231A430261BDE758
S3250800A3200848026922F4C00222F4FE42A16823695B08013B5B0543EA01231A430261ADE7ED
S3250800A340012673E7001002402DE9F04182B00446036813F4006F25D0C36BB3F5000F06D0C8
S3250800A360B3F5400F12D04BB1012637461CE0AE4AD36843F48033D360002708E000210430A6
S3250800A380FFF72CFF074610B106460DE00027A64AD2F8883023F44003E16B0B43C2F8883048
S3250800A3A0002601E000263746236813F4003F6BD09D4B9B6D13F0805F4CD19B4B9A6D42F0CB
S3250800A3C080529A659B6D03F080530193019B4FF00108964A136843F480731360FDF77CFCF4
S3250800A3E00546924B1B6813F4807F05D1FDF774FC401B0228F5D90327002F40D18A4BD3F807
S3250800A400903013F4407315D0226D9A4212D0864AD2F8903023F44073D2F8901041F480310E
S3250800A420C2F89010D2F8901021F48031C2F89010C2F8903013F0010F0FD1002F40F0C98015
S3250800A440794AD2F8903023F44073216D0B43C2F8903015E04FF00008BBE7FDF73DFC05462B
S3250800A460714BD3F8903013F0020FE6D1FDF734FC401B41F288339842F2D90327DDE73E4638
S3250800A480B8F1000F40F0A780236813F0010F08D0654AD2F8883023F00303216A0B43C2F84C
S3250800A4A08830236813F0020F08D05F4AD2F8883023F00C03616A0B43C2F88830236813F0F9
S3250800A4C0200F08D0584AD2F8883023F44063A16A0B43C2F88830236813F4007F08D0524A39
S3250800A4E0D2F8883023F44023616B0B43C2F88830236813F4806F08D04B4AD2F8883023F43F
S3250800A5004013A16B0B43C2F88830236813F0400F08D0454AD2F8883023F44053E16A0B4305
