S02300002E2E2F63656C6C626F6172642F6275696C642F63656C6C626F6172642E6269009A
S32508004000000001207DBB0008596C0008616C0008636C0008656C0008676C00080000000004
S32508004020000000000000000000000000696C00086B6C0008000000006D6C00086F6C0008F2
S32508004040CDBB0008CDBB0008CDBB0008CDBB0008CDBB0008CDBB0008CDBB0008CDBB0008D2
S32508004060CDBB0008CDBB0008CDBB0008CDBB0008CDBB0008CDBB0008CDBB0008CDBB0008B2
S32508004080CDBB0008CDBB0008CDBB0008796C0008896C0008996C0008A96C0008CDBB0008BE
S325080040A0CDBB0008B96C0008CDBB0008CDBB0008C96C00080000000000000000CDBB000848
S325080040C0D96C00080000000000000000CDBB000800000000E96C0008CDBB00080000000008
S325080040E0CDBB0008CDBB000800000000000000000000000000000000000000000000000092
S32508004100000000000000000000000000CDBB00080000000000000000CDBB0008CDBB0008E1
S32508004120CDBB0008CDBB0008CDBB0008CDBB0008CDBB0008000000000000000000000000A1
S32508004140CDBB0008CDBB0008CDBB0008CDBB0008CDBB0008CDBB0008CDBB0008CDBB0008D1
S32508004160CDBB0008CDBB0008CDBB000800000000CDBB0008CDBB0008000000000000000061
S32508004180CDBB0008CDBB0008CDBB00080000000001F0FF01102A2BDB10F0070F08D010F83A
S325080041A0013B013A8B422DD010F0070F42B3F6D1F0B441EA012141EA014122F007047FF0F4
S325080041C000070023F0E80256083C85EA010586EA010685FA47F5A3FA87F586FA47F6A5FA17
S325080041E087F68EB9EED1F0BC01F0FF0102F0070232B110F8013B013A83EA010313B1F8D136
S325080042000020704701387047002D06BF35460338073815F0010F07D1013015F4807F02BFFB
S32508004220013015F4C03F0130F0BC0138704700BF034613F8012B002AFBD1181A0138704713
S3250800424081F0004102E000BF83F0004330B54FEA41044FEA430594EA050F08BF90EA020F7F
S325080042601FBF54EA000C55EA020C7FEA645C7FEA655C00F0E2804FEA5454D4EB5555B8BF55
S325080042806D420CDD2C4480EA020281EA030382EA000083EA010180EA020281EA0303362D0C
S325080042A088BF30BD11F0004F4FEA01314FF4801C4CEA113102D0404261EB410113F0004F76
S325080042C04FEA03334CEA133302D0524263EB430394EA050F00F0A780A4F10104D5F1200EB4
S325080042E00DDB02FA0EFC22FA05F2801841F1000103FA0EF2801843FA05F359410EE0A5F1FC
S3250800430020050EF1200E012A03FA0EFC28BF4CF0020C43FA05F3C01851EBE37101F0004507
S3250800432007D54FF0000EDCF1000C7EEB00006EEB0101B1F5801F1BD3B1F5001F0CD3490881
S325080043405FEA30004FEA3C0C04F101044FEA445212F5800F80F09A80BCF1004F08BF5FEA60
S32508004360500C50F1000041EB045141EA050130BD5FEA4C0C404141EB0101013C28BFB1F5D9
S32508004380801FE9D291F0000F04BF01460020B1FA81F308BF2033A3F10B03B3F120020CDA74
S325080043A00C3208DD02F1140CC2F10C0201FA0CF021FA02F10CE002F11402D8BFC2F1200C88
S325080043C001FA02F120FA0CFCDCBF41EA0C019040E41AA2BF01EB0451294330BD6FEA0404C2
S325080043E01F3C1CDA0C340EDC04F11404C4F1200220FA04F001FA02F340EA030021FA04F313
S3250800440045EA030130BDC4F10C04C4F1200220FA02F001FA04F340EA0300294630BD21FA30
S3250800442004F0294630BD94F0000F83F4801306BF81F480110134013D4EE77FEA645C18BF0E
S325080044407FEA655C29D094EA050F08BF90EA020F05D054EA000C04BF1946104630BD91EA48
S32508004460030F1EBF0021002030BD5FEA545C05D14000494128BF41F0004130BD14F58004A5
S325080044803CBF01F5801130BD01F0004545F0FE4141F470014FF0000030BD7FEA645C1ABF21
S325080044A0194610467FEA655C1CBF0B46024650EA013406BF52EA033591EA030F41F4002110
S325080044C030BD00BF90F0000F04BF0021704730B54FF4806404F132044FF000054FF000013D
S325080044E050E700BF90F0000F04BF0021704730B54FF4806404F1320410F0004548BF404289
S325080045004FF000013EE700BF42004FEAE2014FEA31014FEA02701FBF12F07F4393F07F4F02
S3250800452081F06051704732F07F4208BF704793F07F4F04BF41F40021704730B54FF4607416
S3250800454001F0004521F000411CE700BF50EA010208BF704730B54FF000050AE050EA0102F8
S3250800456008BF704730B511F0004502D5404261EB41014FF4806404F132045FEA915C3FF4E2
S32508004580D8AE4FF003025FEADC0C18BF03325FEADC0C18BF033202EBDC02C2F1200300FA2E
S325080045A003FC20FA02F001FA03FE40EA0E0021FA02F11444BDE600BF70B54FF0FF0C4CF437
S325080045C0E06C1CEA11541DBF1CEA135594EA0C0F95EA0C0F00F0DEF82C4481EA030621EAE4
S325080045E04C5123EA4C5350EA013518BF52EA033541F4801143F4801338D0A0FB02CE4FF067
S325080046000005E1FB02E506F00042E0FB03E54FF00006E1FB03569CF0000F18BF4EF0010E90
S32508004620A4F1FF04B6F5007F64F5407404D25FEA4E0E6D4146EB060642EAC62141EA555153
S325080046404FEAC52040EA5E504FEACE2EB4F1FD0C88BFBCF5E06F1ED8BEF1004F08BF5FEA28
S32508004660500E50F1000041EB045170BD06F0004646EA010140EA020081EA0301B4EB5C04D7
S32508004680C2BFD4EB0C0541EA045170BD41F480114FF0000E013C00F3AB8014F1360FDEBFB9
S325080046A0002001F0004170BDC4F10004203C35DA0C341BDC04F11404C4F1200500FA05F339
S325080046C020FA04F001FA05F240EA020001F0004221F0004110EBD37021FA04F642EB060194
S325080046E05EEA430E08BF20EAD37070BDC4F10C04C4F1200500FA04F320FA05F001FA04F242
S3250800470040EA020001F0004110EBD37041F100015EEA430E08BF20EAD37070BDC4F1200508
S3250800472000FA05F24EEA020E20FA04F301FA05F243EA020321FA04F001F0004121FA04F2AB
S3250800474020EA020000EBD3705EEA430E08BF20EAD37070BD94F0000F0FD101F0004640004D
S3250800476041EB010111F4801F08BF013CF7D041EA060195F0000F18BF704703F000465200AF
S3250800478043EB030313F4801F08BF013DF7D043EA0603704794EA0C0F0CEA135518BF95EA2B
S325080047A00C0F0CD050EA410618BF52EA4306D1D181EA030101F000414FF0000070BD50EA2E
S325080047C0410606BF1046194652EA430619D094EA0C0F02D150EA013613D195EA0C0F05D16B
S325080047E052EA03361CBF104619460AD181EA030101F0004141F0FE4141F470014FF00000D5
S3250800480070BD41F0FE4141F4780170BD70B54FF0FF0C4CF4E06C1CEA11541DBF1CEA135562
S3250800482094EA0C0F95EA0C0F00F0A7F8A4EB050481EA030E52EA03354FEA013100F08880BD
S325080048404FEA03334FF0805545EA131343EA12634FEA022245EA111545EA10654FEA00261B
S325080048600EF000419D4208BF964244F1FD0404F5407402D25B084FEA3202B61A65EB0305BE
S325080048805B084FEA32024FF480104FF4002CB6EB020E75EB030E22BFB61A754640EA0C0034
S325080048A05B084FEA3202B6EB020E75EB030E22BFB61A754640EA5C005B084FEA3202B6EB95
S325080048C0020E75EB030E22BFB61A754640EA9C005B084FEA3202B6EB020E75EB030E22BF44
S325080048E0B61A754640EADC0055EA060E18D04FEA051545EA16754FEA06164FEAC30343EA50
S3250800490052734FEAC2025FEA1C1CC0D111F4801F0BD141EA00014FF000004FF0004CB6E7A2
S3250800492011F4801F04BF01430020B4F1FD0C88BFBCF5E06F3FF6AFAEB5EB030C04BFB6EB04
S32508004940020C5FEA500C50F1000041EB045170BD0EF0004E4EEA113114EB5C04C2BFD4EB42
S325080049600C0541EA045170BD41F480114FF0000E013C90E645EA060E8DE60CEA135594EA13
S325080049800C0F08BF95EA0C0F3FF43BAF94EA0C0F0AD150EA01347FF434AF95EA0C0F7FF42A
S325080049A025AF104619462CE795EA0C0F06D152EA03353FF4FDAE1046194622E750EA41064B
S325080049C018BF52EA43067FF4C5AE50EA41047FF40DAF52EA43057FF4EBAE12E74FF0FF3CD6
S325080049E006E000BF4FF0010C02E000BF4FF0010C4DF804CD4FEA410C7FEA6C5C4FEA430C76
S32508004A0018BF7FEA6C5C1BD001B050EA410C0CBF52EA430C91EA030F02BF90EA020F00200E
S32508004A20704710F1000F91EA030F58BF994208BF90422CBFD8176FEAE37040F0010070471B
S32508004A404FEA410C7FEA6C5C02D150EA013C07D14FEA430C7FEA6C5CD6D152EA033CD3D0F1
S32508004A605DF8040B704700BF8446104662468C461946634600E000BF01B5FFF7B7FF002883
S32508004A8048BF10F1000F01BD4DF808EDFFF7F4FF0CBF012000205DF808FB00BF4DF808EDB3
S32508004AA0FFF7EAFF34BF012000205DF808FB00BF4DF808EDFFF7E0FF94BF012000205DF8C6
S32508004AC008FB00BF4DF808EDFFF7CEFF94BF012000205DF808FB00BF4DF808EDFFF7C4FF6B
S32508004AE034BF012000205DF808FB00BF4FEA410C7FEA6C5C02D150EA013C0AD14FEA430CF9
S32508004B007FEA6C5C02D152EA033C02D14FF0000070474FF0010070474FEA410212F50012B3
S32508004B2015D211D56FF47873B3EB625212D94FEAC12343F0004343EA505311F0004F23FA3F
S32508004B4002F018BF404270474FF00000704750EA013005D111F0004008BF6FF000407047B0
S32508004B604FF00000704700BF4A0011D212F5001211D20DD56FF47873B3EB62520ED44FEAAC
S32508004B80C12343F0004343EA505323FA02F070474FF00000704750EA013002D14FF0FF3075
S32508004BA070474FF0000070474FEA4102B2F1E04324BFB3F5001CDCF1FE5C0DD901F0004C07
S32508004BC04FEAC0024CEA5070B2F1004F40EB830008BF20F00100704711F0804F21D113F1E1
S32508004BE03872BCBF01F00040704741F480114FEA5252C2F11802C2F1200C10FA0CF320FA28
S32508004C0002F018BF40F001004FEAC1234FEAD32303FA0CFC40EA0C0023FA02F34FEA430374
S32508004C20CCE77FEA625307D150EA01331EBF4FF0FE4040F44000704701F0004040F0FE402B
S32508004C4040F40000704700BF53B94AB9002908BF00281CBF4FF0FF314FF0FF3000F00CB809
S32508004C60ADF1080C6DE904CE09F0FAFCDDF804E0DDE9022304B07047704700BF10B5054CC2
S32508004C80237833B9044B13B10448AFF300800123237010BDD8010020000000001CE9000874
S32508004CA008B5034B1BB103490348AFF3008008BD00000000DC0100201CE90008884010406F
S32508004CC070478840104070470841104070470841104070471040884080B270471040084106
S32508004CE0C0B270471040084180B27047012A5AD9F8B505460E460027078007223946307853
S32508004D00FFF7DCFF04462870082203217078FFF7D5FF0443E4B22C7010220421B078FFF7E4
S32508004D20CDFF0443E4B22C7020220521F078FFF7C5FF0443E4B22C70402206213079FFF7F5
S32508004D40BDFF0443E4B22C70802207217079FFF7B5FF04432C7001223946B079FFF7AEFF62
S32508004D600446687002220121F079FFF7A7FF0443E4B26C7004220221307AFFF79FFF044331
S32508004D80E4B26C7008220321707AFFF797FF0443E4B26C7010220421B07AFFF78FFF0443CA
S32508004DA06C700220F8BD6FF0150070470B7803704B78C3F3000343704B78C3F34003837033
S32508004DC04B78C3F38003C3704B78C3F3C00303714B78C3F3001343714B78C3F340138371E6
S32508004DE04B78C3F38013C3714B78C3F3C01303728B78C3F300034372CB7883727047052A15
S32508004E0052D970B504460D4600210160818007222878FFF753FF06462070F8220321687809
S32508004E20FFF74CFF06432670072205216878FFF74BFF06466070F8220321A878FFF73EFF28
S32508004E400643667007220521A878FFF73DFF0646A070F8220321E878FFF730FF0643A67006
S32508004E6007220521E878FFF72FFF0646E070F82203212879FFF722FF0643E67007220521D1
S32508004E802879FFF721FF06462071F82203216879FFF714FF06432671072205216879FFF742
S32508004EA013FF6071062070BD6FF015007047000082B0F3EE047A30EE270A9FED067AC0EEE9
S32508004EC0077AFCEEE77ACDED017A9DF8040002B0704700BFC9C8C83E82B0F3EE047A30EEBC
S32508004EE0270A9FED067AC0EE077AFCEEE77ACDED017A9DF8040002B0704700BFC9C8C83E60
S32508004F0082B0F3EE047A30EE270A9FED067AC0EE077AFCEEE77ACDED017A9DF8040002B09D
S32508004F20704700BFC9C8C83E82B0F3EE047A30EE270A9FED067AC0EE077AFCEEE77ACDED36
S32508004F40017A9DF8040002B0704700BFC9C8C83E38B504460D460B7803704B784370D1F8B1
S32508004F60023000EE103AFFF7A3FFA070D5F8063000EE103AFFF7B0FFE070D5F80A3000EEEC
S32508004F80103AFFF7BDFF2071D5F80E3000EE103AFFF7CAFF607138BD072A56D970B50446DF
S32508004FA00D4600210160416007222878FFF786FE06462070F82203216878FFF77FFE064374
S32508004FC02670072205216878FFF77EFE06466070F82203216888FFF774FE06436670FF229A
S32508004FE005216888FFF773FEA07007220D216888FFF76DFE0646E070F8220321A888FFF76E
S3250800500060FE0643E670FF220521A888FFF75FFE207107220D21A888FFF759FE0646607139
S32508005020F8220321E888FFF74CFE06436671FF220521E888FFF74BFEA07107220D21E88886
S32508005040FFF745FEE071082070BD6FF0150070479FED047AC0EE077AFCEEE77A17EE903AE5
S3250800506098B27047A000A0389FED047AC0EE077AFCEEE77A17EE903A98B27047A000A038DD
S325080050809FED047AC0EE077AFCEEE77A17EE903A98B27047A000A03838B504460D460B7829
S325080050A003704B784370D1F8023000EE103AFFF7CFFF6080D5F8063000EE103AFFF7D4FF1E
S325080050C0A080D5F80A3000EE103AFFF7D9FFE08038BD042A26D970B504460D46FF2200210F
S325080050E02878FFF7FFFD06462080FF2208216878FFF7F0FD06432680FF220021A878FFF7D0
S32508005100F1FD06466080FF220821E878FFF7E2FD06436680012200212879FFF7DFFD207171
S32508005120002070BD6FF01500704790F88E2090F98E30002B00DB704710B50446017B02F032
S325080051403F03994208D30023037312F0400F03D102F07F0280F88E2002F074F9A368C01AAE
S32508005160237B043304EB4303DB88984200D210BDA188206802F03EFF02F064F9A060237B6E
S3250800518001332373F3E72DE9F84307460E4691469846202006F01CFD0546002404608761AC
S325080051A04660C0F81090C0F81480304606F010FDE860304606F00CFDA860380106F008FD25
S325080051C0E861234605E0E9680022CA54A968CA5401336A689A42F6D82846BDE8F88310B567
S325080051E0C3694FEA011E03EB01111468D2F804C09068D26843F80E40C1F804C08860CA60C9
S3250800520010BD38B504460D46C369026803EB0213DB6803B198472560E36903EB05135B6820
S325080052200BB12046984763690BB12046984738BD00687047C3685A5C83685B5C9A4200D04F
S32508005240704783685B5C83F00103C2685354F7E738B50446002500E001356368AB4217D9A7
S32508005260E3685A5DA3685B5D9A42F5D0E26923681B01D358002BEFD0E268A368525D5A5500
S32508005280E26923681B01D358E9B220469847E3E7E369226803EB02139B680BB1204698475C
S325080052A023690BB12046984738BD000010B586B00446694601A804F00FFB2268064B9A420C
S325080052C006D8049C04F0E4FA04B1400006B010BD059C04F0EFFAF7E7FFFF00408446002371
S325080052E018468B4211D200B503E001339BB28B4209D23CF813203CF810E07245F5D2002A9E
S32508005300F3D01846F1E75DF804FB704760B110B50C4659B122B1002323600120206010BD62
S325080053201221FFF7DBFFF6E7002070470020F6E708B540F2026000F0CFFA08BD08B50421FA
S32508005340014805F0F9FE08BDD004002070B5094D00242C83084E2146304605F0EDFE0421CB
S32508005360304605F0E9FEAC6022462146034801F07DFB70BDF4010020D00400208403002061
S3250800538008B529B1012902D10121FFF73AFF08BD014B00229A60FAE7F401002008B511B178
S325080053A0032904D008BD0021FFF72BFFFAE70121FFF727FFF6E7000010B5044601F0FAFFE4
S325080053C008494B8B0A8B0831FFF7A0FF20B900212046FFF716FF10BD02212046FFF711FF6E
S325080053E0F9E700BFF401002070B51D4E012333717269B1681B4801F039FB1B4C2368002500
S325080054005D622046FFF752FF23689A6A0132B0FBF2F207EE902AF8EE677ADFED146A67EEAC
S32508005420A67A87EEA67ABCEEC77A83ED0D7A6FF001021A61204605F0E1FA2946204605F0EA
S32508005440A9FD0B4C2946204605F076FE2268536A71690B4453632946204605F09BFD70BD4E
S32508005460F4010020840300208404002000007A44D004002038B50021144B9960144C2046DC
S3250800548005F05AFE23685D6A2046FFF70FFF23689A6A0132B0FBF2F207EE902AF8EE677A2E
S325080054A09FED0C7A67EE877ADFED0B6A87EEA67ABCEEC77A17EE102A15449D636FF00402B8
S325080054C01A610421204605F065FD38BDF4010020D004002000409C4500007A4410B5044675
S325080054E011B1022904D010BD0021FFF78AFEFAE70C4B1B7B93B901F05DFF0A494B8B0A8B4C
S325080055000831FFF703FF20B103212046FFF779FEE9E700212046FFF774FEE4E70221FFF7E1
S3250800552089FEE0E7F401002038B5084B00241C719C60074D284605F097FA2146284605F0FB
S32508005540FBFD2146034805F0F7FD38BDF401002084040020D0040020B0F5FA7F28BF4FF4BC
S32508005560FA70014B58837047F401002070B52DED028B84B0364D0024AC602C7301266E6178
S32508005580344B224604210846FFF7FDFD28602C712C612C834FF4FA736B832F4B00932F4B2D
S325080055A00193029403946A462146FFF718FE00942B4B019303946A4631462868FFF70FFE0A
S325080055C0284B0093284B01930294284B03936A4602212868FFF703FE254B0093254B0193B0
S325080055E0254B03936A4603212868FFF7F8FD234C2046FFF75BFE2268936A3344B0FBF3F395
S3250800560007EE903AF8EE677ADFED1D8A67EEA87A9FED1C8A87EE887ABCEEC77A82ED0B7A84
S325080056202046FFF743FE23689B6A3344B0FBF3F307EE903AF8EE677A67EEA87A87EE887AB3
S32508005640BCEEC77A84ED037A04B0BDEC028B70BDF401002031530008815300084D53000827
S32508005660B9530008DD540008E9530008295500089D530008755400083D53000884040020FC
S325080056800060EA4600007A4408B50368104A1268934204D00F4A1268934207D008BD0E4B6C
S325080056A0002199601868FFF7C5FDF7E7037F012B07D0022BF2D10321074B1868FFF7BAFD94
S325080056C0ECE70221044B1868FFF7B4FDE6E700BF84040020D0040020F4010020037F012B65
S325080056E000D0704770B5044603685D6B224B1B7903B300221146214801F0B8F92046FFF7DC
S32508005700D5FD2268936A0133B0FBF3F307EE903AF8EE677ADFED1A6A67EEA67A87EEA67A7D
S32508005720FCEEC77A17EE903A2B445363124B00221A7170BD104E7269B168104801F096F9DB
S325080057402046FFF7B3FD2268936A0133B0FBF3F307EE903AF8EE677ADFED096A67EEA67AA9
S3250800576087EEA67AFCEEC77A17EE903A2B44536301233371DDE700BFF40100208403002060
S3250800578000007A4408B50E480E4B03600523436000238360C3604FF4402202614FF480129D
S325080057A042610376012242768376C2760377437701F062FE00B908BD00F09EFBFBE700BF86
S325080057C0100200200064004000B589B00023039304930593069307930268244B9A4202D055
S325080057E009B05DF804FB03F5D6339A6D42F000729A659A6D02F000720192019ADA6C42F0D2
S325080058000102DA64DB6C03F001030293029B4FF4C05303930223049303230693092307939C
S3250800582003A94FF0904002F001FB00221146132002F080FA132002F08DFA00221146142040
S3250800584002F078FA142002F085FA00221146152002F070FA152002F07DFA002211461620DA
S3250800586002F068FA162002F075FAB9E70064004070B504460E4601F0E5FD0546204601F0B3
S32508005880F6FF30B901F0DEFD431BB342F6D9032000E0002070BD000070B504460E461546C0
S325080058A00321FFF7E5FF90B9002332462946204601F039FF28B9074A138823F00103138083
S325080058C006E0044A138843F00103138000E0032070BD00BF3C02002010B590B000230B930E
S325080058E00C930D9340F20263984208D040F20153984231D0B0F5007F69D010B010BD0023A4
S325080059008DF80730554B1868FFF792FC30B1431E022B06D801238DF8073002E000238DF862
S3250800592007304F4B1B78072B14D08DF8043001A903A8FFF73BFA40F202630A93022203A9A2
S3250800594008A8FFF7D3F90E900AAA08A94548FFF7A3FFD2E70523E8E70A9300242FE08DF89A
S325080059600C308DF80D40404B03EB84021268CDF80E20621C03EB82021268CDF81220A21C80
S3250800598003EB82021268CDF81620E21C03EB82031B68CDF81A3003A901A8FFF7D9FA0622C9
S325080059A001A908A8FFF72BFA0E900AAA08A92D48FFF772FF012001F04BFD0434E4B2232C0E
S325080059C09BD8274B1B78072BC9D10523C7E74FF400730A93002438E08DF80C308DF80D407D
S325080059E0224B33F8142007EE902AF8EE677A17EE902ACDF80E20621C33F8122007EE902A1B
S32508005A00F8EE677A17EE902ACDF81220A21C33F8123007EE903AF8EE677A17EE903ACDF8B6
S32508005A20163003A901A8FFF737FB082201A908A8FFF7B2FA0E900AAA08A90A48FFF72CFFF9
S32508005A40012001F005FD0334E4B2112C3FF655AF034B1B78072BBFD10523BDE7F40100205D
S32508005A601C03002010020020F40300203406002000B58DB000210A910B910AAB03AA01F099
S32508005A800FFF68B91D4A138823F001031380039B40F20322934209D033B30DB05DF804FB83
S32508005AA0164A138843F001031380F6E705220AA901A8FFF70EFBBDF80400FFF74DFDBDF806
S32508005AC006200F4B1A839DF808303BB1012BE4D101210B4B1868FFF7ADFBDEE70021084B32
S32508005AE01868FFF7A7FBD8E7054B1868FFF7A0FB0028D2D102F032F9CFE700BF3C020020A5
S32508005B00F4010020F0B58BB0002406946023019300934FF4787602960396049405940794EC
S32508005B20012708970D4D6946284601F04BFD0694019400940296039604940597079408977E
S32508005B406946284601F03EFD48F60301284601F04CFF284601F0B9FD0BB0F0BD1002002053
S32508005B60022908D004290AD0012900D07047064B00221A707047044B00225A707047024B69
S32508005B8000229A70F2E700BF3802002008B5436A13F4C05F03D01D4A137801331370436A20
S32508005BA013F4C04F03D0194A537801335370436A13F4C03F03D0154A937801339370134B44
S32508005BC01B78042B1DD9114B00221A7001210F4B5B78042B04D941F002010C4B00225A7025
S32508005BE00A4B9B78042B04D941F00401074B00225A70436A13F0C00F05D109B101F011FEA0
S32508005C0008BD0021E3E70721F8E700BF3802002008B50121FFF7A4FF08BD08B50221FFF793
S32508005C209FFF08BD08B50421FFF79AFF08BD0000F0B589B0002403940494059406940794BE
S32508005C402D4BDA6C42F00402DA64DA6C02F004020092009ADA6C42F00102DA64DA6C02F0A7
S32508005C6001020192019ADA6C42F00202DA64DB6C03F002030293029B204F22464FF440411F
S32508005C80384602F0B2F91E4E22460321304602F0ACF922464FF400414FF0904002F0A5F94B
S32508005CA04FF440430393012504950594069403A9384602F0BBF84FF48773039304940594B5
S32508005CC003A94FF0904002F0B1F80323039304950594069403A9304602F0A8F84FF400439E
S32508005CE0039304950594069403A94FF0904002F09DF809B0F0BD00BF00100240000800482B
S32508005D000004004808B51248124B0360124B4360002383600122C260036143618361C361F7
S32508005D20036202F065FB50B90021094803F06FF840B90021064803F098F830B908BD00F040
S32508005D40DBF8F1E700F0D8F8F3E700F0D5F8F5E74002002000540040EC9C901010B59CB028
S32508005D60044600211791189119911A911B91542202A806F062FD22681B4B9A4201D01CB07A
S32508005D8010BD4023029302A803F094FE48BB174CE36C43F00203E364E36C03F002030093F3
S32508005DA0009BC0231793122318930123199303231A9304231B9317A90D4802F037F8A36D0F
S32508005DC043F40013A365A36D03F400130193019B00221146202001F0ADFF202001F0BAFFD9
S32508005DE0CDE700F089F8D2E70054004000100240000400482DE9F04186B006460F4615460C
S32508005E00DFF8C480002488F80C40C8F80000A8F8041001F017FBC8F8080001223946304612
S32508005E2002F0E3F8009401940294039404940594214611E0631CDBB206AA02EB4402962003
S32508005E4022F8180C0234E4B206AA02EB4303FA2223F8182C0131C9B2194B1E788E42E9D894
S32508005E60631E06AA02EB43034FF47A7223F8182C144F62006946384606F069FD97F8803095
S32508005E8023F03F0304F03F04234387F8803003F07F038EB16FF07F021343DBB20A4A82F88E
S32508005EA08E3003F0BF034DB140221343064A82F88E3006B0BDE8F0810022EDE70022F4E764
S32508005EC01C0300209A0200208C02002008B50368064A1268934204D0054A1268934200D002
S32508005EE008BD044B1968FFF7CFFBF9E784040020D0040020F401002072B6FEE700B597B0A5
S32508005F004422002105A806F098FC0023009301930293039304934FF4007002F0DBFF30BB3F
S32508005F20012205924FF4A023069302230F9303211091119228221292072213921493042341
S32508005F40159305A803F0B0F898B90F2300930323019300230293039304930421684603F0C8
S32508005F60E3FB40B903F0D6FC17B05DF804FBFFF7C3FFFFF7C1FFFFF7BFFF000008B501F08C
S32508005F8045FAFFF7BBFFFFF753FEFFF7FBFBFFF7B9FE00F08DFD00F0B1FD01F041F900F0F1
S32508005FA0ADFF01F08DF801F011F802214FF0904002F014F844B204214FF0904002F00EF865
S32508005FC044EA400464B208214FF0904002F006F844EA8003DBB2144A1370072B1FD000F0D3
S32508005FE0ADFEDFED120AB7EE000A00F0DBFEFFF7BDFAFFF787FD0E4800F020F801224FF49D
S3250800600000414FF09040FFF7F5FE0A48FFF78DF800F080F8084B1868FFF71AF9F5E71346F3
S3250800602005221A70DBE700BF1C030020000070421C0500208C020020F401002010B52DED4C
S32508006040028B0446FFF732F92268936A0133B0FBF3F307EE903AF8EE677AB0EE087A67EEF3
S32508006060877A9FED298A87EE887ABCEEC77A82ED0D7A2046FFF71AF92268936A0133B0FBA5
S32508006080F3F307EE903AF8EE677AB2EE007A67EE877A87EE887ABCEEC77A82ED0E7A204657
S325080060A0FFF704F92268936A0133B0FBF3F307EE903AF8EE677A9FED157A67EE877A87EE27
S325080060C0887ABCEEC77A82ED0F7A23686FF002021A6123686FF004021A6123686FF0080205
S325080060E01A610021204604F055FF0421204604F051FF0821204604F04DFF054B00221A70AE
S32508006100BDEC028B10BD00BF00007A44000048431E03002008B5254B1B7813F0010F09D079
S32508006120234B1878B8B101F0F5F8204A137823F0010313701D4B1B7813F0020F24D01C4B13
S32508006140187858B101F0F2F8194B1B78042B0BD101F0FCF808E001F0CBF8E6E701F0D0F8B4
S325080061604FF40070FFF7B8FB11490A780132114B83FB02035B1003EB8303D31A0B700B4A2B
S32508006180137823F002031370084B1B7813F0040F00D108BD00F080FE40F20150FFF79CFBBB
S325080061A0024A137823F004031370F2E71E0300201D0300206766666638B52DED028B04468C
S325080061C003685D6A037F022B0CD0042B41D0012B02D0BDEC028B38BD2D4A137843F0010352
S325080061E01370F6E7FFF762F82268936A0133B0FBF3F307EE903AF8EE677AB0EE087A67EE9A
S32508006200877A9FED248A87EE887AFCEEC77A17EE903A2B4453632046FFF748F82268936A7C
S325080062200133B0FBF3F307EE903AF8EE677AB2EE007A67EE877A87EE887AFCEEC77A17EEEE
S32508006240903A2B449363124A137843F002031370BFE7FFF72BF82268936A0133B0FBF3F354
S3250800626007EE903AF8EE677A9FED0B7A67EE877ADFED086A87EEA67AFCEEC77A17EE903A56
S325080062802B44D363024A137843F004031370A0E71E03002000007A440000484310B5044697
S325080062A010F0010F03D114F0020F07D110BD01224FF40041054801F098FEF4E701224FF476
S325080062C08041024801F091FEF0E700BF000800482DE9F04786B005460C4690463C2940F2B2
S325080062E087800120FFF7DAFF80238DF814304FF00A09CDF808900126019605AF00973346FC
S3250800630000222146284602F0D1F8CDF808900196009733460C222146284602F09BF99DF89B
S325080063201470002F68D140238DF81430CA46CDF8089001960DF11409CDF800903346082220
S325080063402146284602F0B2F800238DF81430CDF808A00196CDF80090334603222146284606
S3250800636002F0A4F838FA06F314BF334600238DF81430CDF808A00196CDF800903346072223
S325080063802146284602F092F88DF81460CDF808A00196CDF8009033460B222146284602F0DF
S325080063A085F8B8F1000F25D003238DF814304FF00A09CDF808904FF00108CDF8048005AEC3
S325080063C00096434600222146284602F06FF8CDF80890CDF80480009643463E222146284646
S325080063E002F038F99DF81430434506D0FF2704E0022077E70223D8E70227384606B0BDE8C5
S32508006400F08730B587B014461D460023ADF814300A2302930223019305AB009301232032DE
S3250800642002F018F9B0B9072C09D09DF814209DF815301B0903EB02132B8007B030BD9DF927
S3250800644014309BB25B009BB29DF8152003EBD2132B80F2E7FF20F0E72DE970432DED048B6C
S3250800646082B014461E460025ADF806500DF10603FFF7C7FF0546002851D1072C55D0BDF899
S325080064800600FEF72FF8FEF78FFB07EE900A67EEA78A27EEA88A28EEA89AFEF735F82AA3AA
S325080064A0D3E90023FEF788F829A3D3E90023FDF7CDFE8046894618EE900AFEF725F826A300
S325080064C0D3E90023FEF778F802460B4640464946FDF7BCFE8046894618EE100AFEF714F858
S325080064E01FA3D3E90023FEF767F802460B4640464946FDF7ABFE8046894619EE100AFEF7A3
S3250800650003F819A3D3E90023FEF756F802460B4640464946FDF79AFEFEF746FB3060284626
S3250800652002B0BDEC048BBDE87083BDF9063007EE903AF8EEE77AB6EE007A67EE877AC6EDB2
S32508006540007AECE7AFF3008078F866091DD1B5BF8D6D946A48C15F4014D96C91716F003FD4
S325080065604D6BA2295AD539BE4DF93B553332553D10B586B08DF8143052000A23029301239B
S32508006580019305AC00942A3201F090FF06B010BD10B586B08DF8143052000A2302930123B9
S325080065A0019305AC00942B3201F080FF06B010BD38B52DED048B20EE008A20EE089A68EE70
S325080065C0088A10EE100AFDF79FFF21A3D3E90023FDF7F2FF20A3D3E90023FDF737FE0446D4
S325080065E00D4618EE100AFDF78FFF1DA3D3E90023FDF7E2FF02460B4620462946FDF726FE9E
S3250800660004460D4619EE100AFDF77EFF16A3D3E90023FDF7D1FF02460B4620462946FDF77F
S3250800662015FE04460D4618EE900AFDF76DFF10A3D3E90023FDF7C0FF02460B4620462946E9
S32508006640FDF704FEFEF790FAC0B2BDEC048B38BD26CD1A14EEC8FABF3C287C76E26D6B4038
S3250800666071573D0215A7A3BF02379B32E41C423F561B5D2AC72BC0BE70B52DED028B82B0FA
S3250800668005460E46B0EE408AF0EE608A072A18D01446B0EE600AFFF78BFF034622463146FA
S325080066A02846FFF765FFB0EE480AFFF781FF0346224631462846FFF76BFF02B0BDEC028BC0
S325080066C070BDFDEEC07ACDED017A9DF804300722FFF74EFFFDEEE87ACDED017A9DF80430A5
S325080066E0072231462846FFF753FFE6E708B500220121024801F079FC08BD00BF00040048E8
S3250800670008B501221146024801F06FFC08BD00BF0004004810B582B00446FF238DF807309F
S32508006720FFF7E4FF01231A460DF10701204603F0F2FC2046FFF7E4FF02B010BD4FF0000C98
S325080067401022604514DD10B411F80C3083EAD213DBB2094C34F8133083EA022292B20CF1E5
S32508006760010C6045F0DC500080B25DF8044B7047500080B2704700BF38E9000810B582B098
S32508006780044607238DF8043011238DF8053001A90220FFF7D3FFC0F307238DF806308DF81F
S325080067A007002046FFF7A2FF642304220DEB0201204603F0B0FC2046FFF7A2FF02B010BD9E
S325080067C010B582B0044603238DF8043060238DF8053001A90220FFF7B1FFC0F307238DF87A
S325080067E006308DF807002046FFF794FF2046FFF7C5FF2046FFF77AFF642304220DEB02013D
S32508006800204603F088FC2046FFF77AFF02B010BD10B582B0044603238DF8043041F02801BF
S325080068208DF8051001A90220FFF788FFC0F307238DF806308DF807002046FFF76BFF204617
S32508006840FFF754FF642304220DEB0201204603F062FC2046FFF754FF02B010BD70B582B0FD
S3250800686004460E4607238DF8043014238DF8053001A90220FFF762FFC0F307238DF80630DD
S325080068808DF807002046FFF745FF2046FFF72EFF642304220DEB0201204603F03CFC00F00C
S325080068A0D1FD0546002301930A2304220DEB0201204603F0A0FE019B23B900F0C3FD431B2F
S325080068C0B342F1D32046FFF71BFF019B13B1002002B070BD0320FBE730B583B0044615465A
S325080068E00023019309BB01238DF8053001A90220FFF724FFC0F307238DF806308DF8070028
S325080069002046FFF7F3FE642304220DEB0201204603F001FC642308222946204603F0FBFBAF
S325080069202046FFF7EDFE03B030BD0129DED124238DF80530DAE700002DE9F04184B0054601
S325080069400F4600238DF80C300A21FFF787FF032802D0002426462CE0354A138843F002035E
S325080069601380002061E0324A138843F00203138000205AE02E4A138823F00203138003E038
S3250800698008F101085FFA88F8B8F1020F0FD804EB440343449BB201AA32F818204FF6FF71A1
S325080069A08A42EDD027F813200136F6B2E8E70134E4B2052C38D81F4B1B5D8DF80D3003A9E4
S325080069C00220FFF7BBFEC0F307238DF80E308DF80F002846FFF79EFE2846FFF787FE0A238E
S325080069E0042203A9284603F096FB80460028BAD16423082201A9284603F0FDFD2846FFF732
S32508006A007FFE01A90620FFF799FE9DF80A209DF80B3003EB02239BB29842ABD0044A138861
S32508006A2043F002031380C2E7304604B0BDE8F0813C02002038EB000838B50D46144600234E
S32508006A4001E00133DBB2112BFBD929460620FFF775FEC0F30723AB71E87121460620FFF7A3
S32508006A606DFEC0F30723A371E07138BD30B585B00446084600250295039500950195022310
S32508006A808DF8083012018DF80D206A4602A9FFF7D3FF2046FFF73EFE02AA29462046FFF734
S32508006AA01BFF6A4601212046FFF716FF05B030BD08B51048104B03604FF4827343600023F8
S32508006AC083604FF4E062C260036143614FF4007282613022C2610362436283620722C262CD
S32508006AE003630823436303F0A7FA00B908BDFFF703FAFBE7840300200030014008B510483D
S32508006B00104B03604FF482734360002383604FF4E062C260036143614FF4802282613022FF
S32508006B20C2610362436283620722C26203630823436303F081FA00B908BDFFF7DDF9FBE717
S32508006B4020030020003C004070B58AB000230593069307930893099303682F4A934204D057
S32508006B602E4A934222D00AB070BD2D4B1A6E42F480521A661A6E02F480520092009ADA6C97
S32508006B8042F00102DA64DB6C03F001030193019BE023059302230693032308930523099328
S32508006BA005A94FF0904001F041F9DCE71C4B9A6D42F400429A659A6D02F400420292029AC8
S32508006BC0DA6C42F00102DA64DA6C02F001020392039ADA6C42F00202DA64DB6C03F0020388
S32508006BE00493049B1023059302260696032508950624099405A94FF0904001F017F938231D
S32508006C0005930696002307930895099405A9054801F00CF9A7E700BF00300140003C004010
S32508006C20001002400004004882B00A4B1A6E42F001021A661A6E02F001020092009A9A6D34
S32508006C4042F080529A659B6D03F080530193019B02B070470010024008B502F065FEFEE773
S32508006C60FEE7FEE7FEE7FEE770477047704708B500F0DCFB08BD000008B5024800F0CFFE40
S32508006C8008BD00BF1002002008B5024800F0C7FE08BD00BF1002002008B5024800F0BFFE0A
S32508006CA008BD00BF1002002008B5024800F0B7FE08BD00BF1002002008B5024803F0F1FEC5
S32508006CC008BD00BF8404002008B5024803F0E9FE08BD00BF1C05002008B5024802F055F88E
S32508006CE008BD00BF4002002008B5024804F06EFB08BD00BF680500200E4AD2F8883043F41A
S32508006D007003C2F888300C4B1A6842F001021A60002199601A6822F0A85222F410221A608E
S32508006D204FF48052DA601A6822F480221A609961704700BF00ED00E000100240F8B50024E2
S32508006D4021E002370123BB40DB431BB2124A11880B40138027460322104B195D1048FFF75D
S32508006D60B7FA70B16DB100F06DFB801B6328E8D902370123BB40084A11880B43138000258D
S32508006D80E8E70134E4B2052C04D800F05BFB06460125DFE7F8BD00BF3C02002088EB000873
S32508006DA04002002038B52DED028BF0EE408AB0EE608A00250FE0F0EE680AB0EE480A2246E3
S32508006DC0084B595D0848FFF757FC0134E4B2052CF1D90135EDB2052D01D80024F7E7BDECB2
S32508006DE0028B38BD88EB00084002002070B50646002529E0B21C01239340DB431BB2204A6D
S32508006E0011880B4013801F4B03EB8403D3ED007A1D4B93ED007AF4EEC77AF1EE10FA01DD88
S32508006E20B0EE677A184B83ED007A184B93ED007AF4EEC77AF1EE10FA01D5B0EE677A134B5C
S32508006E4083ED007A0135EDB2052D18D806EB46046400E4B22C44E4B20A4B03EB84032A46CE
S32508006E600B49895D0B48FFF7F7FA0028C2D0B21C01239340024A11880B431380E2E770BD55
S32508006E803C020020F4030020EC030020E803002088EB000840020020D0B5002404E0204685
S32508006EA0FFF7A4FF0134E4B2052CF8D90024002600270FE00E4B03EB84031868FDF724FB9D
S32508006EC002460B4630463946FDF7C0F906460F460134A4B2232CEDD90022064B30463946C0
S32508006EE0FDF794FCFDF760FE034B1860D0BD00BFF403002000004240F003002000B58FB0FC
S32508006F0000230A930B930C930D9307930893099300930193029303930493059306932A4869
S32508006F204FF08042026041F63F72426083604FF0FF32C2604FF400720261836103F0B6FE3E
S32508006F4060BB4FF480530A930AA91F4803F092FF38BB1D4803F0DAFE30BB00230793099350
S32508006F6007A9194804F06CF908BB002200920192029204926946144803F032FFD0B9042287
S32508006F806946114803F02CFFB8B9082269460E4803F026FFA0B90FB05DF804FBFEF7ACFFF9
S32508006FA0CFE7FEF7A9FFD4E7FEF7A6FFD5E7FEF7A3FFDAE7FEF7A0FFE1E7FEF79DFFE4E74F
S32508006FC0FEF79AFFE7E700BF1C05002010B59AB0002416941794189419941394149415946E
S32508006FE00C940D940E940F941094119412942C22214601A805F021FC2F48304B03604460A5
S3250800700084604FF6FF73C36004614461846103F04DFE00283AD14FF48053169316A9264858
S3250800702003F028FF002834D1234803F06FFE002832D100231393159313A91F4804F000F984
S3250800704000282CD100220C920D920E920F921092119212920CA9184803F0C2FE10BB0422BB
S325080070600CA9154803F0BCFEF8B90023019302930393049305934FF4005206920B9301A90C
S325080070800D4804F015F998B91AB010BDFEF734FFC1E7FEF731FFC7E7FEF72EFFC9E7FEF739
S325080070A02BFFCFE7FEF728FFD9E7FEF725FFDCE7FEF722FFE8E700BFD00400200040014011
S325080070C010B592B000240B940C940D940E940F94109411942C222146684605F0AEFB1F48A1
S325080070E01F4B03604FF6FF13436084604FF6FF73C36004614461846103F0D8FD08BB174824
S3250800710003F004FE00BB00220B920C920D920E920F92109211920BA9104803F061FEB0B968
S325080071200023009301930293039304934FF4005205920A936946094804F0BAF850B912B0FB
S3250800714010BDFEF7D9FEDAE7FEF7D6FEDBE7FEF7D3FEE5E7FEF7D0FEF1E700BF84040020A8
S325080071600044014000B585B00368B3F1804F08D01D4A934219D01D4A934221D005B05DF880
S3250800718004FB03F504339A6D42F001029A659B6D03F001030193019B002211461C2000F0A4
S325080071A0C9FD1C2000F0D6FDE8E7114B1A6E42F480321A661B6E03F480330293029BDDE7B8
S325080071C00B4B1A6E42F400321A661B6E03F400330393039B00221146192000F0ABFD192071
S325080071E000F0B8FDCAE700BF00400140004401400010024008B50368074A1268934204D078
S32508007200064A1268934203D008BDFEF7D5FFFBE7FEF764FAF8E700BF1C05002084040020A4
S3250800722008B50B480B4B03604FF4E133436000238360C36003610C2242618361C3610362B2
S32508007240436204F068FC00B908BDFEF755FEFBE7680500200038014010B59CB004460021F9
S325080072601791189119911A911B91542202A805F0E4FA22681C4B9A4201D01CB010BD012360
S32508007280029302A802F016FC58BB184B1A6E42F480421A661A6E02F480420092009ADA6C75
S325080072A042F00102DA64DB6C03F001030193019B4FF4C06317930223189300241994032308
S325080072C01A9307231B9317A94FF0904000F0AEFD22462146252000F02DFD252000F03AFD17
S325080072E0CBE7FEF709FED0E7003801400010024008B50248FFF764FA08BD00BF84030020CA
S3250800730008B502490248FFF717FB08BD340600208403002008B5022804D900210248FFF71A
S3250800732077FA08BD4021F9E78403002008B5022804D903490348FFF7FFFA08BD0249F9E7E7
S32508007340EC0500208403002010060020012301E00133DBB2112B0FD8134A32F81320134932
S3250800736031F81310521A12F57A6FF1DA104A138843F48073138070470B4B1B8843B10B4BE0
S325080073805B8C5BB10A4A138823F4807313807047074A138843F4807313807047044A138860
S325080073A043F480731380704710060020EC0500203C0200200048704734060020104B1B785F
S325080073C00BB90120704710B504464FF47A70B0FBF3F30C4A1068B0FBF3F000F0C3FC68B90A
S325080073E00F2C01D901200AE0002221464FF0FF3000F0A0FC044B1C60002000E0012010BD23
S3250800740004000020000000200800002010B5032000F07EFC0020FFF7D1FF10B1012420466E
S3250800742010BD0446FFF700FCF9E70000034B1B78034A11680B441360704700BF0400002052
S3250800744058060020014B1868704700BF5806002038B50446FFF7F6FF0546B4F1FF3F02D0BE
S32508007460044B1B781C44FFF7EDFF401BA042FAD338BD00BF04000020002800F0A18038B5D2
S32508007480044690F82030D3B12268136843F001031360FFF7D7FF054623685A6812F0010F13
S325080074A010D1FFF7CFFF401B0A28F5D9636A43F400336362052384F82030012038BDFEF7C3
S325080074C083F9E1E71A6822F002021A60FFF7BAFF054623685A6812F0020F0DD0FFF7B2FF6A
S325080074E0401B0A28F5D9636A43F400336362052384F820300120E1E7227E012A3DD01A68F0
S3250800750022F080021A60637E012B3BD02268136823F040031360A37E012B39D0226813680E
S3250800752023F020031360E37E012B37D02268136843F010031360237F012B35D0226813686A
S3250800754023F008031360637F012B33D02268136823F004031360A368E2681343226913435D
S32508007560626913436268013A21681343CB6100206062012384F82030A0E71A6842F080023D
S325080075801A60C0E72268136843F040031360C2E72268136843F020031360C4E722681368A7
S325080075A023F010031360C6E72268136843F008031360C8E72268136843F004031360CAE7AF
S325080075C001207047026890F82030013BDBB2012B05D9436A43F4802343620120704730B4C8
S325080075E0D2F8003243F00103C2F800324B6903F01F03012000FA03F3D2F81C026FEA030C34
S3250800760020EA0300C2F81C02C869B0B9D2F80C020CEA0000C2F80C028C884869CD6844EA1F
S325080076200544483042F830400C8848698D6844EA0544483002EBC0004460C86901281BD012
S32508007640886980BBD2F804020CEA0000C2F80402086970BBD2F814020CEA0000C2F8140228
S32508007660096A01292BD0D2F8003223F00103C2F80032002030BC7047D2F80C021843C2F8B5
S325080076800C028C8848690D6844EA0544483042F830408C8948698D6844EA0544483002EB64
S325080076A0C0004460CCE7D2F804021843C2F80402CEE7D2F814021843C2F81402D0E7D2F879
S325080076C01C120B43C2F81C32CDE770B5044690F82050EDB2012D06D0436A43F400234362AE
S325080076E00125284670BD022380F820300268136823F001031360FFF7A5FE064623685B682C
S3250800770013F0010F0CD0FFF79DFE831B0A2BF5D9636A43F400336362052384F82030E0E783
S3250800772000256562DDE730B590F820C00468A4680CF1FF3C5FFA8CFCBCF1010F6BD814F0A9
S32508007740E05F62D0C4F3016CBCF1020F05D9436A43F400034362012062E0012404FA0CF4D8
S325080077601C608B68002B3DD10D68CB68046843EA45550CF118031B01E55003680C690CF132
S32508007780180E03EB0E135C600B7D012B35D0D17993791B0443EA0163517943EA0123147983
S325080077A00168234301EB0C11C1F88C31D17893781B0443EA0163517843EA0123117802685C
S325080077C00B4302EB0C12C2F8883102680CF1180C4FEA0C1C52F80C3043F0010342F80C30B0
S325080077E000201DE04C6843EAC403CC6823430CF11804240105682B51BFE7036803EB0E13D5
S32508007800596841F480715960C1E7436A43F400134362012004E0436A43F480234362012024
S3250800782030BD90F82030013BDBB2012B05D9436A43F4802343620120704711F0010F04D0B9
S325080078400268936843F08003936011F0020F04D00268936843F40043936011F0040F04D06C
S325080078600268936843F4000393600020704790F82030013BDBB2012B01D9002070470368A8
S32508007880986810F0806000D001209A6812F0006F00D001309B6813F0805FEFD00130704709
S325080078A090F820C00CF1FF3C5FFA8CFCBCF1010F00F2958030B451B90468E46814F0030FB9
S325080078C010D1436A43F400134362012077E00468246914F0030F05D1436A43F40013436224
S325080078E001206CE001F11B04240105682C5904F004049460002C64D101F11B0424010568F1
S325080079002C59640D1460046801F11B0C4FEA0C1C54F80C4004F00204D46004686444646863
S3250800792004F00F041461046864446468C4F307249461046864446468240C5461026802EBEA
S325080079400112D2F8B8211A70026802EB0112D2F8B821C2F307225A70026802EB0112D2F8F0
S32508007960B821C2F307429A70026802EB0112D2F8B821120EDA70026802EB0112D2F8BC2190
S325080079801A71026802EB0112D2F8BC21C2F307225A71026802EB0112D2F8BC21C2F3074285
S325080079A09A71026802EB0112D2F8BC21120EDA7179B90268D36843F02003D360002030BCC6
S325080079C0704701F11B04240105682C59E408546099E70268136943F020031361EEE7436A68
S325080079E043F4802343620120704790F82030013BDBB2012B05D9436A43F48023436201202A
S32508007A007047026853690B43536100207047704770477047704770477047704770472DE9D4
S32508007A20F84F054603685C69D3F804809F68D3F80CB0D3F810A0D3F8189014F001063BD095
S32508007A4017F0010616D001229A6017F0020F08D117F0040F0CD117F0080606D04FF480561B
S32508007A6008E0FEF7D5F8002604E0FFF7D0FF01E04FF4006617F4807F0DD02B684FF4807246
S32508007A809A6017F4007F40F0868017F4806F00F0868046F4005617F4803F0DD02B684FF421
S32508007AA080329A6017F4003F40F0838017F4802F00F0838046F4004614F0080F07D01BF065
S32508007AC0100F04D046F400762B681022DA6014F0040F02D01BF0080F79D114F0020F04D0B8
S32508007AE02B68DB6813F0030F78D114F0400F07D01AF0100F04D046F480662B6810221A61BD
S32508007B0014F0200F02D01AF0080F6BD114F0100F04D02B681B6913F0030F6AD114F4003F50
S32508007B2002D018F0100F68D114F4803F02D018F0080F69D114F4004F7AD018F0040F74D013
S32508007B4014F4807F04D019F0010F01D046F0010614F4007F04D019F0020F01D046F0020691
S32508007B6014F4806F04D019F0040F01D046F0040614F4006F59D019F0700956D0B9F1400FBE
S32508007B8065D058D8B9F1200F5ED0B9F1300F42D146F0200644E02846FEF73FF87BE717F4E8
S32508007BA0006F02D046F4804675E72846FFF730FF71E72846FEF736F87EE717F4002F02D02D
S32508007BC046F4803678E72846FFF723FF74E72B680822DA602846FFF71DFF7EE72846FDF729
S32508007BE047FF82E72B6808221A612846FFF714FF8CE72846FFF70FFF90E72B6810225A603E
S32508007C002846FFF70AFF8FE72B6808225A602846FFF704FF8EE7B9F1100F01D146F0080641
S32508007C202A68936923F0700393612B6804225A609EB9BDE8F88FB9F1500F0BD0B9F1600F3B
S32508007C40EED146F48076EBE746F01006E8E746F04006E5E746F08006E2E76B6A33436B6255
S32508007C602846FDF793FFE4E7002807DB00F01F02400901239340024A42F82030704700BF90
S32508007C8000E100E0002808DB0901C9B200F1604000F5614080F80013704700F00F00090113
S32508007CA0C9B2014B1954704714ED00E000B500F00700C0F1070CBCF1040F28BF4FF0040C84
S32508007CC0031D062B0FD9C31E4FF0FF3E0EFA0CF021EA000199400EFA03FE22EA0E0241EAC7
S32508007CE002005DF804FB0023EEE70000BFF34F8F0549CA6802F4E062044B1343CB60BFF35E
S32508007D004F8F00BFFDE700BF00ED00E00400FA05074AD36823F4E0631B041B0C000200F423
S32508007D20E060034343F0BF6343F40033D360704700ED00E010B50446054BD868C0F30220C5
S32508007D40FFF7B4FF01462046FFF79CFF10BD00BF00ED00E008B5FFF787FF08BD08B5FFF724
S32508007D60C5FF00000138B0F1807F0BD24FF0E0235861054AF02182F8231000209861072231
S32508007D801A6170470120704700ED00E090F82530DBB2022B06D00423C363002380F8243055
S32508007DA0012070470268136823F00E0313600268136823F001031360436C03F01C03016CC4
S32508007DC0012202FA03F34B6080F82520002380F824301846704708B590F82530DBB2022BC0
S32508007DE003D00423C363012008BD0268136823F00E0313600268136823F001031360436CD5
S32508007E0003F01C03016C012202FA03F34B6080F82520002380F82430836B13B198470020B8
S32508007E20E2E70020E0E790F825007047F0B583B0002362E085685E000324B44025EA040565
S32508007E40CC68B4402C438460456825EA0C054C68C4F300149C402C4344605FE0DD080835FD
S32508007E6050F8254003F0070C4FEA8C0C4FF00F0E0EFA0CFE24EA0E0E0C6904FA0CF444EA37
S32508007E800E0440F8254060E0022400E0002404FA0EF42C430CF1020C4C4D45F82C404C4C67
S32508007EA0A568D44325EA02064F6817F4801F01D042EA0506464DAE60ED6804EA05064F686A
S32508007EC017F4001F01D042EA0506414DEE606D6804EA05064F6817F4003F01D042EA0506AF
S32508007EE03B4D6E602D682C404E6816F4803F01D042EA0504364A146001330A6832FA03F4DB
S32508007F0062D04FF0010C0CFA03FC1CEA0202F3D04C6804F00304013C012C8BD94C6804F0DE
S32508007F200304032C0CD0C4685D004FF0030C0CFA05FC24EA0C0C8C68AC4044EA0C04C460DB
S32508007F404C6804F00304022C88D004684FEA430E4FF0030C0CFA0EFC24EA0C0C4C6804F0BC
S32508007F60030404FA0EF444EA0C0404604C6814F4403FC1D0174C256E45F001052566246E30
S32508007F8004F001040194019C4FEA930C0CF102050E4C54F8255003F0030E4FEA8E0E0F24A5
S32508007FA004FA0EF425EA0405B0F1904F3FF46EAF094CA04206D004F58064A0423FF464AFB9
S32508007FC0072464E7012462E703B0F0BD000001400004014000100240000400480369194264
S32508007FE001D001207047002070470AB18161704781627047436901EA030221EA030141EA2F
S3250800800002418161704703689A6912F0020F01D000229A6203689A6912F0010F03D19A69AF
S3250800802042F001029A61704710B4019CC1F3090141EA02411943214321F000410268536887
S32508008040640D04F4806444F07F7444F4583444F47F7444F0030423EA04030B4353605DF80A
S32508008060044B704711F0010F09D090F8413003F02803282B01D0F22302E0422300E0002368
S3250800808011F0020F09D043F0440C90F8412002F02802282A10D043F0F40311F4004F0DD1D1
S325080080A010290ED020290FD0402910D001680A6822EA03030B6070476346EEE743F0B803AF
S325080080C0EEE743F09003EDE743F02003ECE743F04003EBE72DE9F041044603689F6917F0A7
S325080080E010074CD00E4690461022DA6100252368986910F0200F3BD1002D39D1B6F1FF3FA0
S32508008100F5D0FFF79FF9A0EB0800B04201D8002EEDD121684B6803F4804394F84220D2B24C
S32508008120886910F4004F02D00BB9202A18D123689B6913F0200FDAD1FFF784F9A0EB0800B2
S325080081401928F4D9636C43F020036364202384F84130002384F8423084F840300125E6E7F7
S325080081604B6843F480434B60FFF76CF98046DEE7002D40D12022DA610427012500E00025A2
S325080081802268936913F4807F05D047F001074FF48071D161012513F4806F06D047F0080793
S325080081A022684FF48061D161012513F4007F24D047F0020723684FF40072DA6101252046EA
S325080081C0FFF721FF2268536823F0FF7323F48B3323F4FF7323F001035360636C3B43636475
S325080081E0202384F84130002384F8423084F840302846BDE8F0810427C2E7002DF8D0DEE732
S3250800820070B504460D46164623689B6913F0020F1DD1324629462046FFF75CFFC8B9B5F1DC
S32508008220FF3FF1D0FFF70EF9801BA84201D8002DEAD1636C43F020036364202384F84130D2
S32508008240002384F8423084F84030012000E0002070BD0120FCE72DE9F04106468846174603
S325080082601D463468A46938EA04040CBF01240024BC4218D1B5F1FF3FF3D0FFF7E3F8069BA6
S32508008280C01AA84201D8002DEBD1736C43F020037364202386F84130002386F8423086F87B
S325080082A04030012000E00020BDE8F0812DE9F04182B0044690461D46089E099F194B0093C8
S325080082C04FF08073EAB2FFF7AFFE3A4631462046FFF796FFF8B9012D0ED123685FFA88F21B
S325080082E09A6200973346002280212046FFF7B3FFA8B902B0BDE8F08123684FEA18229A6270
S325080083003A4631462046FFF77BFF30B923685FFA88F29A62E5E70120EBE70120E9E701206E
S32508008320E7E700BF002000802DE9F04182B0044690461D46089E099F184B00930023EAB203
S32508008340FFF772FE3A4631462046FFF759FFF8B9012D0ED123685FFA88F29A6200973346D6
S32508008360002240212046FFF776FFA8B902B0BDE8F08123684FEA18229A623A46314620461B
S32508008380FFF73EFF30B923685FFA88F29A62E5E70120EBE70120E9E70120E7E7002000801A
S325080083A070B505460C4616462B689B6913F0200F1AD1324621462846FFF78CFEB0B9FFF7B1
S325080083C041F8801BA04201D8002CEDD16B6C43F020036B64202385F84130002385F84230D7
S325080083E085F84030012070BD0020FCE70120FAE7002859D010B5044690F84130002B43D098
S32508008400242384F841302268136823F0010313606368226823F0706313612268936823F440
S3250800842000439360E368012B33D0A368226843F404439360E368022B31D02268536843F087
S32508008440007343F4004353602268D36823F40043D360236962691343A169226843EA01238A
S32508008460D360E369216A22680B4313602268136843F00103136000206064202384F84130D6
S32508008480206384F8420010BD80F84030FDF766FCB6E7A368226843F400439360CAE72368A7
S325080084A04FF400625A60C8E7012070472DE9F04F83B00E46BDF834A00E9D90F84110C9B264
S325080084C0202940F0BB800446904699460C9BCBB1BAF1000F16D090F84030012B00F0B280D2
S325080084E04FF0010B80F840B0FEF7ACFF0746009019235A464FF400412046FFF7ACFE30B1F7
S3250800850001209CE04FF400736364012097E0212384F84130402384F84230002363640C9A89
S325080085206262A4F82AA06363019700954B46424631462046FFF7BAFE70B9638D9BB2FF2BDC
S325080085400FD9FF222285002300934FF0807331462046FFF769FD21E0002384F8403058468E
S325080085606DE0628D92B22285002300934FF00073D2B231462046FFF757FD0FE0628D92B291
S325080085802285002300934FF00073D2B231462046FFF74AFD638D9BB2002B33D03A462946C6
S325080085A02046FFF72DFE00284ED1626A236812789A62636A01336362638D9BB2013B9BB276
S325080085C06385238D013B9BB22385628D92B2002AE0D0002BDED100972B46002280212046AC
S325080085E0FFF739FE90BB638D9BB2FF2BC6D9FF222285002300934FF0807331462046FFF76C
S3250800860013FDC7E73A4629462046FFF7C9FEF8B923682022DA6121684B6823F0FF7323F4EB
S325080086208B3323F4FF7323F001034B6084F84120002384F8423084F8403000E0022003B094
S32508008640BDE8F08F0220FAE70120F8E70120F6E70120F4E72DE9F04F83B00E46BDF834A086
S325080086600E9D90F84110C9B2202940F0BC800446904699460C9BCBB1BAF1000F16D090F8EE
S325080086804030012B00F0B3804FF0010B80F840B0FEF7D8FE0746009019235A464FF4004152
S325080086A02046FFF7D8FD30B101209DE04FF400736364012098E0222384F84130402384F8D5
S325080086C04230002363640C9A6262A4F82AA06363019700954B46424631462046FFF724FE5F
S325080086E070B9638D9BB2FF2B0FD9FF222285444B00934FF0807331462046FFF795FC21E073
S32508008700002384F8403058466EE0628D92B222853B4B00934FF00073D2B231462046FFF754
S3250800872083FC0FE0628D92B22285002300934FF00073D2B231462046FFF776FC638D9BB275
S32508008740002B34D000972B46002204212046FFF782FD00284DD123685A6A636A1A70636AF9
S3250800876001336362228D013A92B22285638D9BB2013B9BB26385638D9BB2002BDED0002A2F
S32508008780DCD100972B4680212046FFF764FD90BB638D9BB2FF2BC5D9FF22228500230093EA
S325080087A04FF0807331462046FFF73EFCC6E73A4629462046FFF7F4FDF8B923682022DA61CA
S325080087C021684B6823F0FF7323F48B3323F4FF7323F001034B6084F84120002384F84230BC
S325080087E084F8403000E0022003B0BDE8F08F0220FAE70120F8E70120F6E70120F4E700BFEA
S32508008800002400807047704710B5044603681A68002180F8421012F4804F0ED01A6822F406
S3250800882080421A6094F84130DBB2292B0DD094F84130DBB22A2B18D010BD12F4004FF1D089
S325080088401A6822F400421A60ECE7282384F841302123236301212046FFF704FC002384F8C4
S3250800886040302046FFF7CEFFE6E7282384F841302223236302212046FFF7F4FB002384F874
S3250800888040302046FFF7BFFFD6E77047F8B5044690F8413003F02803282B06D00368082200
S325080088A0DA61002380F84030F8BD03689E69C6F300469A69120C02F0FE059A68C2F3090266
S325080088C0DF6807F0FE07C168022922D185EAD21515F0060F10D1816C01318164816C022993
S325080088E0E2D1002181640820D86184F8401031462046FFF7CAFFD7E74FF40041FFF7B2FB03
S32508008900002384F840303A4631462046FFF7BDFFCAE74FF40041FFF7A5FB002384F8403051
S325080089202A4631462046FFF7B0FFBDE77047000010B50446174BC36200230363202280F803
S32508008940412080F84230436311F0040F13D003685A6A436A1A70436A01334362038D53B1A1
S32508008960013B0385438D9BB2013B9BB24385436C43F00403436448F203012046FFF772FB20
S3250800898023681022DA61002384F840302046FFF7CDFF10BD0000FFFF7047704708B590F81C
S325080089A04130DBB2602B06D00023036380F84030FFF7F2FF08BD202380F841300023036378
S325080089C080F84030FFF7E9FFF4E7000010B5044690F84130002280F842203B48E062628538
S325080089E0626C0A436264283BDBB2022B19D803212046FFF737FB282384F84130334B63634C
S32508008A00236BA26B1AB1112B1BD0212B19D0E26B1AB1122B36D0222B34D02046FFF7BEFFC1
S32508008A2010BD48F203012046FFF71CFB94F84130DBB2602B02D0202384F8413000236363AA
S32508008A40DEE723681A6812F4804F03D01A6822F480421A60A06BFFF7E6F901280ED0A36BC5
S32508008A601B4A9A63002384F84030A06BFFF7B3F90028D5D0A06B836B9847D1E72046FFF711
S32508008A808DFFCDE723681A6812F4004F03D01A6822F400421A60E06BFFF7C5F901280ED0F9
S32508008AA0E36B0B4A9A63002384F84030E06BFFF792F90028B4D0E06B836B9847B0E720466C
S32508008AC0FFF76CFFACE700BF0000FFFF3D8C0008F58D000870B504460D460268166890F84A
S32508008AE04130DBB22021D161212B0DD0292B0BD0222B01D02A2B0ED148F202012046FFF7B4
S32508008B00B1FA2223236306E048F201012046FFF7A9FA212323632268536843F40043536074
S32508008B202268536823F0FF7323F48B3323F4FF7323F0010353602046FFF765FA16F4804FA1
S32508008B4040D02268136823F480431360A36B1BB11B685B689BB2638515F0040F11D025F042
S32508008B60040523685A6A636A1A70636A01336362238D33B1013B2385638D9BB2013B9BB234
S32508008B806385638D9BB21BB1636C43F004036364002384F842306363636C1BBBE36A13F535
S32508008BA0803F2DD194F84130DBB2222B38D0202384F841300023236384F840302046FFF7EA
S32508008BC021FE2CE016F4004FC6D02268136823F400431360E36B002BBED01B685B689BB201
S32508008BE06385B9E7616C2046FFF7F0FE94F84130DBB2282B13D129462046FFF799FE0EE0B7
S32508008C002046FFF701FE0C4BE362202384F841300023236384F840302046FFF787FE70BD7C
S32508008C20202384F841300023236384F840302046FFF7E9FDF3E700BF0000FFFFF8B5C76AAA
S32508008C4090F84030012B00F09E8004460D461646012380F8403011F0200F02D012F0200F9C
S32508008C6019D115F0100F3ED016F0100F3BD0638D9BB243BB94F84130DBB2282B0ED094F818
S32508008C804130DBB2292B11D023681022DA61002084F84000F8BDFFF71DFFE2E7B7F1007F08
S32508008CA0EDD129462046FFF743FEF0E717F5803FEAD023681022DA612046FFF7A4F9204629
S32508008CC0FFF7A2FDE3E723681022DA61636C43F00403636417B1B7F1807FD8D1616C204614
S32508008CE0FFF774FED3E715F0040F1FD016F0040F1CD0638D9BB273B123685A6A636A1A7031
S32508008D00636A01336362238D013B2385638D9BB2013B9BB26385638D9BB2002BB7D117F541
S32508008D20803FB4D02046FFF76FFDB0E715F0080F02D016F0080F18D115F0020FA7D016F0FC
S32508008D40020FA4D0638D9BB2A3B1626A236812789A62636A01336362638D9BB2013B9BB286
S32508008D606385238D013B238591E729462046FFF78DFD8CE7B7F1807F01D0002F87D12046C4
S32508008D80FFF742FD83E7022084E710B502689369116813F4807F09D011F0800F06D0446C00
S32508008DA044F0010444644FF48074D46113F4806F0AD011F0800F07D0426C42F00802426491
S32508008DC002684FF48064D46113F4007F0AD011F0800F07D0436C43F00203436403684FF4BC
S32508008DE00072DA61416C11F00B0F00D110BDFFF7EDFDFBE708B5806A836B0BB100229A6320
S32508008E00C36B0BB100229A63FFF7C8FD08BD034690F84120D2B2202A23D190F84020012AB4
S32508008E2021D0012280F84020242280F841200068026822F0010202601868026822F48052FE
S32508008E400260186802681143016019680A6842F001020A60202283F84120002083F8400078
S32508008E6070470220704702207047034690F84120D2B2202A21D190F84020012A1FD0012264
S32508008E8080F84020242280F841200068026822F0010202601868026822F4706242EA012263
S32508008EA0026019680A6842F001020A60202283F84120002083F84000704702207047022005
S32508008EC070470000024B186800F4C060704700BF00700040B0F5007F0FD01F4B1B6803F4DF
S32508008EE0C063B3F5806F34D01B4A136823F4C06343F48063136000207047174B1B6803F44C
S32508008F00C063B3F5007F20D0134A136823F4C06343F400731360114B1B68322202FB03F3B4
S32508008F200F4AA2FB03239B0C013300E0013B0A4A526912F4806F01D0002BF7D1064B5B6933
S32508008F4013F4806F03D10020704700207047032070470020704700BF00700040000000204B
S32508008F6083DE1B4330B583B00446204B9B6D13F0805F0BD0FFF7A6FFB0F5007F17D0802C40
S32508008F801FD82DD0702C2DD000211BE0174DAB6D43F08053AB65AB6D03F080530193019B7A
S32508008FA0FFF790FFAB6D23F08053AB65E4E7802C03D9A02C03D9022104E0002102E00121E9
S32508008FC000E003210A4A136823F007030B431360136803F007038B4206D1002003B030BDF6
S32508008FE00221EFE70121EDE70120F7E70010024000200240284A9368D26802F0030213F020
S325080090000C030AD00C2B06D0042B1FD0082B20D00020024610E0012AF6D11F4A126812F0DC
S32508009020080F0CD11C4AD2F89420C2F303221B4951F8222043B100200C2B0DD07047164A42
S325080090401268C2F30312F2E71046F5E714480022F2E714480022EFE70F4BDB6803F0030372
S32508009060022B16D0032B00D10E4A0B49CB68C3F302130133C868C0F3062002FB00F0B0FB51
S32508009080F3F0CB68C3F3416301335B00B0FBF3F0D4E7034AE9E700BF0010024040EB000819
S325080090A00024F40000127A00002800F02783F0B583B00446964B9D6805F00C05DE6806F0F2
S325080090C00306036813F0100F5AD0E5B10C2D18D0A369002B00F0BB808D4A136843F0010320
S325080090E01360FEF7AFF90746894B1B6813F0020F40F09A80FEF7A6F9C01B0228F4D90320C7
S3250800910007E3012EE4D1824B1B6813F0020F03D0A369002B00F0F482206A7D4B1B6813F0C7
S32508009120080F5BD07A4B1B6803F0F00398425CD8774B1A6842F008021A601A6822F0F00223
S32508009140216A0A431A605A6822F47F42E16942EA01225A60002D60D0FFF74CFF6C4B9B686B
S32508009160C3F303136B4AD35C03F01F03D8406A4B18606A4B1868FEF721F9002840F0C982F0
S32508009180236813F0010F00F08180082D75D00C2D71D06368B3F5803F00F09780B3F5A02F8E
S325080091A000F099805A4B1A6822F480321A601A6822F480221A606368002B00F09980FEF787
S325080091C041F90746524B1B6813F4003F5ED1FEF739F9C01B6428F5D903209AE24C4BD3F808
S325080091E094301B0903F0F003A0E7FFF7BBFE002840F08882464B1A6842F008021A601A68B0
S3250800920022F0F002216A0A431A605A6822F47F42E16942EA01225A609EE7206AFFF7A2FE59
S32508009220002899D0012074E2394B1A6842F008021A601A6822F0F002216A0A431A605A68C2
S3250800924022F47F42E16942EA01225A6098E7304A136823F001031360FEF7F4F807462C4B33
S325080092601B6813F0020F8BD0FEF7ECF8C01B0228F5D903204DE2032E8BD1254B1B6813F469
S32508009280003F03D06368002B00F03E82236813F0020F58D0042D45D00C2D41D0E368002B3B
S325080092A077D01B4A136843F480731360FEF7CAF80646174B1B6813F4806F61D1FEF7C2F81D
S325080092C0801B0228F5D9032023E2114A136843F4803313606FE703F18043A3F53C331A68FC
S325080092E042F480221A601A6842F480321A6062E7FEF7A8F80746064B1B6813F4003FC5D050
S32508009300FEF7A0F8C01B6428F5D9032001E200BF0010024078EB00080000002008000020B3
S32508009320022EBBD1AC4B1B6813F4806F03D0E368002B00F0EB81A84A536823F0F8532169B9
S3250800934043EA01635360236813F0080F4CD063699BB3A14AD2F8943043F00103C2F89430B2
S32508009360FEF770F806469C4BD3F8943013F0020F3AD1FEF767F8801B0228F4D90320C8E1EF
S32508009380954A536823F0F853216943EA01635360D9E7914A136823F480731360FEF752F827
S325080093A006468D4B1B6813F4806FCCD0FEF74AF8801B0228F5D90320ABE1874AD2F894308E
S325080093C023F00103C2F89430FEF73CF80646824BD3F8943013F0020F06D0FEF733F8801B74
S325080093E00228F4D9032094E1236813F0040F7AD0794B9B6D13F0805F36D1774B9A6D42F035
S3250800940080529A659B6D03F080530193019B0126724B1B6813F4807F28D0A368012B39D0CA
S32508009420052B3FD06C4BD3F8902022F00102C3F89020D3F8902022F00402C3F89020A36824
S32508009440002B3DD0FDF7FEFF0746634BD3F8903013F0020F46D1FDF7F5FFC01B41F2883373
S325080094609842F2D9032054E10026D1E75B4A136843F480731360FDF7E5FF0746574B1B68FC
S3250800948013F4807FC9D1FDF7DDFFC01B0228F5D903203EE1504AD2F8903043F00103C2F824
S325080094A09030CCE74C4BD3F8902042F00402C3F89020D3F8902042F00102C3F89020BEE7B6
S325080094C0FDF7C0FF0746444BD3F8903013F0020F08D0FDF7B7FFC01B41F288339842F2D960
S325080094E0032016E1E6B9236813F0200F35D0636AE3B1394AD2F8983043F00103C2F89830B4
S32508009500FDF7A0FF0646344BD3F8983013F0020F23D1FDF797FF801B0228F4D90320F8E02D
S325080095202D4A936D23F080539365DCE72A4AD2F8983023F00103C2F89830FDF783FF0646A4
S32508009540254BD3F8983013F0020F06D0FDF77AFF801B0228F4D90320DBE0A36A002B00F00B
S32508009560D780022B27D00C2D00F0D7801A4B1A6822F080721A601B6813F0006F04D1164A53
S32508009580D36823F00303D360134AD36823F0887323F48033D360FDF755FF04460E4B1B6825
S325080095A013F0007F00F0A880FDF74CFF001B0228F4D90320ADE0084BDB6803F00301E26A29
S325080095C091420DD00C2D00F0A680034B1B6813F0806F2FD001209CE000100240007000401D
S325080095E003F07002216B0139B2EB011FEAD103F4FE42616BB2EB012FE4D103F07842A16B7C
S32508009600B2EBC16FDED103F4C001E26B5208013AB1EB425FD6D103F0C063226C5208013A09
S32508009620B3EB426FCED13E4B1B6813F0007F49D000206EE03A4A136823F080731360FDF7AD
S3250800964001FF0546364B1B6813F0007F06D0FDF7F9FE401B0228F5D903205AE0304AD36805
S3250800966030491940E36A206B013843EA0013606B43EA0023E06B4008013843EA4053206C86
S325080096804008013843EA4063A06B43EAC0631943D160136843F080731360D36843F080730E
S325080096A0D360FDF7CFFE04461D4B1B6813F0007F06D1FDF7C7FE001B0228F5D9032028E023
S325080096C0002026E0164B1A6842F080721A60DA6842F08072DA60FDF7B5FE0446104B1B6866
S325080096E013F0007F06D1FDF7ADFE031B022BF5D903200EE000200CE000200AE0012070474C
S32508009700012006E0012004E0012002E0012000E0002003B0F0BD0120FBE70120F9E700BFE8
S32508009720001002408C809D01002800F0988070B50C4605464E4B1B6803F007038B420BD26A
S325080097404B4A136823F007030B431360136803F007038B4240F085802B6813F0010F39D0E4
S325080097606B68032B09D0022B26D063BB414A126812F0020F06D1012070E03E4A126812F05C
S32508009780007F70D03B498A6822F0030213438B60FDF758FE0646374B9B6803F00C036A683F
S325080097A0B3EB820F16D0FDF74DFE801B41F288339842F0D9032051E02E4A126812F4003F90
S325080097C0E0D101204AE02B4A126812F4806FD9D1012043E02B6813F0020F06D0254A9368C6
S325080097E023F0F003A9680B439360214B1B6803F00703A3420AD91E4A136823F007032343E9
S325080098001360136803F00703A3422ED12B6813F0040F06D0174A936823F4E063E9680B4397
S3250800982093602B6813F0080F07D0124A936823F46053296943EAC1039360FFF7DBFB0D4BE8
S325080098409B68C3F303130C4AD35C03F01F03D8400A4B18600A4B1868FDF7B0FD70BD0120E8
S3250800986070470120FAE70120F8E70120F6E700BF002002400010024078EB00080000002025
S3250800988008000020014B1868704700BF0000002008B5FFF7F7FF054B9B68C3F30223044A0B
S325080098A0D35C03F01F03D84008BD00BF0010024070EB000808B5FFF7E5FF054B9B68C3F365
S325080098C0C223044AD35C03F01F03D84008BD00BF0010024070EB00080F2303600B4B9A68C5
S325080098E002F0030242609A6802F0F00282609A6802F4E062C2609B68DB0803F4E063036119
S32508009900034B1B6803F007030B6070470010024000200240024A136843F40023136070474A
S32508009920001002407047000008B5064BDB6913F4807F00D108BDFFF7F5FF024B4FF48072B6
S325080099401A62F7E700100240F8B504460D46584BDB6813F0030F17D0554BDB6803F0030345
S325080099600268934201D0012616E0002A00F09E804F4BDB68C3F3021301334268934201D048
S32508009980012609E000261BE00368022B57D0032B5CD0012B02D001263046F8BD444A126817
S325080099A012F0020F5ED04248C26822F073026168013943EA01131343C3600026002EEBD150
S325080099C03B4A136823F080631360FDF73BFD0746374B1B6813F0006F05D0FDF733FDC31B49
S325080099E0022BF5D90326002ED6D1002D3CD130490B6923F0784323F4FE43A068E268D206E9
S32508009A0042EA002213430B61294A136843F080631360FDF717FD0546254B1B6813F0006FF9
S32508009A2005D1FDF70FFD401B0228F5D90326002EB2D11F4A1369A1690B431361ACE71C4A6B
S32508009A40126812F4806FAED10126A5E7184A126812F4003FA7D1164A126812F4802FA2D1BC
S32508009A60012699E70126A9E7012D0FD01048026922F0C06222F4FE42A16863695B08013BAC
S32508009A805B0643EA01231A430261BDE70848026922F4C00222F4FE42A16823695B08013B85
S32508009AA05B0543EA01231A430261ADE7012673E7001002402DE9F04182B00446036813F48B
S32508009AC0006F25D0C36BB3F5000F06D0B3F5400F12D04BB1012637461CE0AE4AD36843F47A
S32508009AE08033D360002708E000210430FFF72CFF074610B106460DE00027A64AD2F888300D
S32508009B0023F44003E16B0B43C2F88830002601E000263746236813F4003F6BD09D4B9B6D2B
S32508009B2013F0805F4CD19B4B9A6D42F080529A659B6D03F080530193019B4FF00108964A02
S32508009B40136843F480731360FDF77CFC0546924B1B6813F4807F05D1FDF774FC401B022803
S32508009B60F5D90327002F40D18A4BD3F8903013F4407315D0226D9A4212D0864AD2F89030F9
S32508009B8023F44073D2F8901041F48031C2F89010D2F8901021F48031C2F89010C2F890303F
S32508009BA013F0010F0FD1002F40F0C980794AD2F8903023F44073216D0B43C2F8903015E09A
S32508009BC04FF00008BBE7FDF73DFC0546714BD3F8903013F0020FE6D1FDF734FC401B41F252
S32508009BE088339842F2D90327DDE73E46B8F1000F40F0A780236813F0010F08D0654AD2F887
S32508009C00883023F00303216A0B43C2F88830236813F0020F08D05F4AD2F8883023F00C0356
S32508009C20616A0B43C2F88830236813F0200F08D0584AD2F8883023F44063A16A0B43C2F805
S32508009C408830236813F4007F08D0524AD2F8883023F44023616B0B43C2F88830236813F49F
S32508009C60806F08D04B4AD2F8883023F44013A16B0B43C2F88830236813F0400F08D0454A7E
S32508009C80D2F8883023F44053E16A0B43C2F88830236813F4807F08D03E4AD2F8883023F4F5
S32508009CA04033216B0B43C2F88830236813F4005F0FD0384AD2F8883023F04063216C0B4372
S32508009CC0C2F88830236CB3F1006F40D0B3F1806F42D0236813F4802F0FD02E4AD2F8883093
S32508009CE023F04063616C0B43C2F88830636CB3F1006F39D0B3F1806F3BD0236813F4804F29
S32508009D000CD0244AD2F8883023F04053A16C0B43C2F88830A36CB3F1805F32D0236813F4D0
S32508009D20004F08D01B4AD2F8883023F08043E16C0B43C2F88830304602B0BDE8F0813E4662
S32508009D4054E7144A936D23F08053936552E7D36843F48013D360BCE70121201DFFF7F4FD24
S32508009D600028B6D00646B4E7D36843F48013D360C3E70121201DFFF7E7FD0028BDD0064624
S32508009D80BBE70221201DFFF7DFFD0028C6D00646C4E700BF00100240007000402DE9F0471E
S32508009DA082B00546884617461E46FDF74BFB0A9B1B1A03EB0609FDF745FB8246284B1B6886
S32508009DC0C3F3CB3309FB03F301932B689C6838EA04040CBF01230023BB423DD0B6F1FF3F71
S32508009DE0F3D0FDF72FFBA0EB0A00484507D2019A02B14A46019B013B01939146E5E72A68FA
S32508009E00536823F0E00353606B68B3F5827F0BD0AB6AB3F5005F14D0012385F85D30002328
S32508009E2085F85C30032018E0AB68B3F5004F02D0B3F5806FECD12A68136823F040031360EA
S32508009E40E6E72A68136823F4005313602A68136843F400531360DFE7002002B0BDE8F0877F
S32508009E60000000202DE9F04782B006460C4615461F4600238DF80330FDF7E4FA0A9B1B1A50
S32508009E8003EB0708FDF7DEFA8146D6F800A0304B1B6803EB8303C3EBC3031B0D08FB03F3AF
S32508009EA0019302E0B7F1FF3F12D133689B6803EA040CAC4547D0B4F5C06FF3D1002DF1D127
S32508009EC09AF80C30DBB28DF803309DF80330E9E7FDF7B8FAA0EB0900404507D2019A02B1E3
S32508009EE04246019B013B01939046DEE73268536823F0E00353607368B3F5827F0BD0B36A4B
S32508009F00B3F5005F14D0012386F85D30002386F85C30032018E0B368B3F5004F02D0B3F545
S32508009F20806FECD13268136823F040031360E6E73268136823F4005313603268136843F47E
S32508009F4000531360DFE7002002B0BDE8F08700BF0000002070B582B004460D4616460092B8
S32508009F600B4600224FF4C051FFF77CFFB0B900962B46002280212046FFF710FFA8B9009606
S32508009F802B4600224FF4C0612046FFF76BFF50B1236E43F020032366032004E0236E43F0BA
S32508009FA020032366032002B070BD236E43F0200323660320F7E770B582B004460D46164624
S32508009FC04368B3F5827F0DD000962B46002280212046FFF7E3FE90B96368B3F5827F14D09A
S32508009FE002B070BD8368B3F5004F02D0B3F5806FEAD12268136823F040031360E4E7236E44
S3250800A00043F0200323660320EAE7A368B3F5004F02D0B3F5806FE3D100962B4600224FF4D4
S3250800A020C0612046FFF71EFF0028D9D0236E43F0200323660320D3E700286AD010B50446E9
S3250800A040436A33B94368B3F5827F05D00023C36102E00023036143610023A36294F85D309B
S3250800A060002B4DD0022384F85D302268136823F040031360E368B3F5E06F47D90022B3F562
S3250800A080706F04D0B3F5E06F01D00023A362636803F48273A16801F404410B43216901F04C
S3250800A0A002010B43616901F001010B43A16901F400710B43E16901F038010B43216A01F03A
S3250800A0C080010B43A16A01F4005120680B430360638B03F00403616A01F010010B43616B4A
S3250800A0E001F008010B43E16801F470610B4321681A434A6000202066012384F85D3010BD7D
S3250800A10084F85C302046FCF71FFDABE74FF48052B5E7012070472DE9F04383B01D4690F832
S3250800A1205C30012B00F0F680044688469146012380F85C30FDF786F9074694F85D60F6B22B
S3250800A140012E40F0D480B8F1000F00F0D180B9F1000F00F0CD80032384F85D300023236674
S3250800A160C4F83880A4F83C90A4F83E902364A4F84430A4F846302365E364A368B3F5004F11
S3250800A1801ED023681A6812F0400F03D11A6842F040021A60E368B3F5E06F42D9636813B135
S3250800A1A0B9F1010F23D1A26B23681288DA60A36B0233A363E38F9BB2013B9BB2E38716E086
S3250800A1C02268136823F0400313602268136843F480431360D5E7FDF735F9C01BA84203D3B8
S3250800A1E0B5F1FF3F40F08E80002D00F08D80E38F9BB2002B66D023689A6812F0020FEAD08B
S3250800A200A26B1288DA60A36B0233A363B4F83EC01FFA8CFC0CF1FF3C1FFA8CFCA4F83EC048
S3250800A220E5E7636813B1B9F1010F33D1E38F9BB2012B0CD9A26B23681288DA60A36B023378
S3250800A240A363E38F9BB2023B9BB2E38722E0A26B236812781A73A36B0133A363E38F9BB27F
S3250800A260013B9BB2E38715E0A36B1B781373A36B0133A363E38F9BB2013B9BB2E38709E0DE
S3250800A280FDF7E0F8C01BA84202D3B5F1FF3F3DD1002D3DD0E38F9BB2A3B12268936813F083
S3250800A2A0020FEDD0E38F9BB2012BDDD9A36B1B88D360A36B0233A363E38F9BB2023B9BB2AB
S3250800A2C0E387E7E73A4629462046FFF743FE08B120232366A36833B901932368DA6801923C
S3250800A2E09B680193019B236E13B9002600E00226012384F85D30002384F85C30304603B011
S3250800A300BDE8F0830326F3E70326F1E70326EFE70326EDE70226F1E72DE9F8431F46089DBC
S3250800A32090F85C30012B00F06481044688469146012380F85C30FDF785F8064694F85D300D
S3250800A340DBB26268012B0AD0B2F5827F40F03881A268002A40F03D81042B40F03C81B8F11A
S3250800A360000F00F03A81B9F1000F00F03881002F00F0378194F85D30DBB2042B02D005230D
S3250800A38084F85D3000232366C4F84090A4F84670A4F84470C4F83880E787A787E3642365ED
S3250800A3A0E368B3F5E06F01D8012F23D92268536823F48053536023681A6812F0400F03D134
S3250800A3C01A6842F040021A60E368B3F5E06F58D963680BB1012F0BD1A26B23681288DA608D
S3250800A3E0A36B0233A363E38F9BB2013B9BB2E387012731E02268536843F480535360DAE758
S3250800A400A26B1288DA60A36B0233A363E38F9BB2013B9BB2E387002723689A6812F0010F8C
S3250800A42011D0B4F8462092B26AB1DA68236C1A80236C02332364B4F846309BB2013B9BB20E
S3250800A440A4F846300127FCF7FDFF831BAB4203D3B5F1FF3F40F0C780E38F9BB22BB9B4F8BA
S3250800A46046309BB2002B00F0A18023689A6812F0020FD1D0E28F92B2002ACDD0002FCBD048
S3250800A480BEE763680BB1012F0FD1E38F9BB2012B0DD9A26B23681288DA60A36B0233A363EC
S3250800A4A0E38F9BB2023B9BB2E387012749E0A26B236812781A73A36B0133A363E38F9BB2D4
S3250800A4C0013B9BB2E387F0E7E28F92B2012A0CD9A26B1288DA60A36B0233A363E38F9BB2F6
S3250800A4E0023B9BB2E38700273DE0A26B12781A73A36B0133A363E38F9BB2013B9BB2E387F8
S3250800A500002730E02268536843F48053536001270DE0226C1B7B1370236C01332364B4F842
