S02300002E2E2F6D61696E626F6172642F6275696C642F66656E6963652D626D732E6200CD
S32508004000000002201933010851EC000853EC000863EC000865EC000867EC00080000000084
S3250800402000000000000000000000000069EC00086BEC0008000000006DEC00086FEC0008F2
S3250800404069330108693301086933010869330108693301086933010869330108693301082A
S3250800406069330108693301086933010869330108693301086933010869330108693301080A
S32508004080693301086933010879EC0008693301089DEC0008ADEC0008BDEC0008693301082E
S325080040A0CDEC0008DDEC00086933010869330108F5EC000805ED000815ED00086933010884
S325080040C0693301086933010869330108693301086933010825ED0008693301086933010835
S325080040E069330108693301086933010869330108693301086933010835ED00086933010805
S3250800410069330108693301086933010869330108693301086933010845ED000869330108D4
S325080041206933010855ED000865ED00086933010875ED000800000000000000006933010874
S3250800414085ED000895ED0008A5ED000869330108693301086933010869330108693301087A
S325080041606933010869330108693301086933010869330108693301086933010800000000AE
S32508004180000000006933010800000000000000006933010800000000000000006933010822
S325080041A00000000000000000000000006933010869330108693301086933010869330108B8
S325080041C06933010800000000000000000000000010F8012B11F8013B012A28BF9A42F7D0FE
S325080041E0D01A704700000000000000000000000001F0FF01102A2BDB10F0070F08D010F8E9
S32508004200013B013A8B422DD010F0070F42B3F6D1F0B441EA012141EA014122F007047FF093
S3250800422000070023F0E80256083C85EA010586EA010685FA47F5A3FA87F586FA47F6A5FAB6
S3250800424087F68EB9EED1F0BC01F0FF0102F0070232B110F8013B013A83EA010313B1F8D1D5
S325080042600020704701387047002D06BF35460338073815F0010F07D1013015F4807F02BF9B
S32508004280013015F4C03F0130F0BC0138704700BF034613F8012B002AFBD1181A01387047B3
S325080042A081F0004102E000BF83F0004330B54FEA41044FEA430594EA050F08BF90EA020F1F
S325080042C01FBF54EA000C55EA020C7FEA645C7FEA655C00F0E2804FEA5454D4EB5555B8BFF5
S325080042E06D420CDD2C4480EA020281EA030382EA000083EA010180EA020281EA0303362DAC
S3250800430088BF30BD11F0004F4FEA01314FF4801C4CEA113102D0404261EB410113F0004F15
S325080043204FEA03334CEA133302D0524263EB430394EA050F00F0A780A4F10104D5F1200E53
S325080043400DDB02FA0EFC22FA05F2801841F1000103FA0EF2801843FA05F359410EE0A5F19B
S3250800436020050EF1200E012A03FA0EFC28BF4CF0020C43FA05F3C01851EBE37101F00045A7
S3250800438007D54FF0000EDCF1000C7EEB00006EEB0101B1F5801F1BD3B1F5001F0CD3490821
S325080043A05FEA30004FEA3C0C04F101044FEA445212F5800F80F09A80BCF1004F08BF5FEA00
S325080043C0500C50F1000041EB045141EA050130BD5FEA4C0C404141EB0101013C28BFB1F579
S325080043E0801FE9D291F0000F04BF01460020B1FA81F308BF2033A3F10B03B3F120020CDA14
S325080044000C3208DD02F1140CC2F10C0201FA0CF021FA02F10CE002F11402D8BFC2F1200C27
S3250800442001FA02F120FA0CFCDCBF41EA0C019040E41AA2BF01EB0451294330BD6FEA040461
S325080044401F3C1CDA0C340EDC04F11404C4F1200220FA04F001FA02F340EA030021FA04F3B2
S3250800446045EA030130BDC4F10C04C4F1200220FA02F001FA04F340EA0300294630BD21FAD0
S3250800448004F0294630BD94F0000F83F4801306BF81F480110134013D4EE77FEA645C18BFAE
S325080044A07FEA655C29D094EA050F08BF90EA020F05D054EA000C04BF1946104630BD91EAE8
S325080044C0030F1EBF0021002030BD5FEA545C05D14000494128BF41F0004130BD14F5800445
S325080044E03CBF01F5801130BD01F0004545F0FE4141F470014FF0000030BD7FEA645C1ABFC1
S32508004500194610467FEA655C1CBF0B46024650EA013406BF52EA033591EA030F41F40021AF
S3250800452030BD00BF90F0000F04BF0021704730B54FF4806404F132044FF000054FF00001DC
S3250800454050E700BF90F0000F04BF0021704730B54FF4806404F1320410F0004548BF404228
S325080045604FF000013EE700BF42004FEAE2014FEA31014FEA02701FBF12F07F4393F07F4FA2
S3250800458081F06051704732F07F4208BF704793F07F4F04BF41F40021704730B54FF46074B6
S325080045A001F0004521F000411CE700BF50EA010208BF704730B54FF000050AE050EA010298
S325080045C008BF704730B511F0004502D5404261EB41014FF4806404F132045FEA915C3FF482
S325080045E0D8AE4FF003025FEADC0C18BF03325FEADC0C18BF033202EBDC02C2F1200300FACE
S3250800460003FC20FA02F001FA03FE40EA0E0021FA02F11444BDE600BF70B54FF0FF0C4CF4D6
S32508004620E06C1CEA11541DBF1CEA135594EA0C0F95EA0C0F00F0DEF82C4481EA030621EA83
S325080046404C5123EA4C5350EA013518BF52EA033541F4801143F4801338D0A0FB02CE4FF006
S325080046600005E1FB02E506F00042E0FB03E54FF00006E1FB03569CF0000F18BF4EF0010E30
S32508004680A4F1FF04B6F5007F64F5407404D25FEA4E0E6D4146EB060642EAC62141EA5551F3
S325080046A04FEAC52040EA5E504FEACE2EB4F1FD0C88BFBCF5E06F1ED8BEF1004F08BF5FEAC8
S325080046C0500E50F1000041EB045170BD06F0004646EA010140EA020081EA0301B4EB5C0477
S325080046E0C2BFD4EB0C0541EA045170BD41F480114FF0000E013C00F3AB8014F1360FDEBF59
S32508004700002001F0004170BDC4F10004203C35DA0C341BDC04F11404C4F1200500FA05F3D8
S3250800472020FA04F001FA05F240EA020001F0004221F0004110EBD37021FA04F642EB060133
S325080047405EEA430E08BF20EAD37070BDC4F10C04C4F1200500FA04F320FA05F001FA04F2E1
S3250800476040EA020001F0004110EBD37041F100015EEA430E08BF20EAD37070BDC4F12005A8
S3250800478000FA05F24EEA020E20FA04F301FA05F243EA020321FA04F001F0004121FA04F24B
S325080047A020EA020000EBD3705EEA430E08BF20EAD37070BD94F0000F0FD101F000464000ED
S325080047C041EB010111F4801F08BF013CF7D041EA060195F0000F18BF704703F0004652004F
S325080047E043EB030313F4801F08BF013DF7D043EA0603704794EA0C0F0CEA135518BF95EACB
S325080048000C0F0CD050EA410618BF52EA4306D1D181EA030101F000414FF0000070BD50EACD
S32508004820410606BF1046194652EA430619D094EA0C0F02D150EA013613D195EA0C0F05D10A
S3250800484052EA03361CBF104619460AD181EA030101F0004141F0FE4141F470014FF0000074
S3250800486070BD41F0FE4141F4780170BD70B54FF0FF0C4CF4E06C1CEA11541DBF1CEA135502
S3250800488094EA0C0F95EA0C0F00F0A7F8A4EB050481EA030E52EA03354FEA013100F088805D
S325080048A04FEA03334FF0805545EA131343EA12634FEA022245EA111545EA10654FEA0026BB
S325080048C00EF000419D4208BF964244F1FD0404F5407402D25B084FEA3202B61A65EB03055E
S325080048E05B084FEA32024FF480104FF4002CB6EB020E75EB030E22BFB61A754640EA0C00D4
S325080049005B084FEA3202B6EB020E75EB030E22BFB61A754640EA5C005B084FEA3202B6EB34
S32508004920020E75EB030E22BFB61A754640EA9C005B084FEA3202B6EB020E75EB030E22BFE3
S32508004940B61A754640EADC0055EA060E18D04FEA051545EA16754FEA06164FEAC30343EAEF
S3250800496052734FEAC2025FEA1C1CC0D111F4801F0BD141EA00014FF000004FF0004CB6E742
S3250800498011F4801F04BF01430020B4F1FD0C88BFBCF5E06F3FF6AFAEB5EB030C04BFB6EBA4
S325080049A0020C5FEA500C50F1000041EB045170BD0EF0004E4EEA113114EB5C04C2BFD4EBE2
S325080049C00C0541EA045170BD41F480114FF0000E013C90E645EA060E8DE60CEA135594EAB3
S325080049E00C0F08BF95EA0C0F3FF43BAF94EA0C0F0AD150EA01347FF434AF95EA0C0F7FF4CA
S32508004A0025AF104619462CE795EA0C0F06D152EA03353FF4FDAE1046194622E750EA4106EA
S32508004A2018BF52EA43067FF4C5AE50EA41047FF40DAF52EA43057FF4EBAE12E74FF0FF3C75
S32508004A4006E000BF4FF0010C02E000BF4FF0010C4DF804CD4FEA410C7FEA6C5C4FEA430C15
S32508004A6018BF7FEA6C5C1BD001B050EA410C0CBF52EA430C91EA030F02BF90EA020F0020AE
S32508004A80704710F1000F91EA030F58BF994208BF90422CBFD8176FEAE37040F001007047BB
S32508004AA04FEA410C7FEA6C5C02D150EA013C07D14FEA430C7FEA6C5CD6D152EA033CD3D091
S32508004AC05DF8040B704700BF8446104662468C461946634600E000BF01B5FFF7B7FF002823
S32508004AE048BF10F1000F01BD4DF808EDFFF7F4FF0CBF012000205DF808FB00BF4DF808ED53
S32508004B00FFF7EAFF34BF012000205DF808FB00BF4DF808EDFFF7E0FF94BF012000205DF865
S32508004B2008FB00BF4DF808EDFFF7CEFF94BF012000205DF808FB00BF4DF808EDFFF7C4FF0A
S32508004B4034BF012000205DF808FB00BF4FEA410C7FEA6C5C02D150EA013C0AD14FEA430C98
S32508004B607FEA6C5C02D152EA033C02D14FF0000070474FF0010070474FEA410212F5001253
S32508004B8015D211D56FF47873B3EB625212D94FEAC12343F0004343EA505311F0004F23FADF
S32508004BA002F018BF404270474FF00000704750EA013005D111F0004008BF6FF00040704750
S32508004BC04FF00000704700BF4A0011D212F5001211D20DD56FF47873B3EB62520ED44FEA4C
S32508004BE0C12343F0004343EA505323FA02F070474FF00000704750EA013002D14FF0FF3015
S32508004C0070474FF0000070474FEA4102B2F1E04324BFB3F5001CDCF1FE5C0DD901F0004CA6
S32508004C204FEAC0024CEA5070B2F1004F40EB830008BF20F00100704711F0804F21D113F180
S32508004C403872BCBF01F00040704741F480114FEA5252C2F11802C2F1200C10FA0CF320FAC7
S32508004C6002F018BF40F001004FEAC1234FEAD32303FA0CFC40EA0C0023FA02F34FEA430314
S32508004C80CCE77FEA625307D150EA01331EBF4FF0FE4040F44000704701F0004040F0FE40CB
S32508004CA040F40000704700BF80F0004002E000BF81F0004142001FBF5FEA410392EA030FFE
S32508004CC07FEA226C7FEA236C6AD04FEA1262D2EB1363C1BFD218414048404140B8BF5B42B5
S32508004CE0192B88BF704710F0004F40F4000020F07F4018BF404211F0004F41F4000121F022
S32508004D007F4118BF494292EA030F3FD0A2F1010241FA03FC10EB0C00C3F1200301FA03F129
S32508004D2000F0004302D5494260EB4000B0F5000F13D3B0F1807F06D340084FEA310102F18C
S32508004D400102FE2A51D2B1F1004F40EBC25008BF20F0010040EA03007047490040EB000099
S32508004D60013A28BFB0F5000FEDD2B0FA80FCACF1080CB2EB0C0200FA0CF0AABF00EBC250B2
S32508004D8052421843BCBFD0401843704792F0000F81F4000106BF80F400000132013BB5E72E
S32508004DA04FEA41037FEA226C18BF7FEA236C21D092EA030F04D092F0000F08BF08467047F2
S32508004DC090EA010F1CBF0020704712F07F4F04D1400028BF40F00040704712F100723CBF26
S32508004DE000F50000704700F0004343F0FE4040F4000070477FEA226216BF08467FEA23636B
S32508004E000146420206BF5FEA412390EA010F40F4800070474FF0000304E000BF10F000436A
S32508004E2048BF40425FEA000C08BF704743F0964301464FF000001CE050EA010208BF7047BF
S32508004E404FF000030AE000BF50EA010208BF704711F0004302D5404261EB41015FEA010C1D
S32508004E6002BF84460146002043F0B64308BFA3F18053A3F50003BCFA8CF2083AA3EBC25324
S32508004E8010DB01FA02FC634400FA02FCC2F12002BCF1004F20FA02F243EB020008BF20F09B
S32508004EA00100704702F1200201FA02FCC2F1200250EA4C0021FA02F243EB020008BF20EAB3
S32508004EC0DC70704753B94AB9002908BF00281CBF4FF0FF314FF0FF3000F00CB8ADF1080C7C
S32508004EE06DE904CE13F0AEFDDDF804E0DDE9022304B07047704700BF10B5054C237833B9AC
S32508004F00044B13B10448AFF300800123237010BD6403002000000000008D010808B5034B56
S32508004F201BB103490348AFF3008008BD0000000068030020008D010810B504460E4B1A78FE
S32508004F404FF47A73B3FBF2F30C4A1068B0FBF3F001F01AF868B90F2C01D901200AE00022BE
S32508004F6021464FF0FF3000F0EDFF054B1C60002000E0012010BD00BF000000209801002020
S32508004F800400002008B50B4B1A6842F400721A601A6842F480621A601A6842F480721A60F0
S32508004FA0032000F0BDFF0020FFF7C6FF09F034FE002008BD003C0240034A1168034B1B7804
S32508004FC00B441360704700BF8003002000000020014B1868704700BF8003002038B50446AC
S32508004FE0FFF7F6FF0546B4F1FF3F02D0044B1B781C44FFF7EDFF401BA042FAD338BD00BFD6
S32508005000000000204A4B5A6822F440325A605A6841680A435A600268536823F48073536075
S3250800502002685368016943EA012353600268536823F0407353600268536881680B43536022
S325080050400268936823F40063936002689368C1680B439360826A374B9A4257D002689368CB
S3250800506023F07063936002689368816A0B4393600268936823F04053936002689368C16A2A
S325080050800B4393600268936823F00203936002689368017E43EA4103936090F82030002B06
S325080050A03FD00268536843F4006353600268536823F46043536001684B68426A013A43EA9F
S325080050C042334B600268D36A23F47003D3620168CB6AC269013A43EA0253CB620268936824
S325080050E023F4007393600268936890F8301043EA412393600268936823F4806393600268B8
S325080051009368416943EA8123936070470268936823F0706393600268936823F04053936025
S32508005120B0E70268536823F400635360CAE700BF002301400100000F38B310B50446036C2B
S3250800514043B1236C13F0100F0BD00120002384F83C3010BD04F04EF80023636484F83C30BC
S32508005160EFE7236C23F4885323F0020343F0020323642046FFF746FF00206064236C23F0CC
S32508005180030343F001032364E0E701207047000010B582B013460022019290F83C20012A8A
S325080051A000F0AE800446012280F83C200268906810F0010F13D1906840F001009060534A76
S325080051C01068534AA2FB0020800C00EB4000019002E001980138019001980028F9D122684D
S325080051E0906810F4807F03D0906820F4807090602268906810F0010F77D0206C20F4E0602E
S3250800520020F0010040F480702064526812F4806F05D0226C22F4405242F480522264226CF1
S3250800522012F4805F36D0626C22F006026264002284F83C20A26B3748D063A26B364810640F
S32508005240A26B3648D06422686FF0220010602068426842F0806242602068826842F4807284
S32508005260826020680A4600F14C01A06B00F086FF2B4B5B6813F01F0F27D12368294A934273
S3250800528011D002F58072934207D0274A934214D0002033E000226264C9E702F50072526872
S325080052A012F01F0FF1D19A6812F0405F2AD19A6842F080429A60002020E002F5807252689D
S325080052C012F0100FEFD0002018E02368154A934201D0002012E09A6812F0405F14D19A689C
S325080052E042F080429A60002008E0236C43F010032364636C43F001036364002002B010BDE2
S325080053000220FBE70020F9E70020F7E79801002083DE1B43955400082F5300087F540008AF
S32508005320002301400020014000220140704708B5806BFFF7FBFF08BD7047704770B5044646
S3250800534003681E685D6816F0020F2FD005F0200262B3026C12F0100F03D1026C42F40072CE
S3250800536002649A6812F0405F19D1227EBAB9DA6A12F4700F03D09A6812F4806F0FD15A68E4
S3250800538022F020025A60236C23F480732364236C13F4805F03D1236C43F0010323642046F5
S325080053A004F03AF823686FF012021A6005F0800316F0040F37D0002B35D0236C13F0100FC8
S325080053C003D1236C43F40053236423689A6812F4401F21D19A6B12F4401F03D09A6812F422
S325080053E0806F19D15A6812F4806F15D19A6812F0405F11D1227E7AB95A6822F080025A60C1
S32508005400236C23F480532364236C13F4807F03D1236C43F001032364204600F04BF92368A3
S325080054206FF00C021A6005F0400316F0010F05D023B123681B6813F0010F06D105F08065AE
S3250800544016F0200F00D065B970BD236C43F4803323642046FFF770FF23686FF001021A60BC
S32508005460ECE7636C43F00203636423686FF020051D602046FFF761FF23681D60E4E708B5A5
S32508005480806B40230364436C43F004034364FFF754FF08BD08B50346806B026C12F0500FEB
S325080054A025D1036C43F40073036403689A6812F0405F19D1027EBAB9DA6A12F4700F03D0E1
S325080054C09A6812F4806F0FD15A6822F020025A60036C23F480730364036C13F4805F03D12E
S325080054E0036C43F00103036403F096FF08BD026C12F0100F04D1826BD26C18469047F5E7A4
S32508005500FFF71BFFF2E7000030B482B00022019290F83C20012A00F0C0800346012280F8A6
S325080055203C200A68092A40D90468E06892B202EB42021E3A4FF0070C0CFA02F220EA020268
S32508005540E2601C68E0680A8802EB42021E3A8D6805FA02F20243E2604A68062A3CD81C682B
S32508005560606B02EB8202053A4FF01F0C0CFA02F220EA020262631C68606B4A6802EB8202F9
S32508005580053AB1F800C00CFA02F2024362631868434A904250D01868414A904259D000202C
S325080055A083F83C0002B030BC70470468206992B202EB42024FF0070C0CFA02F220EA02020D
S325080055C022611C6820690A8802EB42028D6805FA02F202432261BFE70C2A16D81D68286BD8
S325080055E002EB8202233A1F2404FA02F220EA02022A631D68286B4A6802EB8202233A0C88D3
S3250800560004FA02F202432A63C1E71D68E86A02EB8202413A1F2404FA02F220EA0202EA62BE
S325080056201D68E86A4A6802EB8202413A0C8804FA02F20243EA62AAE70A68122AABD1194AB2
S32508005640506820F400005060506840F480005060A1E70A681448824201D0112A9FD1114AB3
S32508005660506820F480005060506840F40000506009680D4A914292D10C4A12680C49A1FBC5
S325080056800212920C02EB820252000192019A002A85D0019A013A0192F8E7022082E700BF48
S325080056A00020014000230140120000109801002083DE1B437047002800F0A18038B5044656
S325080056C090F82030D3B12268136843F001031360FFF77EFC054623685A6812F0010F10D1B6
S325080056E0FFF776FC401B0A28F5D9636A43F400336362052384F82030012038BD04F076FA6F
S32508005700E1E71A6822F002021A60FFF761FC054623685A6812F0020F0DD0FFF759FC401B20
S325080057200A28F5D9636A43F400336362052384F820300120E1E7227E012A3DD01A6822F016
S3250800574080021A60637E012B3BD02268136823F040031360A37E012B39D02268136823F0EB
S3250800576020031360E37E012B37D02268136843F010031360237F012B35D02268136823F048
S3250800578008031360637F012B33D02268136823F004031360A368E268134322691343626983
S325080057A013436268013A21681343CB6100206062012384F82030A0E71A6842F080021A606C
S325080057C0C0E72268136843F040031360C2E72268136843F020031360C4E72268136823F0EC
S325080057E010031360C6E72268136843F008031360C8E72268136843F004031360CAE701207F
S325080058007047000090F82030013BDBB2012B05D9436A43F4802343620120704730B5464B9E
S32508005820D3F8002242F00102C3F80022D3F8002222F47C52C3F80022D3F80022486A42EAE2
S325080058400022C3F800224A6902F01F02012000FA02F2D3F81C026FEA020C20EA0200C3F84F
S325080058601C02CB69C3B9344BD3F80C020CEA0000C3F80C028C884869CD6844EA054448304C
S3250800588043F830408C68088840EA04404C6904F1480E03EBCE035860CB69012B1ED08B69A4
S325080058A0002B33D12448D0F804320CEA0303C0F804320B698BBB2048D0F814320CEA03032B
S325080058C0C0F814320B6A012B2ED01B4AD2F8003223F00103C2F80032002030BD164BD3F880
S325080058E00C021043C3F80C028C8848690D6844EA0544483043F8304088894C698D6840EAB7
S325080059000540483403EBC4035860C8E70A48D0F804321343C0F80432CBE70748D0F81432F9
S325080059201343C0F81432CDE70349D1F81C321343C1F81C32C9E700BF0064004070B504460F
S3250800594090F82050EDB2012D06D0436A43F4002343620125284670BD022380F820300268DA
S32508005960136823F001031360FFF732FB064623685B6813F0010F0CD0FFF72AFB831B0A2B7A
S32508005980F5D9636A43F400336362052384F82030E0E700256562DDE730B590F820C004680B
S325080059A0A4680CF1FF3C5FFA8CFCBCF1010F6BD814F0E05F62D0C4F3016CBCF1020F05D97F
S325080059C0436A43F400034362012062E0012404FA0CF41C608B68002B3DD10D68CB680468EB
S325080059E043EA45550CF118031B01E55003680C690CF1180E03EB0E135C600B7D012B35D0E2
S32508005A00D17993791B0443EA0163517943EA012314790168234301EB0C11C1F88C31D17833
S32508005A2093781B0443EA0163517843EA0123117802680B4302EB0C12C2F8883102680CF15D
S32508005A40180C4FEA0C1C52F80C3043F0010342F80C3000201DE04C6843EAC403CC68234321
S32508005A600CF11804240105682B51BFE7036803EB0E13596841F480715960C1E7436A43F4A5
S32508005A8000134362012004E0436A43F480234362012030BD90F82030013BDBB2012B01D95A
S32508005AA0002070470368986810F0806000D001209A6812F0006F00D001309B6813F0805F6C
S32508005AC0EFD00130704790F820C00CF1FF3C5FFA8CFCBCF1010F00F2958030B451B9046872
S32508005AE0E46814F0030F10D1436A43F400134362012077E00468246914F0030F05D1436AAF
S32508005B0043F40013436201206CE001F11B04240105682C5904F004049460002C64D101F1B0
S32508005B201B04240105682C59640D1460046801F11B0C4FEA0C1C54F80C4004F00204D46090
S32508005B4004686444646804F00F041461046864446468C4F307249461046864446468240C14
S32508005B605461026802EB0112D2F8B8211A70026802EB0112D2F8B821C2F307225A700268AC
S32508005B8002EB0112D2F8B821C2F307429A70026802EB0112D2F8B821120EDA70026802EB7E
S32508005BA00112D2F8BC211A71026802EB0112D2F8BC21C2F307225A71026802EB0112D2F8A4
S32508005BC0BC21C2F307429A71026802EB0112D2F8BC21120EDA7179B90268D36843F0200328
S32508005BE0D360002030BC704701F11B04240105682C59E408546099E70268136943F020031D
S32508005C001361EEE7436A43F4802343620120704790F82030013BDBB2012B05D9436A43F49A
S32508005C208023436201207047026853690B43536100207047704770477047704770477047ED
S32508005C40704770477047704770472DE9F84F054603685C69D3F804809F68D3F80CB0D3F823
S32508005C6010A0D3F8189014F001063BD017F0010616D001229A6017F0020F08D117F0040FC1
S32508005C800CD117F0080606D04FF4805608E0FFF7D1FF002604E0FFF7D0FF01E04FF400660E
S32508005CA017F4807F0DD02B684FF480729A6017F4007F40F0868017F4806F00F0868046F443
S32508005CC0005617F4803F0DD02B684FF480329A6017F4003F40F0838017F4802F00F083800D
S32508005CE046F4004614F0080F07D01BF0100F04D046F400762B681022DA6014F0040F02D08E
S32508005D001BF0080F79D114F0020F04D02B68DB6813F0030F78D114F0400F07D01AF0100F99
S32508005D2004D046F480662B6810221A6114F0200F02D01AF0080F6BD114F0100F04D02B6835
S32508005D401B6913F0030F6AD114F4003F02D018F0100F68D114F4803F02D018F0080F69D1F6
S32508005D6014F4004F7AD018F0040F74D014F4807F04D019F0010F01D046F0010614F4007F8C
S32508005D8004D019F0020F01D046F0020614F4806F04D019F0040F01D046F0040614F4006F89
S32508005DA059D019F0700956D0B9F1400F65D058D8B9F1200F5ED0B9F1300F42D146F0200647
S32508005DC044E02846FFF737FF7BE717F4006F02D046F4804675E72846FFF730FF71E7284694
S32508005DE0FFF72AFF7EE717F4002F02D046F4803678E72846FFF723FF74E72B680822DA60DE
S32508005E002846FFF71DFF7EE7284608F009F882E72B6808221A612846FFF713FF8CE7284630
S32508005E2008F0F8FB90E72B6810225A602846FFF709FF8FE72B6808225A602846FFF703FFB4
S32508005E408EE7B9F1100F01D146F008062A68936923F0700393612B6804225A609EB9BDE869
S32508005E60F88FB9F1500F0BD0B9F1600FEED146F48076EBE746F01006E8E746F04006E5E76C
S32508005E8046F08006E2E76B6A33436B622846FFF7DBFEE4E7002808DB0901C9B200F160402E
S32508005EA000F5614080F80013704700F00F000901C9B2014B1954704714ED00E000B500F082
S32508005EC00700C0F1070CBCF1040F28BF4FF0040C031D062B0FD9C31E4FF0FF3E0EFA0CF059
S32508005EE021EA000199400EFA03FE22EA0E0241EA02005DF804FB0023EEE70000BFF34F8F81
S32508005F000549CA6802F4E062044B1343CB60BFF34F8F00BFFDE700BF00ED00E00400FA0529
S32508005F20074AD36823F4E0631B041B0C000200F4E060034343F0BF6343F40033D360704702
S32508005F4000ED00E010B50446054BD868C0F30220FFF7B4FF01462046FFF79CFF10BD00BF7F
S32508005F6000ED00E0002807DB00F01F02400901239340024A42F82030704700BF00E100E0DE
S32508005F8008B5FFF7BBFF00000138B0F1807F0BD24FF0E0235861054AF02182F823100020A8
S32508005FA0986107221A6170470120704700ED00E030B405682C6824F480242C60046863607E
S32508005FC08368402B05D0036899600368DA6030BC704703689A600368D960F8E710B40368C5
S32508005FE0D9B210390C4AA2FB014212090B4CA25CC2655F2909D923F47F7323F0030304332F
S325080060008365806D5DF8044B704723F47F7323F003038365F5E700BFABAAAAAA8C8D0108D2
S32508006020836A826992B9012B0AD0022B02D00BB100207047C36A13F0807F28D10020704798
S32508006040C36AB3F1C07F24D000207047B2F5005F09D0022B25D9032B25D1C36A13F0807FFA
S3250800606023D100207047032B03D8DFE803F01404140A00207047C36A13F0807F0DD100204A
S325080060807047C36AB3F1C07F09D000207047012070470120704701207047012070470120FA
S325080060A07047012070470020704701207047000070B50446FEF78CFF002C5BD005460223DE
S325080060C084F83530002384F834302268136823F00103136023681A6812F0010F0AD0FEF751
S325080060E077FF431B052BF5D920236365032084F8350070BD1A68204911406268A068024361
S32508006100E06802432069024360690243A0690243E0690243206A02430A43616A04291ED02A
S325080061201A602668756925F00705636A1D43042B07D1A36A1D43E36A1BB12046FFF770FFC5
S3250800614090B975612046FFF749FFE26D3F239340836000206065012384F83530C9E7E16A22
S32508006160206B01430A43DBE740236365012084F83500BEE70120BCE73F8010F038B50446D7
S32508006180856D90F8340001282BD0012084F8340094F83500C0B2012804D0002384F834301B
S325080061A0022038BD022084F83500002060652046FFF7FEFEE26D3F239340AB602268136816
S325080061C043F016031360236C23B12268136843F0080313602268136843F00103136000200A
S325080061E0DFE70220DDE770B50446866DFEF7F0FE94F83530DBB2022B06D080236365002391
S3250800620084F83430012070BD05462268136823F0160313602268536923F080035361236C34
S32508006220E3B12268136823F0080313602268136823F00103136023681B6813F0010F11D095
S32508006240FEF7C6FE431B052BF5D920236365032084F83500002384F83430D4E7A36C002B44
S32508006260DFD1E3E7E26D3F239340B360012384F83530002084F83400C5E790F83530DBB204
S32508006280022B03D08023436501207047052380F835300268136823F0010313600020704782
S325080062A0F0B583B0044600230193724B1D68724BA3FB0535AD0A876D3E68C26D08239340A2
S325080062C0334210D003681A6812F0040F0BD01A6822F004021A60C26D08239340BB60436D72
S325080062E043F001034365E26D01239340334209D02268526912F0800F04D0BB60636D43F055
S3250800630002036365E26D04239340334209D02268126812F0020F04D0BB60636D43F00403FB
S325080063206365E26D10239340334224D02268126812F0080F1FD0BB6023681A6812F4802FE0
S325080063400DD01B6813F4002F04D1236C9BB12046984710E0A36C73B1204698470BE01A68CF
S3250800636012F4807F03D11A6822F008021A60236C0BB120469847E26D20239340334255D08F
S325080063802268126812F0100F50D0BB6094F83530DBB2052B0ED023681A6812F4802F33D03E
S325080063A01B6813F4002F2AD1636C002B3ED0204698473BE02268136823F016031360226885
S325080063C0536923F080035361236CA3B12268136823F008031360E26D3F239340BB6001236D
S325080063E084F83530002384F83430236D002B3FD0204698473CE0A36C002BE7D1EBE7E36B6E
S32508006400A3B12046984711E01A6812F4807F09D11A6822F010021A60012384F8353000233B
S3250800642084F83430E36B0BB120469847636DFBB1636D13F0010F17D0052384F83530226846
S32508006440136823F001031360019B01330193AB4204D823681B6813F0010FF5D1012384F875
S325080064603530002384F83430E36C0BB12046984703B0F0BD98010020B5814E1B00230F2B41
S3250800648000F2E38070B582B065E085684FEA430E032404FA0EF425EA0405CC6804FA0EF413
S325080064A02C438460446824EA02044A68C2F300129A40224342605CE0DC08083450F8242079
S325080064C003F00705AD004FF00F0E0EFA05FE22EA0E0E0A69AA4042EA0E0240F824205CE022
S325080064E0062200E0002202FA0EF22A430234574D45F82420564A94686FEA0C0224EA0C057E
S325080065004E6816F4801F01D04CEA0405504CA560E46802EA04054E6816F4001F01D04CEA36
S3250800652004054B4CE560646802EA04054E6816F4003F01D04CEA0405454C65602468224054
S325080065404D6815F4803F01D04CEA0402404C226001330F2B77D801229A400C6804EA020C6B
S3250800656032EA0404F4D14C6804F00304013C012C8BD94A6802F00302032A09D0C4685D006F
S325080065800322AA4024EA02048A68AA402243C2604A6802F00302022A8ED004684FEA430E3E
S325080065A0032202FA0EF224EA02044A6802F0030202FA0EF2224302604A6812F4403FC7D05E
S325080065C000220192234A546C44F480445464526C02F480420192019A9C08A51C1B4A52F85F
S325080065E0255003F0030E4FEA8E0E0F2202FA0EF225EA0205184A90423FF474AF02F5806299
S32508006600904216D002F58062904214D002F58062904212D002F58062904210D002F5806234
S3250800662090420ED002F5806290423FF459AF072259E7012257E7022255E7032253E7042207
S3250800664051E705224FE702B070BD704700380140003C014000380240000002400369194288
S3250800666001D001207047002070470AB181617047090481617047436901EA030221EA0301E7
S3250800668041EA02418161704710B582B000230193194B1A6C42F080521A641B6C03F080537E
S325080066A00193019B154B01221A64FEF791FC0446134B5B6813F4803F08D1FEF789FC001B7A
S325080066C0B0F57A7FF4D9032002B010BD0B4B01225A64FEF77DFC0446094B5B6813F4003F53
S325080066E007D1FEF775FC001BB0F57A7FF4D90320EAE70020E8E700BF0038024000000E425C
S3250800670000700040002800F09B8070B50D4604464F4B1B6803F00F038B4208D2CBB24C4AEA
S325080067201370136803F00F038B4240F08B80236813F0020F17D013F0040F04D0454A936846
S3250800674043F4E0539360236813F0080F04D0414A936843F4604393603E4A936823F0F00379
S32508006760A1680B439360236813F0010F32D06368012B21D09A1E012A25D9364A126812F05C
S32508006780020F61D033498A6822F0030213438B60FEF71EFC06462F4B9B6803F00C0362683F
S325080067A0B3EB820F16D0FEF713FC801B41F288339842F0D9032042E0264A126812F4003F12
S325080067C0E0D101203BE0234A126812F0007FD9D1012034E01E4B1B6803F00F03AB4207D9B9
S325080067E0EAB21B4B1A701B6803F00F03AB422DD1236813F0040F06D0164A936823F4E05370
S32508006800E1680B439360236813F0080F07D0114A936823F46043216943EAC103936000F0F6
S3250800682065F80C4B9B68C3F303130B4AD35CD8400A4B18600A4B1868FEF77EFB002070BDCE
S32508006840012070470120FAE70120F8E70120F6E7003C024000380240E4A301089801002011
S3250800686004000020014B1868704700BF9801002008B5FFF7F7FF044B9B68C3F38223034A48
S32508006880D35CD84008BD00BF00380240DCA3010808B5FFF7E7FF044B9B68C3F34233034ABA
S325080068A0D35CD84008BD00BF00380240DCA301080F2303600B4B9A6802F0030242609A6875
S325080068C002F0F00282609A6802F4E052C2609B68DB0803F4E0530361034B1B6803F00F034E
S325080068E00B60704700380240003C024008B55E4B9B6803F00C03082B03D00C2B5BD05B48FA
S3250800690008BD594B5A6802F03F025B6813F4800F2CD0554B5868C0F388104FEA401CBCEBCF
S32508006920000C6EEB0E0E4FEA8E1343EA9C634FEA8C11B1EB0C0163EB0E03DB0043EA517318
S32508006940C90011EB000C43F10003990200234FEA8C2041EA9C51FEF7B5FA434B5B68C3F3BB
S32508006960014301335B00B0FBF3F0C9E73E4B5868C0F388104FEA401CBCEB000C6EEB0E0EA7
S325080069804FEA8E1343EA9C634FEA8C11B1EB0C0163EB0E03DB0043EA5173C90011EB000C68
S325080069A043F10003990200234FEA8C2041EA9C51FEF788FAD1E72C4B5A6802F03F025B6879
S325080069C013F4800F2AD0284B5868C0F388104FEA401CBCEB000C6EEB0E0E4FEA8E1343EAD7
S325080069E09C634FEA8C11B1EB0C0163EB0E03DB0043EA5173C90011EB000C43F1000399023D
S32508006A0000234FEA8C2041EA9C51FEF75BFA164B5B68C3F30273B0FBF3F071E7124B5868AC
S32508006A20C0F388104FEA401CBCEB000C6EEB0E0E4FEA8E1343EA9C634FEA8C11B1EB0C01BB
S32508006A4063EB0E03DB0043EA5173C90011EB000C43F10003990200234FEA8C2041EA9C513A
S32508006A60FEF730FAD3E700BF003802400024F400002800F0018270B582B00446036813F034
S32508006A80010F41D0994B9B6803F00C03042B32D0964B9B6803F00C03082B27D0934B9B68BC
S32508006AA003F00C030C2B59D06368B3F5803F5BD0B3F5A02F5ED08D4B1A6822F480321A60C8
S32508006AC01A6822F480221A606368002B5CD0FEF77FFA0546854B1B6813F4003F14D1FEF7A6
S32508006AE077FA401B6428F5D90320CCE17F4B5B6813F4800FD2D07D4B1B6813F4003F03D069
S32508006B006368002B00F0BA81236813F0020F60D0764B9B6813F00C0F4AD0744B9B6803F0C6
S32508006B200C03082B3FD0714B9B6803F00C030C2B69D0E368002B75D06D4B01221A60FEF7C0
S32508006B4047FA0546694B1B6813F0020F61D1FEF73FFA401B0228F5D9032094E1634B5B6894
S32508006B6013F4800FA0D0C6E7604A136843F480331360A9E75D4B1A6842F480221A601A6844
S32508006B8042F480321A609FE7FEF722FA0546574B1B6813F4003FB7D0FEF71AFA401B6428C1
S32508006BA0F5D903206FE1514B5B6813F4800FBAD14E4B1B6813F0020F03D0E368012B40F05C
S32508006BC05F814A4A136823F0F803216943EAC1031360236813F0080F49D06369002B33D004
S32508006BE0434B0122C3F8802EFEF7F2F905463F4B5B6F13F0020F3AD1FEF7EAF9401B022872
S32508006C00F5D903203FE1394B5B6813F4800F90D1CEE7364A136823F0F803216943EAC103DE
S32508006C201360D6E7324B00221A60FEF7D1F905462E4B1B6813F0020FCBD0FEF7C9F9401B36
S32508006C400228F5D903201EE1294B0022C3F8802EFEF7BEF90546254B5B6F13F0020F06D0F2
S32508006C60FEF7B6F9401B0228F5D903200BE1236813F0040F76D01D4B1B6C13F0805F33D144
S32508006C8000230193194B1A6C42F080521A641B6C03F080530193019B0125164B1B6813F435
S32508006CA0807F29D0A368012B3AD0052B3ED00F4B1A6F22F001021A671A6F22F004021A67B4
S32508006CC0A368002B3CD0FEF783F90646074B1B6F13F0020F45D1FEF77BF9801B41F28833AF
S32508006CE09842F3D90320CEE00025D6E70038024000004742007000406B4A136843F4807320
S32508006D001360FEF765F90646674B1B6813F4807FC8D1FEF75DF9801B0228F5D90320B2E0EC
S32508006D20624A136F43F001031367C9E75F4B1A6F42F004021A671A6F42F001021A67BFE7E5
S32508006D40FEF746F90646594B1B6F13F0020F08D0FEF73EF9801B41F288339842F3D903200D
S32508006D6091E0EDB9A369002B00F08C804F4A926802F00C02082A54D0022B17D04C4B002205
S32508006D801A66FEF725F90446484B1B6813F0007F45D0FEF71DF9001B0228F5D9032072E0C8
S32508006DA0424A136C23F080531364DBE7404B00221A66FEF70DF905463C4B1B6813F0007F9C
S32508006DC006D0FEF705F9401B0228F5D903205AE0E369226A1343626A43EA8213A26A52080A
S32508006DE0013A43EA0243E26A43EA0263226B43EA02732E4A53602E4B01221A66FEF7E8F8AF
S32508006E0004462A4B1B6813F0007F06D1FEF7E0F8001B0228F5D9032035E0002033E000205E
S32508006E2031E0012B31D0214B5B6803F48001E26991422CD103F03F02216A8A4229D1616AF4
S32508006E4047F6C0721A40B2EB811F24D103F44031A26A5208013AB1EB024F1ED103F070627F
S32508006E60E16AB2EB016F1AD103F0E043226BB3EB027F16D1002006E001207047012002E037
S32508006E80012000E0002002B070BD0120FBE70120F9E70120F7E70120F5E70120F3E70120C8
S32508006EA0F1E70120EFE700BF0070004000380240000047422DE9F04782B00546884617468E
S32508006EC01E46FEF785F80A9B1B1A03EB0609FEF77FF88246284B1B68C3F3CB3309FB03F31F
S32508006EE001932B689C6838EA04040CBF01230023BB423DD0B6F1FF3FF3D0FEF769F8A0EB8A
S32508006F000A00484507D2019A02B14A46019B013B01939146E5E72A68536823F0E003536010
S32508006F206B68B3F5827F0BD0AB6AB3F5005F14D0012385F85130002385F85030032018E08F
S32508006F40AB68B3F5004F02D0B3F5806FECD12A68136823F040031360E6E72A68136823F42C
S32508006F60005313602A68136843F400531360DFE7002002B0BDE8F0879801002010B584B0CD
S32508006F800446164B1868164BA3FB0030400D4FF47A7303FB00F003906368B3F5827F0BD03C
S32508006FA0039BBBB1039B013B039323689B6813F0800FF5D100200EE000920B4600228021AF
S32508006FC02046FFF777FF30B1636D43F020036365032000E0002004B010BD00BF98010020E6
S32508006FE0819F5E1610B582B004460B464168B1F5827F14D06168B1F5827F2AD1A168B1F50F
S32508007000806F19D00092002280212046FFF752FF30B3636D43F020036365032020E08168AB
S32508007020B1F5004F02D0B1F5806FE3D12068016821F040010160DDE700920022012120468E
S32508007040FFF738FF60B1636D43F020036365032006E00092002201212046FFF72BFF08B9D0
S3250800706002B010BD636D43F0200363650320F7E700285AD010B50446436A33B94368B3F547
S32508007080827F05D00023C36102E00023036143610023A36294F85130002B40D0022384F8A7
S325080070A051302268136823F040031360636803F48273A26802F404421343E26802F400627E
S325080070C01343226902F002021343626902F001021343A26902F400721343E26902F038021F
S325080070E01343226A02F080021343A26A02F40052216813430B60638B03F00403626A02F092
S325080071001002216813434B602268D36923F40063D36100206065012384F8513010BD84F802
S325080071205030204607F0D6FCB8E7012070472DE9F04383B01D4690F85030012B00F0D180C7
S32508007140044688469146012380F85030FDF740FF074694F85160F6B2012E40F0AF80B8F17A
S32508007160000F00F0AC80B9F1000F00F0A880032384F8513000236365C4F83080A4F834902B
S32508007180A4F83690A363A387E38763642364A368B3F5004F1ED023681A6812F0400F03D175
S325080071A01A6842F040021A60E368B3F5006F1CD0636813B1B9F1010F52D1226B23681278F5
S325080071C01A73236B01332363E38E9BB2013B9BB2E38645E02268136823F04003136022689F
S325080071E0136843F480431360D5E7636813B1B9F1010F16D1226B23681288DA60236B0233FE
S325080072002363E38E9BB2013B9BB2E38609E0FDF7DFFEC01BA84202D3B5F1FF3F59D1002D9B
S3250800722059D0E38E9BB2002B33D023689A6812F0020FECD0226B1288DA60236B0233236325
S32508007240E38E9BB2013B9BB2E386EAE7FDF7C0FEC01BA84202D3B5F1FF3F3ED1002D3ED025
S32508007260E38E9BB2ABB123689A6812F0020FEDD0226B12781A73236B01332363B4F836C0FB
S325080072801FFA8CFC0CF1FF3C1FFA8CFCA4F836C0E6E73A4629462046FFF770FE08B1202352
S325080072A06365A36833B901932368DA6801929B680193019B636D13B9002600E002260123EC
S325080072C084F85130002384F85030304603B0BDE8F0830326F3E70326F1E70326EFE7032617
S325080072E0EDE70226F1E72DE9F04383B01F460A9D90F85030012B00F0108104468846914680
S32508007300012380F85030FDF763FE064694F85130DBB26268012B0AD0B2F5827F40F0E380FD
S32508007320A268002A40F0E980042B40F0E880B8F1000F00F0E680B9F1000F00F0E480002F61
S3250800734000F0E38094F85130DBB2042B02D0052384F8513000236365C4F83890E787A78701
S32508007360C4F83080E786A7862364636423681A6812F0400F03D11A6842F040021A60E368BE
S32508007380B3F5006F11D063680BB1012F0BD1226B236812781A73236B01332363E38E9BB21F
S325080073A0013B9BB2E38601276BE063680BB1012F0BD1226B23681288DA60236B0233236392
S325080073C0E38E9BB2013B9BB2E38601271CE023689A6812F0010F0ED0E28F92B25AB1DA684C
S325080073E0A36B1A80A36B0233A363E38F9BB2013B9BB2E3870127FDF7EBFD801BA84203D37D
S32508007400B5F1FF3F40F08380E38E9BB21BB9E38F9BB2002B53D023689A6812F0020FD6D062
S32508007420E28E92B2002AD2D0002FD0D0226B1288DA60236B02332363E38E9BB2013B9BB2FE
S32508007440E3860027C3E723689A6812F0010F0ED0E28F92B25AB1DA68A36B1A70A36B01338B
S32508007460A363E38F9BB2013B9BB2E3870127FDF7AFFD831BAB4202D3B5F1FF3F49D1002DF3
S3250800748049D0E38E9BB213B9E38F9BB2BBB123689A6812F0020FD6D0E28E92B2002AD2D04A
S325080074A0002FD0D0226B12781A73236B01332363E38E9BB2013B9BB2E3860027C3E732460A
S325080074C029462046FFF75AFD48B9A36863B901932368DA6801929B680193019B04E0202306
S325080074E06365012000E00220012384F85130002384F8503003B0BDE8F0830220F4E7022069
S32508007500F2E70120F0E70120EEE70120ECE70320EAE70320E8E70320E6E70220EAE72DE9C3
S32508007520F04383B00446884691461D464068B0F5827F38D094F85030012B00F0AE800123B5
S3250800754084F85030FDF744FD074694F85160F6B2012E40F08F80B8F1000F00F08C80B9F1EE
S32508007560000F00F08880042384F8513000236365C4F83880A4F83C90A4F83E902363A386F2
S32508007580E38623646364A368B3F5004F19D023681A6812F0400F03D11A6842F040021A6099
S325080075A0E3681BB341E0A368002BC3D1042384F85130009513460A462046FFF794FE06461D
S325080075C05FE02268136823F0400313602268136823F480431360DAE7FDF7FAFCC01BA842CE
S325080075E002D3B5F1FF3F50D1002D50D0E38F9BB2002B33D023689A6812F0010FECD0A26B01
S325080076001B7B1370A36B0133A363E38F9BB2013B9BB2E387EAE7FDF7DBFCC01BA84202D313
S32508007620B5F1FF3F35D1002D35D0E38F9BB2ABB123689A6812F0010FEDD0DA68A36B1A80BF
S32508007640A36B0233A363B4F83EC01FFA8CFC0CF1FF3C1FFA8CFCA4F83EC0E6E73A46294659
S325080076602046FFF7BFFC08B120236365636D13B9002600E00226012384F85130002384F897
S325080076805030304603B0BDE8F0830326F3E70326F1E70326EFE70326EDE70226F1E700001B
S325080076A030B4036A23F001030362036A4268846924F0730C0C6844EA0C0423F0020C8B6892
S325080076C043EA0C03114DA84203D005F58065A84205D123F00803CD682B4323F004030B4D73
S325080076E0A84203D005F58065A84207D122F440724D6945EA020C8A6942EA0C0242608461AF
S325080077004A684263036230BC704700BF0000014030B4036A23F480730362036A4268C469F8
S3250800772024F0730C0C6844EA0C0523F400738C6843EA0423114CA04203D004F58064A04252
S3250800774006D123F40063CC6843EA042323F480630A4CA04203D004F58064A04207D122F490
S3250800776040524C6942EA04128C6942EA04124260C5614A68C263036230BC70470000014053
S3250800778030B4036A23F480530362036A4468C26922F4E6420D6842EA052223F400538D6892
S325080077A043EA0533094DA84203D005F58065A84204D124F480444D6944EA85144460C26185
S325080077C04A680264036230BC704700BF0000014010B4036A046A24F001040462846924F05C
S325080077E0F00C4CEA021223F00A030B43826103625DF8044B704730B4046A24F01004046244
S325080078008469056A24F4407C4CEA022C2CF4704C1B039BB243EA0C0325F0A005090101F08E
S32508007820A00129438361016230BC704710B4036A23F0100303628469036A24F4704C4CEA23
S32508007840023223F0A00343EA0113826103625DF8044B704730B4046A24F480740462C4695B
S32508007860056A24F0030C4CEA020C2CF0F00C1B01DBB243EA0C0325F42065090201F4206108
S325080078802943C361016230BC704730B4046A24F480540462C469056A24F4407C4CEA022CCC
S325080078A02CF4704C1B039BB243EA0C0325F42045090301F420412943C361016230BC7047C1
S325080078C0836823F070030B4343F007038360704790F83D30DBB2012B37D1022380F83D3044
S325080078E00268D36843F00103D3600368194A934220D0B3F1804F1DD0A2F57C42934219D065
S3250800790002F58062934215D002F58062934211D002F5784293420DD002F57052934209D06D
S32508007920A2F59432934205D01A6842F001021A60002070479A6802F00702062A07D01A68A4
S3250800794042F001021A6000207047012070470020704700BF000001400268D36823F0010328
S32508007960D3600368196A41F21112114208D1196A40F24442114203D11A6822F001021A60E3
S32508007980012380F83D30002070477047704770470C2914D8DFE801F0071313130A13131378
S325080079A00D13131310000368586B70470368986B70470368D86B70470368186C704700202E
S325080079C07047704710B5044603681A6912F0020F11D0DA6812F0020F0DD06FF002021A612A
S325080079E00123037703689B6913F0030F70D004F0E3FD0023237723681A6912F0040F12D081
S32508007A00DA6812F0040F0ED06FF004021A610223237723689B6913F4407F5FD0204604F0A6
S32508007A20CBFD0023237723681A6912F0080F12D0DA6812F0080F0ED06FF008021A61042366
S32508007A4023772368DB6913F0030F4ED0204604F0B3FD0023237723681A6912F0100F12D0A4
S32508007A60DA6812F0100F0ED06FF010021A61082323772368DB6913F4407F3DD0204604F00A
S32508007A809BFD0023237723681A6912F0010F03D0DA6812F0010F36D123681A6912F0800F96
S32508007AA003D0DA6812F0800F34D123681A6912F0400F03D0DA6812F0400F32D123681A6937
S32508007AC012F0200F03D0DA6812F0200F30D110BD07F09EFD204607F0B9FD8AE7204607F0E0
S32508007AE097FD204607F0B2FD9BE7204607F090FD204607F0ABFDACE7204607F089FD20468B
S32508007B0007F0A4FDBDE76FF001021A61204607F0A9FDC1E76FF080021A61204600F0AAFE39
S32508007B20C3E76FF040021A612046FFF74AFFC5E76FF020021A61204600F09BFEC7E7000087
S32508007B400368304A904212D0B0F1804F0FD0A2F57C4290420BD002F58062904207D002F5B4
S32508007B608062904203D002F57842904203D123F070034A681343234A90422AD0B0F1804FE2
S32508007B8027D0A2F57C42904223D002F5806290421FD002F5806290421BD002F57842904213
S32508007BA017D002F57052904213D002F5806290420FD002F5806290420BD0A2F5983290421F
S32508007BC007D002F58062904203D002F58062904203D123F44073CA68134323F080034A6928
S32508007BE0134303608B68C3620B688362054B984203D003F58063984201D10B6903630123CC
S32508007C00436170470000014040B310B5044690F83D30F3B1022384F83D30214651F8040B52
S32508007C20FFF78EFF012384F8463084F83E3084F83F3084F8403084F8413084F8423084F885
S32508007C40433084F8443084F8453084F83D30002010BD80F83C3007F019FBDBE70120704763
S32508007C6040B310B5044690F83D30F3B1022384F83D30214651F8040BFFF762FF012384F897
S32508007C80463084F83E3084F83F3084F8403084F8413084F8423084F8433084F8443084F869
S32508007CA0453084F83D30002010BD80F83C30FFF76CFEDBE70120704740B310B5044690F803
S32508007CC03D30F3B1022384F83D30214651F8040BFFF736FF012384F8463084F83E3084F811
S32508007CE03F3084F8403084F8413084F8423084F8433084F8443084F8453084F83D30002067
S32508007D0010BD80F83C30FFF741FEDBE70120704740B310B5044690F83D30F3B1022384F899
S32508007D203D30214651F8040BFFF70AFF012384F8463084F83E3084F83F3084F8403084F8B7
S32508007D40413084F8423084F8433084F8443084F8453084F83D30002010BD80F83C30FFF736
S32508007D6016FEDBE70120704730B4036A23F010030362036A4468826922F4E6420D6842EA88
S32508007D80052223F020038D6843EA0513114DA84203D005F58065A84206D123F08003CD68B8
S32508007DA043EA051323F040030A4DA84203D005F58065A84207D124F440644D6944EA85043C
S32508007DC08D6944EA8504446082614A688263036230BC70470000014090F83C30012B28D069
S32508007DE010B50446012380F83C300C2A1CD8DFE802F0071B1B1B0C1B1B1B111B1B1B16004E
S32508007E000068FFF74DFC00200FE00068FFF7ACFF00200AE00068FFF77BFC002005E0006849
S32508007E20FFF7AEFC002000E00120002384F83C3010BD0220704738B590F83C30012B66D07F
S32508007E4004460D46012380F83C300C2A5AD8DFE802F0075959591B59595930595959440097
S32508007E600068FFF71DFC2268936943F0080393612268936923F00403936122689369296919
S32508007E800B43936100203EE00068FFF76DFF2268936943F4006393612268936923F48063F6
S32508007EA0936122689369296943EA01239361002029E00068FFF72CFC2268D36943F00803B0
S32508007EC0D3612268D36923F00403D3612268D36929690B43D361002015E00068FFF750FCB3
S32508007EE02268D36943F40063D3612268D36923F48063D3612268D369296943EA0123D3610F
S32508007F00002000E00120002384F83C3038BD0220FCE7000070B49446046A24F00104046242
S32508007F208469066A184DA8421CD0B0F1804F19D0164A904216D002F58062904212D002F5A6
S32508007F40806290420ED002F5784290420AD002F57052904206D0A2F59432904202D044F08E
S32508007F60010203E024F0030242EA0C0222F0F0021B01DBB2134326F00A0201F00A01114345
S32508007F808361016270BC7047000001400004004038B590F83C30012B5AD004460D4601232C
S32508007FA080F83C3052B1042A1AD0082A2BD00C2A3BD00120002384F83C3038BDCB684A6840
S32508007FC009680068FFF7A6FF2268936923F00C03936122689369A9680B4393610020E9E7BA
S32508007FE0CB684A6809680068FFF705FC2268936923F44063936122689369A96843EA0123A2
S3250800800093610020D6E7CB684A6809680068FFF721FC2268D36923F00C03D3612268D369CE
S32508008020A9680B43D3610020C4E7CB684A6809680068FFF72AFC2268D36923F44063D36146
S325080080402268D369A96843EA0123D3610020B1E70220B2E710B4846824F47F4C42EA03225F
S325080080600A4342EA0C0282605DF8044B704790F83C30012B78D010B50446012380F83C30AF
S32508008080022380F83D300268936823F47F4323F0770393600B68602B4CD029D8402B54D060
S325080080A00CD9502B22D1CA6849680068FFF790FB50212068FFF704FC002005E0202B0DD077
S325080080C009D9302B0AD00120012384F83D30002384F83C3010BD0BB1102B05D119462068C1
S325080080E0FFF7EEFB0020EFE70120EDE70120EBE7B3F5805F34D0B3F5005F0CD1CB684A6861
S3250800810089680068FFF7A6FF2268936843F4804393600020D8E7702B24D1CB684A688968A6
S325080081200068FFF797FF2268936843F0770393600020C9E7CA6849680068FFF777FB602114
S325080081402068FFF7BDFB0020BEE7CA6849680068FFF73EFB40212068FFF7B2FB0020B3E756
S325080081600020B1E70120AFE70220704701F01F014FF0010C0CFA01FC036A23EA0C0303625B
S32508008180036A8A40134303627047000010B504460846002948D194F83E30DBB2013B18BFEF
S325080081A00123002B40F0A380002856D1022384F83E302268D36843F00203D3600122014617
S325080081C02068FFF7D3FF23684C4A934203D002F58062934203D15A6C42F400425A6423686F
S325080081E0464A934278D0B3F1804F75D0A2F57C42934271D002F5806293426DD002F58062DD
S32508008200934269D002F57842934265D002F57052934261D0A2F5943293425DD01A6842F0B5
S3250800822001021A60002061E0042908D008290DD094F84130DBB2013B18BF0123B1E794F85A
S325080082403F30DBB2013B18BF0123AAE794F84030DBB2013B18BF0123A3E7042824D00828B2
S325080082602BD0022384F841300C2842D801A353F820F000BFB3810008F3820008F3820008A1
S32508008280F3820008AF820008F3820008F3820008F3820008C1820008F3820008F38200085E
S325080082A0F3820008CD820008022384F83F302268D36843F00403D36080E7022384F8403022
S325080082C02268D36843F00803D36077E72268D36843F01003D36071E79A6802F00702062A39
S325080082E009D01A6842F001021A60002010BD0120FCE70120FAE70020F8E700BF0000014074
S3250800830038B505460C460C2963D8DFE801F0076262622E626262346262623A000268D368E3
S3250800832023F00203D360002221462868FFF71EFF2B68294A93422AD002F58062934226D03F
S325080083402B68196A41F21112114208D1196A40F24442114203D11A6822F001021A602CBB1D
S32508008360012385F83E30002034E00268D36823F00403D360D7E70268D36823F00803D36006
S32508008380D1E70268D36823F01003D360CBE7196A41F211121142D3D1196A40F24442114209
S325080083A0CED15A6C22F400425A64C9E7042C06D0082C09D0012385F8413000200AE0012331
S325080083C085F83F30002005E0012385F84030002000E0012038BD00BF0000014010B5044668
S325080083E00846002948D194F83E30DBB2013B18BF0123002B40F0A380002856D1022384F8B3
S325080084003E302268D36843F00203D360012201462068FFF7ABFE23684C4A934203D002F55F
S325080084208062934203D15A6C42F400425A642368464A934278D0B3F1804F75D0A2F57C4262
S32508008440934271D002F5806293426DD002F58062934269D002F57842934265D002F57052B2
S32508008460934261D0A2F5943293425DD01A6842F001021A60002061E0042908D008290DD0E4
S3250800848094F84130DBB2013B18BF0123B1E794F83F30DBB2013B18BF0123AAE794F8403029
S325080084A0DBB2013B18BF0123A3E7042824D008282BD0022384F841300C2842D801A353F8C6
S325080084C020F000BF03840008438500084385000843850008FF840008438500084385000895
S325080084E043850008118500084385000843850008438500081D850008022384F83F3022684C
S32508008500D36843F00403D36080E7022384F840302268D36843F00803D36077E72268D368D4
S3250800852043F01003D36071E79A6802F00702062A09D01A6842F001021A60002010BD012017
S32508008540FCE70120FAE70020F8E700BF0000014038B505460C460C2963D8DFE801F007620E
S3250800856062622E626262346262623A000268D36823F00203D360002221462868FFF7F6FD4F
S325080085802B68294A93422AD002F58062934226D02B68196A41F21112114208D1196A40F207
S325080085A04442114203D11A6822F001021A602CBB012385F83E30002034E00268D36823F00D
S325080085C00403D360D7E70268D36823F00803D360D1E70268D36823F01003D360CBE7196AB4
S325080085E041F211121142D3D1196A40F244421142CED15A6C22F400425A64C9E7042C06D061
S32508008600082C09D0012385F8413000200AE0012385F83F30002005E0012385F840300020DD
S3250800862000E0012038BD00BF0000014010B504460B46F1B990F83E00C0B253BB94F84220F8
S32508008640D2B2012840F09E80012A40F09C8083BB022184F83E1084F842100C2B00F2948064
S32508008660DFE803F07992929241929292739292927F00042905D0082907D090F84100C0B21F
S32508008680DBE790F83F00C0B2D7E790F84000C0B2D3E7042B05D0082B07D094F84520D2B29C
S325080086A0CFE794F84320D2B2CBE794F84420D2B2C7E7042B0CD0082B0ED0022184F84110A3
S325080086C0042B0DD0082B3DD0022184F84510C4E7022184F83F10F3E7022184F84010EFE714
S325080086E0022284F843202168CA6842F00402CA60012219462068FFF739FD2368244A934248
S3250800870035D0B3F1804F32D0A2F57C4293422ED002F5806293422AD002F58062934226D05D
S3250800872002F57842934222D002F5705293421ED0A2F5943293421AD01A6842F001021A60EA
S32508008740002020E0022284F844202168CA6842F00802CA60CCE72168CA6842F00202CA60F8
S32508008760C6E72168CA6842F01002CA60C0E79A6802F00702062A09D01A6842F001021A6037
S32508008780002000E0012010BD1046FCE70020FAE70000014090F83C20012A3DD010B4034639
S325080087A0012280F83C20022280F83D2002685068946820F0700C086840EA0C0050601A6839
S325080087C0164882421AD0B2F1804F17D0A0F57C40824213D000F5806082420FD000F58060E1
S325080087E082420BD000F57840824207D000F57050824203D0A0F59430824204D124F08004AE
S32508008800496821439160012283F83D20002083F83C005DF8044B70470220704700000140FD
S32508008820024690F83C30012B21D0012380F83C30CB6823F440738868034323F480634868EC
S32508008840034323F400630868034323F480530869034323F400534869034323F48043C96986
S325080088600B4311684B64002082F83C0070470220704770477047026802F10C0353E8003FBA
S3250800888023F490730C3242E800310029F3D1026802F1140353E8003F23F00103143242E8B5
S325080088A000310029F3D1036B012B05D0202380F83E30002303637047026802F10C0353E80D
S325080088C0003F23F010030C3242E800310029F3D1ECE790F83D30DBB2212B01D00220704754
S325080088E08368B3F5805F17D0036A5A1C02621A7803685A60C38C9BB2013B9BB2C3844BB9A3
S325080089000268D36823F08003D3600268D36843F04003D360002070470369002BE4D1036AFD
S325080089201B880268C3F308035360036A02330362E0E7000010B504460268136923F440533B
S32508008940C1680B431361836802691A4343691A43C3691A430168CB6823F4164323F00C03AB
S325080089601343CB600268536923F4407381690B4353610368314A934206D002F5806293424D
S3250800898002D0FDF775FF01E0FDF782FFE369B3F5004F29D00021031849411B1841F10001D1
S325080089A0C90041EA5371DB00181863684FEA83024FEA937341F10001FCF784FA204AA2FB73
S325080089C000314909642303FB11031B013233A2FB03235B0903F0F00202EB011203F00F03DB
S325080089E0216813448B6010BD0023021843EB0301121841F10001C90041EA5271D200101854
S32508008A0041F10001626892185B41FCF75BFA0C4AA2FB00314909642303FB1103DB0032336E
S32508008A20A2FB03235B095A0002F4F87202EB011203F00703216813448B60D4E70010014073
S32508008A401F85EB512DE9F84305460F4616469946DDF820802B681C6837EA04040CBF012457
S32508008A600024B4422DD1B8F1FF3FF3D0B8F1000F05D0FCF7ADFAA0EB09004045EAD92A6891
S32508008A8002F10C0353E8003F23F4D0730C3242E800310029F3D12A6802F1140353E8003F56
S32508008AA023F00103143242E800310029F3D1202385F83D3085F83E30002385F83C300320BC
S32508008AC000E00020BDE8F88358B310B5044690F83D300BB3242384F83D302268D36823F48F
S32508008AE00053D3602046FFF725FF2268136923F4904313612268536923F02A03536122683A
S32508008B00D36843F40053D36000202064202384F83D3084F83E3010BD80F83C3006F0D2FD1F
S32508008B20D8E7012070472DE9F04182B01E4690F83D30DBB2202B54D104460D469046002925
S32508008B4053D0002A53D090F83C30012B51D0012380F83C3000230364212380F83D30FCF7A8
S32508008B6037FA0746A4F82480A4F82680A368B3F5805F05D04FF00008002384F83C3012E03C
S32508008B80236913B14FF00008F6E7A8460025F3E738F8023B2268C3F308035360E28C92B249
S32508008BA0013A92B2E284E38C9BB273B100963B46002280212046FFF745FFE0B9002DE7D0EB
S32508008BC015F8012B23685A60E8E700963B46002240212046FFF736FF78B9202384F83D30B2
S32508008BE000E0022002B0BDE8F0810120FAE70120F8E70220F6E70320F4E70320F2E790F81A
S32508008C003D30DBB2202B19D1D1B1DAB190F83C30012B19D0012380F83C3001628284C2844A
S32508008C2000230364212280F83D2080F83C300168CA6842F08002CA60184670470220704739
S32508008C40012070470120704702207047704708B50168CA6822F04002CA60202280F83D20D9
S32508008C60FFF7F4FF002008BD08B5806B0023C385C38406F06FFD08BD704790F83E30DBB25D
S32508008C80222B67D18368B3F5805F4DD0826AB3F5805F04D0002B54D10369002B51D10368F7
S32508008CA05B681370836A01338362C38D9BB2013B9BB2C385002B4FD100B583B00268D36814
S32508008CC023F02003D3600268D36823F48073D3600268536923F001035361202380F83E3021
S32508008CE0036B012B33D100230363026802F10C0353E8003F23F010030C3242E80031002971
S32508008D00F3D103681A6812F0100F06D0002201921A6801925B680193019B818DFFF7ACFF31
S32508008D20002003B05DF804FB0269002AAED1826A03685B68C3F308031380836A0233836275
S32508008D40B3E703685B6803F07F031370AAE706F0F9FCE5E7022070470020704710B582B056
S32508008D60044602681368D068516913F00F0F09D113F0200F0CD010F0200F09D02046FFF757
S32508008D807CFF16E011F0010115D110F4907F12D1216B012979D013F0800F03D010F0800F82
S32508008DA040F0108113F0400F03D010F0400F40F00D8102B010BD13F0010F06D010F4807F47
S32508008DC003D0226C42F00102226413F0040F04D019B1226C42F00202226413F0020F04D083
S32508008DE019B1226C42F00402226413F0080F07D010F0200F00D119B1226C42F00802226444
S32508008E00226C002AD5D013F0200F02D010F0200F29D123685B6903F04003226C12F0080F8E
S32508008E2000D163B32046FFF726FD23685B6913F0400F20D0226802F1140353E8003F23F00C
S32508008E404003143242E800310029F3D1A36B73B1604A1A65A06BFDF710FA0028A9D0A06B23
S32508008E60036D9847A5E72046FFF707FFD1E7204606F070FC9DE7204606F06CFC99E72046F9
S32508008E8006F068FC0023236493E713F0100F82D010F0100F3FF47FAF00230193136801938C
S32508008EA053680193019B536913F0400F50D0A26B13685B689BB2002B3FF47BAFA18D994262
S32508008EC07FF677AFE385D369B3F5807F37D0226802F10C0353E8003F23F480730C3242E81F
S32508008EE000310029F3D1226802F1140353E8003F23F00103143242E800310029F3D1226809
S32508008F0002F1140353E8003F23F04003143242E800310029F3D1202384F83E300023236305
S32508008F20226802F10C0353E8003F23F010030C3242E800310029F3D1A06BFDF754F9A18DF7
S32508008F40E38D9BB2C91A89B22046FFF795FE30E7A18DE38D9BB2C91A89B2E38D9BB2002B31
S32508008F603FF427AF00293FF424AF226802F10C0353E8003F23F490730C3242E800300028CB
S32508008F80F3D1226802F1140353E8003F23F00103143242E800300028F3D1202384F83E3021
S32508008FA000232363226802F10C0353E8003F23F010030C3242E800300028F3D12046FFF7EE
S32508008FC05BFEF6E62046FFF784FCF2E62046FFF73EFEEEE6698C000881628285C2850023DD
S32508008FE00364222280F83E2080F83C30036923B10268D36843F48073D3600268536943F063
S32508009000010353610268D36843F02003D3600020704708B590F83E30DBB2202B0DD171B1FA
S325080090207AB190F83C30012B0DD0012380F83C3000230363FFF7D0FF00E0022008BD0120BC
S32508009040FCE70120FAE70220F8E7000000B585B0002300930193029303932C482C4A026071
S325080090604FF480324260836001220261037680F82030C36202F170628262C3600522C26166
S3250800908080F830304361FCF757F868BB0123009301930723029369461C48FCF735FA30BBB7
S325080090A002230093019369461848FCF72DFA08BB03230093019369461448FCF725FAE0B967
S325080090C004230093019369461048FCF71DFAB8B9082300930523019369460C48FCF714FA34
S325080090E088B905B05DF804FB03F066FBCEE703F063FBD5E703F060FBDAE703F05DFBDFE7E2
S3250800910003F05AFBE4E703F057FBEAE7340500200020014000B585B0002300930193029395
S3250800912003931548154A02604FF480324260836003610122027680F82030C36210498162CB
S32508009140C360C26180F830204261FBF7F5FF68B90D23009301230193072302936946064812
S32508009160FCF7D2F928B905B05DF804FB03F024FBEEE703F021FBF6E7EC04002000210140F4
S325080091800100000F00B585B0002300930193029303931548154A02604FF4803242608360BA
S325080091A003610122027680F82030C36210498162C360C26180F830204261FBF7BDFF68B9F9
S325080091C00C230093012301930723029369460648FCF79AF928B905B05DF804FB03F0ECFA02
S325080091E0EEE703F0E9FAF6E7A4040020002201400100000F70B58CB004460023079308939B
S3250800920009930A930B930368764A934208D0764A93425BD0754A934200F09E800CB070BD46
S3250800922000250095724B5A6C42F480725A645A6C02F480720092009A01951A6B42F00102D3
S325080092401A631A6B02F001020192019A02951A6B42F002021A631B6B03F002030293029B5C
S325080092601F2307930326089607A96248FDF706F9012307930896099507A95F48FDF7FEF8B5
S325080092805E485F4B036045608560C5604FF4806303614FF4006343614FF4005383614FF4CD
S325080092A08073C36105624562FCF702FF58B9534BA3639C63002211461220FCF743FE1220C2
S325080092C0FCF750FEAAE703F077FAF0E700250395474B5A6C42F400725A645A6C02F40072CA
S325080092E00392039A04951A6B42F004021A631B6B03F004030493049B08230793032308931F
S3250800930007A94048FDF7BAF83F48404B03604FF0007343608560C5604FF4806303614FF4C0
S32508009320006343614FF4005383614FF48073C36105624562FCF7BCFE58B9334BA3639C63F5
S32508009340002211461220FCF7FDFD1220FCF70AFE64E703F031FAF0E700250595244B5A6C06
S3250800936042F480625A645A6C02F480620592059A06951A6B42F004021A631B6B03F00403E0
S325080093800693069B042307930323089307A91D48FDF774F81E481F4B03604FF08063436096
S325080093A08560C5604FF4806303614FF4006343614FF4005383614FF48073C36105624562DF
S325080093C0FCF776FE58B9124BA3639C63002211461220FCF7B7FD1220FCF7C4FD1EE703F075
S325080093E0EBF9F0E70020014000210140002201400038024000000240000402404404002014
S325080094007064024000080240E403002040640240840300202864024008B50268034B1B6884
S325080094209A4200D008BD02F011FBFBE73405002008B5024801F0F2FE008808BD800500209A
S3250800944030B583B0B0F5FA7F28BF4FF4FA700546084C204601F0E2FE0388ADF80430ADF855
S32508009460045001A9204601F0DBFE204601F078FE03B030BD80050020024B1878003818BFB2
S32508009480012070477D050020012303FA00F040B2044A137823EA00031370084040B2034355
S325080094A0137070477D050020014B1878704700BF7C05002000B583B00023074A1370074A9F
S325080094C0137002230093064B01221146054801F0B1FE03B05DF804FB7D0500207C05002041
S325080094E0080000208005002010B51521064801F0BFF9064C0123237040F2022004F00CFC46
S325080095000023237010BD00BF948D01087C05002008B5044B00221A7040F2022004F0FCFB39
S3250800952008BD00BF7C0500200120704708B502F041F908B1082008BD0449054802F07AFB90
S3250800954008B10120F7E70820F5E700BFDFF90300DFFF0F0038B50C46044D01462846FEF780
S32508009560CFFE2B68E4431C6138BD00BFD01E002008B502210020FFF7EDFF04210846FFF7CC
S32508009580E9FF08210846FFF7E5FF0023034A1370034A1370034A137008BD00BFAA0500209E
S325080095A0A9050020A8050020F8B52DED028B0C4608EE102A404B1B685E6A054640B30428EC
S325080095C042D008285CD03C4F384609F08DFE3A68936A0133B0FBF3F007EE900AF8EE677ACB
S325080095E0B8EE488A28EE278A9FED347AC8EE077AFCEEE77A17EE903A334413642E480368C4
S32508009600E4431C612946FEF7C1FDBDEC028BF8BD294F384609F068FE3A68936A0133B0FBB8
S32508009620F3F007EE900AF8EE677AB8EE488A28EE278A9FED227AC8EE077AFCEEE77A17EEF5
S32508009640903A33445363D9E71B4F384609F04CFE3A68936A0133B0FBF3F007EE900AF8EE44
S32508009660677AB8EE488A28EE278A9FED147AC8EE077AFCEEE77A17EE903A33449363BDE740
S325080096800D4F384609F030FE3A68936A0133B0FBF3F007EE900AF8EE677AB8EE488A28EE76
S325080096A0278A9FED067AC8EE077AFCEEE77A17EE903A3344D363A1E7D01E002000007A448D
S325080096C0064B1B782BB1054B5B78032B03D000207047002070470120704700BF0C00002027
S325080096E008B502F067F858B9FFF7EAFF08B9082007E00549054802F09DFA18B9082000E091
S32508009700022008BD0320FCE7DFF90300DFFF0F00064B1B782BB1054B5B78012B03D0002084
S325080097207047002070470120704700BF0C00002008B502F03FF870B9FFF7EAFF68B9094B67
S325080097401B780BB1012007E00749084802F072FA28B9082000E0022008BD0120FCE70420AE
S32508009760FAE700BFAA0500205FFD0300DFFF0F0008B502F01FF820BBFFF7CAFF10B9134B99
S325080097801B7893B1114B1B7823B9FFF7C1FF30B9012008BD11210E4801F06AF8F5E71021AC
S325080097A00C4801F065F80120F3E70B490B4802F041FA08B90820ECE703F0EEFB18B9082099
S325080097C0E7E70220E5E70520E3E700BFA9050020AC8D0108C08D01081FE50300DFFF0F00B7
S325080097E008B501F0E7FFB8B9FFF792FF10B90C4B1B7853B10A4B1B780BB9012008BD0C2159
S32508009800084801F035F80120F8E70749074802F011FA18B90820F1E70220EFE70620EDE76D
S32508009820A8050020D48D01081FE60300DFFF0F0000B5BDB001F0BEFF30B9FFF769FF60B1C6
S3250800984001203DB05DF804FB684601F0C7FF0C21064801F00DF80220F3E70549054802F039
S32508009860E9F908B90120ECE70820EAE7E48D01081FE60300DFF70F00F8B504460E46114B3C
S325080098801F78114B53F8203008469847054617B10C4B00221A70082D11D0C4EBC4042C44EC
S325080098A00A4B53F8244044B140F2013003F054FD542003F051FD3046A0472846F8BD25465A
S325080098C0EBE700BF0C000020E88F0108248F0108014B1878704700BF3C06002070B588B070
S325080098E0264B1C781E22002168460BF0A6FCC823ADF800300021012310E05A1CD2B208A80A
S3250800990000EB430CC8202CF8200C0233DBB208AD05EB420222F8200C0131C9B28C42ECD897
S325080099205C1CE4B208AA02EB43034FF47A7223F8202C134E6200694630460BF07CFDA6F19D
S325080099400E0596F8803023F03F0304F03F04234386F8803043F0800286F8802043F0C003BF
S3250800996086F88030284608F065FC012236F80A1C56F80E0CFCF779FE08B070BD3C06002054
S32508009980BA05002008B523210B4800F071FF0B4B002299881868FCF768FEFFF79FFF5420AC
S325080099A003F0DAFC002003F0A3FB012003F096FB03F04EF908BD00BFF48D0108AC05002061
S325080099C008B526210B4800F053FF232003F0C4FC002003F083FB002003F08AFBFFF74CFD82
S325080099E020B9FFF7C5FDFFF779FF08BDFFF790FDF7E700BF188E010808B52121074800F088
S32508009A0037FFFFF76BFF002003F030FB4FF47A7202210020FFF7C8FD08BD00BF408E0108DC
S32508009A2008B52A21054800F023FFFFF757FF012003F054FB03F00CF908BD00BF648E01088B
S32508009A4008B52121054800F013FF002003F050FBFFF78EFDFFF742FF08BD00BF908E0108E9
S32508009A6008B52621094800F003FF02210020FFF771FDFFF733FF002003F00AFB44F62062EE
S32508009A8004210846FFF790FD08BD00BFB48E010808B52121094800F0EBFE04210846FFF761
S32508009AA059FDFFF71BFF002003F004FB4FF47A7208210846FFF778FD08BD00BFDC8E010818
S32508009AC008B52021054800F0D3FE08210846FFF741FDFFF703FF03F0BBF808BD008F0108C6
S32508009AE008B5024808F0AEFB08BD00BFAC05002010B5FFF7F5FF4FF400510B48FCF7AEFD27
S32508009B0068B9FBF765FA024600210B2001F0D2FD064C00212078FFF7AFFE207010BD002145
S32508009B200B2001F011FEF3E7000802403C060020037F022B08D0042B0AD0012B00D0704723
S32508009B40054B01221A707047044B01221A707047034B01221A70F2E7AA050020A90500201F
S32508009B60A805002008B50E480E4B03600323436000238360C3604FF4302202614FF480127C
S32508009B8042610376012242768376C37603774377FBF791FD00B908BD02F00EFEFBE700BFBD
S32508009BA06C0600200064004008B50E480E4B03600323436000238360C3604FF430220261A8
S32508009BC04FF4801242610376012242768376C37603774377FBF76FFD00B908BD02F0ECFD8E
S32508009BE0FBE700BF440600200068004010B58AB000230593069307930893099303684E4A7D
S32508009C00934204D04D4A934246D00AB010BD4C4A136801331360012B31D000240194494B52
S32508009C201A6B42F001021A631B6B03F001030193019B4FF4C05305930223069303230893C5
S32508009C400923099305A94048FCF718FC224621461420FCF777F91420FCF784F92246214618
S32508009C601520FCF76FF91520FCF77CF9224621461620FCF767F91620FCF774F9C5E70023EC
S32508009C800093304B1A6C42F000721A641B6C03F000730093009BC0E700230293294B1A6C8C
S32508009CA042F080621A641B6C03F080630293029B234A136801331360012B30D000240494FE
S32508009CC0204B1A6B42F002021A631B6B03F002030493049B60230593022306930323089385
S32508009CE00923099305A91948FCF7C8FB224621464020FCF727F94020FCF734F92246214638
S32508009D004120FCF71FF94120FCF72CF9224621464220FCF717F94220FCF724F975E700232B
S32508009D200393084B1A6C42F000721A641B6C03F000730393039BC1E700640040006800406F
S32508009D404006002000380240000002400004024008B51046064A137883F00103137023B1D1
S32508009D60044A05490BF0F6F908BD044AF9E700BF1400002004900108189001080C90010876
S32508009D8008B5104640F20E2201490BF054FB08BD3090010838B515460B4C0FCC2860696053
S32508009DA0AA60EB6000240CE02846FAF771FA074BDB6D53F82420064928440BF0CBF901348E
S32508009DC0E4B2112CF0D938BD40920108041800205092010870B5054614464E681B49304688
S32508009DE0FAF7F6F960B11A493046FAF7F1F9B0B1012D24D93246174920460BF0ABF90DE05A
S32508009E00154B01221A7003225A70144D0FCD20606160A260E36003CD2061616170BD0E4BDC
S32508009E2001221A705A700E4D0FCD20606160A260E36003CD206161612B782376EEE7412259
S32508009E40084920460BF0F7FAE8E700BF5892010874920108D89201080C0000205C9201082B
S32508009E6078920108949201082DE9F04194B09046002412948DF84C40FFF7DAFA07EE900AFD
S32508009E80F8EE677AF2EE046A87EEA67A0A2212A9FDEEC77A17EE900A09F0B9FA304B1B888E
S32508009EA0ADF844308DF8464001F090FC0A2211A909F0ADFA0D940E940F948DF84040294B0E
S32508009EC01B783BBB284B0DAC0FCB07C42370274B0393FFF7FDFC264B53F820300493254B7D
S32508009EE0059311AB0693244B079303F0CBF9B8B1224B0893224B0993FFF7BEFA214B53F8C8
S32508009F0020300A93204B0B930DAB0C93002488F8004020E01D4A0DAB07CA03C31A80D6E7F5
S32508009F201B4BE6E74046FAF7B3F9054614AB03EBC40757F8446C3046FAF7AAF957F8403C26
S32508009F400093144B03443246134908EB05000BF001F90134E4B2042CE4D914B0BDE8F08167
S32508009F60188D0108CC1A0020A0930108309301080C0100203C93010848930108149301087E
S32508009F80589301080401002068930108249301081C9301087893010894930108F8B50746E0
S32508009FA00E461446354D0FCD20606160A260E360286820612B792375756831492846FAF7FE
S32508009FC007F948B32F492846FAF702F988B32E492846FAF7FDF800283BD1B06868B109F042
S32508009FE0E3F9F2EE047A20EE270ABCEEC00A10EE103A98B2B0F5FA7F28D9FFF719FAFAF7BB
S3250800A000A1FA0022214BFAF731FC02460B46204920460BF09FF80BE0FFF766FA1D4D0FCD6A
S3250800A02020606160A260E360286820612B792375F8BDFFF76DFA184D0FCD20606160A260A9
S3250800A040E36028682061AB88A382F1E7FFF7F8F9D3E712492846FAF7BBF80028E8D0012F50
S3250800A06005D932680E4920460BF074F8E0E77D220C4920460BF0DFF9DAE700BF1C8D010810
S3250800A0805892010874920108E093010800002440E4930108B0930108C893010808940108FB
S3250800A0A090940108109401082DE9F04385B00B4614461B495868FAF78BF878B901F0FCF9E0
S3250800A0C0184D0FCD20606160A260E36003CD206161612B78237605B0BDE8F08301F010FA94
S3250800A0E010EE100AFAF740FA06460F4601F032FA10EE100AFAF738FA8046894601F020FA76
S3250800A10010EE100AFAF730FACDE90201CDE9008932463B46044920460BF01CF8DBE700BFCA
S3250800A12008950108109501082C950108F0B5ADF6BC7D16460024147001F048FB87B24FF4BE
S3250800A1407A62214606A80BF078F806A801F046FBFAF73EFF05903A46154930460AF0FAFFAB
S3250800A1600BE014490391CDF808E001950093634611490AF0EFFF0134A4B2BC4215D230464E
S3250800A180FAF786F8304406A911F834200B4B53F822C001EBC4014B68059DED1A91F801E0C8
S3250800A1A089780029DDD10649DCE70DF6BC7DF0BD749501086C95010880950108C0000020A4
S3250800A1C0649501082DE9F04385B01446012810D005464E6821493046F9F7FAFF68B3012D7B
S3250800A1E036D932461E4920460AF0B4FF05B0BDE8F083002002F0F2FD10EE100AFAF7B4F9CC
S3250800A20006460F46012002F0E9FD10EE100AFAF7ABF980468946022002F0E0FD10EE100A4B
S3250800A220FAF7A2F9CDE90201CDE9008932463B460C4920460AF08EFFD8E702F009FD0A4D43
S3250800A2400FCD20606160A260E3602B782374CDE76022064920460BF0EEF8C7E70C9601082F
S3250800A26088960108D8950108149601082896010808B5FBF785FE08BD2DE9F04786B01446E5
S3250800A28002F0DAF8054602F0E1F8114B53F8207002F012F9064602F063F810EE100AFAF700
S3250800A2A063F98046894602F065F8824602F096F80590CDF810A0CDE9028900963B462A4636
S3250800A2C0044920460AF046FF06B0BDE8F08700BF7CA20108E09601082DE9F04188B017466B
S3250800A2E0032854D10C464D682D492846F9F770FF68B12C492846F9F76BFF10B9DFF8B4808C
S3250800A30007E02A46284938460AF024FF44E0DFF8A8802321A0680AF0A7FF00230093019373
S3250800A320054640B3002305F8013B2846F9F7B0FF10F0010F25D100260296039604960596D6
S3250800A3400696079610223146A0680AF09BF802902846F9F79DFF40080690102231462846F7
S3250800A3600AF076F9CDE9000102AA6946404602F0D3FF3E7010E04F220C4938460BF05BF8DA
S3250800A3800AE04F22094938460BF055F804E04F22074938460BF04FF808B0BDE8F08100BF4A
S3250800A3A0589701085C97010864970108D0970108209801086C060020440600202DE9F0471D
S3250800A3C0AEB0904606A801F0E1FE002488F8004020E0DFF87CA02EAB03EBC60757F89C0C5B
S3250800A3E0FAF7C2F817F89F3C012B05D04BBB174B03E0DFF868A0EEE7154B0493CDE902010A
S3250800A400CDF800A04B463246124928460AF0A2FE0134E4B2132C16D84046F9F739FF08EBC4
S3250800A420000526460C4B53F824902EAB03EBC40313F8A03C012BCCD0002BDAD1DFF80CA0B1
S3250800A440C9E7064BD9E72EB0BDE8F08774980108709801087898010894A201083C9F0108D1
S3250800A46010B51446024801F09DFA0023237010BDC820002010B514460B4B93F83D30DBB258
S3250800A480022B05D0094B186810601B79137110BD0548FDF761FA064B00221A70054B1A88F8
S3250800A4A09B782280A370F2E7601F0020989801089C1700206C9801082DE9F8432DED028B3D
S3250800A4C007460E4690463A4B00221A704C6839492046F9F77DFE80B93748FDF73DFA374B5A
S3250800A4E01868C8F800009A889B79A8F8042088F80630BDEC028BBDE8F883204608F057FF54
S3250800A5001FFA80F9B9F1000F01D14FF4FA7902240BE0274D2846F9F7BBFE56F824202849BB
