S02300002E2E2F6D61696E626F6172642F6275696C642F64656275672F66656E6963650096
S3250800400000000220E95D0508154205081742050827420508294205082B42050800000000EB
S325080040200000000000000000000000002D4205082F42050800000000314205083342050876
S32508004040395E0508395E0508395E0508395E0508395E0508395E0508395E0508395E050832
S32508004060395E0508395E0508395E0508395E0508395E0508395E0508395E0508395E050812
S32508004080395E0508395E05083B420508395E05085D4205086D4205087D420508395E0508C4
S325080040A08D4205089D420508395E0508395E0508B5420508C5420508D5420508395E050802
S325080040C0395E0508395E0508395E0508395E0508395E0508E5420508395E0508395E050822
S325080040E0395E0508395E0508395E0508395E0508395E0508395E0508F5420508395E0508F2
S32508004100395E0508395E0508395E0508395E0508395E0508395E050805430508395E0508C0
S32508004120395E05081543050825430508395E0508354305080000000000000000395E050826
S32508004140454305085543050865430508395E0508395E0508395E0508395E0508395E05082E
S32508004160395E0508395E0508395E0508395E0508395E0508395E0508395E050800000000B5
S3250800418000000000395E05080000000000000000395E05080000000000000000395E050825
S325080041A0000000000000000000000000395E0508395E0508395E0508395E0508395E0508BD
S325080041C0395E050800000000000000000000000000B585B0002300930193029303932C485A
S325080041E02C4A02604FF480324260836001220261037680F82030C36202F170628262C360A7
S325080042000522C26180F83030436143F0B2FC68BB0123009301930723029369461C4844F075
S3250800422018F930BB0223009301936946184844F010F908BB0323009301936946144844F08D
S3250800424008F9E0B90423009301936946104844F000F9B8B9082300930523019369460C4846
S3250800426044F0F7F888B905B05DF804FB19F00CFBCEE719F009FBD5E719F006FBDAE719F061
S3250800428003FBDFE719F000FBE4E719F0FDFAEAE78C1F00200020014000B585B000230093E0
S325080042A00193029303931548154A02604FF480324260836003610122027680F82030C362AD
S325080042C010498162C360C26180F83020426143F050FC68B90D230093012301930723029309
S325080042E06946064844F0B5F828B905B05DF804FB19F0CAFAEEE719F0C7FAF6E7441F00201C
S32508004300002101400100000F00B585B0002300930193029303931548154A02604FF48032AB
S325080043204260836003610122027680F82030C36210498162C360C26180F83020426143F0DE
S3250800434018FC68B90C23009301230193072302936946064844F07DF828B905B05DF804FB51
S3250800436019F092FAEEE719F08FFAF6E7D41F0020002201400100000F70B58CB00446002302
S325080043800793089309930A930B930368784A934208D0784A93425CD0774A934200F0A080C0
S325080043A00CB070BD00250095744B5A6C42F480725A645A6C02F480720092009A01951A6BEC
S325080043C042F001021A631A6B02F001020192019A02951A6B42F002021A631B6B03F0020328
S325080043E00293029B1F23079303260896099507A9634845F09BFF012307930896099507A968
S32508004400604845F093FF6048604B036045608560C5604FF4806303614FF4006343614FF4A3
S32508004420005383614FF48073C3610562456245F046FC58B9544BA3639C63002211461220F8
S3250800444045F068FA122045F099FAA9E719F01CFAF0E700250395494B5A6C42F400725A64BA
S325080044605A6C02F400720392039A04951A6B42F004021A631B6B03F004030493049B08231A
S32508004480079303230893099507A9414845F04EFF4048414B03604FF0007343608560C56084
S325080044A04FF4806303614FF4006343614FF4005383614FF48073C3610562456245F0FFFB09
S325080044C058B9344BA3639C6300221146122045F021FA122045F052FA62E719F0D5F9F0E794
S325080044E000250595254B5A6C42F480625A645A6C02F480620592059A06951A6B42F00402B7
S325080045001A631B6B03F004030693069B0423079303230893099507A91D4845F007FF1F487F
S325080045201F4B03604FF0806343608560C5604FF4806303614FF4006343614FF40053836183
S325080045404FF48073C3610562456245F0B8FB58B9124BA3639C6300221146122045F0DAF9D7
S32508004560122045F00BFA1BE719F08EF9F0E700BF00200140002101400022014000380240F9
S325080045800000024000040240241E00207064024000080240841E002040640240E41E0020F9
S325080045A02864024010B5044603681B4A934206D01A4A934215D01A4A93421FD010BD02F58B
S325080045C08C32536C23F4807353641F21154845F091FF0121144845F08DFFA06B45F0D6FBDD
S325080045E0ECE7124A536C23F4007353640821104845F080FFA06B45F0C9FBDFE702F58B32CB
S32508004600536C23F4806353640421094845F072FFA06B45F0BBFBD1E700200140002101408F
S32508004620002201400000024000040240003802400008024008B50268034B1B689A4200D019
S3250800464008BD17F081FDFBE78C1F0020064B1A786FF305021A704FF496715980034B0022EC
S325080046601A7059801A7170471C20002020200020074B1870A1F132039BB240F29E729342C6
S3250800468001D94FF49671024B598001221A71704720200020014B5888704700BF1C200020FF
S325080046A0034B187810F03F0018BF0120704700BF1C200020024A116801609288828070470C
S325080046C020200020052814D830B4012303FA00F4084D2A78C2F3050323EA040303F03F035D
S325080046E001FA00F01843134660F305032B7030BC704770471C20002008B50A4B1B7943B1C7
S32508004700FFF7CEFF074B1B78984203D1054B00221A7108BD034B5A88034B5A80102014F0E7
S3250800472085FDF3E7202000201C20002008B54FF496710020FFF79CFFFFF7DEFF08BD00BF44
S32508004740B8B110B4016000214160017242729DF8041001F00101827A61F3000261F341024F
S32508004760D2B242F0040263F3C30282725DF8044B7047704718B1827A61F382028272704706
S3250800478018B1827A61F3C3028272704708B101604272704768B100234360037201F00101B6
S325080047A0837A61F3000361F34103DBB243F0040383727047002835D003460068002833D083
S325080047C09A7A12F0040F2AD010B45A688C1A1A7A30F8120084421CD3987A440884F0010422
S325080047E064F34100987259600132D2B21A72597A8A420ED3C2B212F0080F03D1C2B26FF356
S3250800480082029A7200221A72997A0A4661F341029A72987AC0F340005DF8044B7047C2F331
S325080048204000704700207047002070470120704708B517F06BFB08B1082008BD0449054883
S3250800484017F0A4FD08B10120F7E70820F5E700BFDFF90300DFFF0F0038B50C46044D014688
S3250800486028464BF02FF82B68E4431C6138BD00BF6C26002008B502210020FFF7EDFF0421B6
S325080048800846FFF7E9FF08210846FFF7E5FF034B00221A705A709A7008BD00BFA80400206F
S325080048A0F8B52DED028B0C4608EE102A404B1B685E6A054640B3042842D008285CD03C4FDB
S325080048C0384650F055FB3A68936A0133B0FBF3F007EE900AF8EE677AB8EE488A28EE278AC6
S325080048E09FED347AC8EE077AFCEEE77A17EE903A334413642E480368E4431C6129464AF003
S325080049003BFFBDEC028BF8BD294F384650F030FB3A68936A0133B0FBF3F007EE900AF8EE2D
S32508004920677AB8EE488A28EE278A9FED227AC8EE077AFCEEE77A17EE903A33445363D9E7E3
S325080049401B4F384650F014FB3A68936A0133B0FBF3F007EE900AF8EE677AB8EE488A28EECD
S32508004960278A9FED147AC8EE077AFCEEE77A17EE903A33449363BDE70D4F384650F0F8FAF0
S325080049803A68936A0133B0FBF3F007EE900AF8EE677AB8EE488A28EE278A9FED067AC8EE51
S325080049A0077AFCEEE77A17EE903A3344D363A1E76C26002000007A44064B1B782BB1054B99
S325080049C05B78032B03D000207047002070470120704700BF0000002008B5FFF78DFE17F04B
S325080049E095FAA0B9FFF7E8FF08B9082010E00949094817F0CBFC08B9082009E0FFF750FE84
S32508004A0008B9032004E0FFF791FE032000E0022008BD00BFDFF90300DFFF0F00064B1B78E6
S32508004A202BB1054B5B78012B03D000207047002070470120704700BF0000002008B517F041
S32508004A4065FAB0B9FFF7EAFFA8B90D4B1B780BB101200FE00B494FF4004017F097FC08B957
S32508004A60012007E00749084817F090FC28B9082000E0022008BD0120FCE70420FAE700BF55
S32508004A80A80400205FFD0300DFFF0F0008B517F03DFA60BBFFF7C2FF10B9174B5B7893B1E1
S32508004AA0154B5B7823B9FFF7B9FF30B9012008BD1121124816F07EFAF5E71021104816F0E7
S32508004AC079FA0120F3E70F494FF4004017F05EFC08B90120EBE70B490B4817F057FC08B9A8
S32508004AE00820E4E718F0C8F918B90820DFE70220DDE70520DBE700BFA804002020C10508E7
S32508004B0034C105081FE50300DFFF0F0008B517F0FDF9F8B9FFF782FF10B9104B9B7853B174
S32508004B200E4B9B780BB9012008BD0C210C4816F041FA0120F8E70B494FF4004017F026FC8F
S32508004B4008B90120F0E70849084817F01FFC18B90820E9E70220E7E70620E5E7A804002054
S32508004B6048C105085FFD03001FE60300DFFF0F0008B517F0CBF968B9FFF750FF08B10120F5
S32508004B8008BD0549054817F001FC08B90120F7E70820F5E70220F3E71FE60300DFF70F00F6
S32508004BA0F8B504460E46124B1F78124B53F8203008469847054617B10D4B00221A70082D37
S32508004BC013D0C4EBC4042C440A4B03EB8404E4694CB14FF4027013F0FFFD4FF40C7013F072
S32508004BE0FBFD3046A0472846F8BD2546E9E700BF00000020F0BE050810B542F077FE0146A7
S32508004C000F48FFF7D7FD02464FF400710D4845F00CFD4FF400510C4845F000FD50B9002192
S32508004C20092017F0FFF8094C0021E078FFF7B8FFE07010BD0021092017F028F9F3E700BF9C
S32508004C40482000200004024000080240A8040020014BD878704700BFA804002010B5184C5B
S32508004C6000212046FFF796FD00212046FFF782FDA27A02F001024FF40071124845F0D5FCF5
S32508004C8000210B4608E05A1C0F48C82420F8134020F81240023301310C4AD2788A42F2D881
S32508004CA05A1C09494FF47A7021F81300044CD2B22046FFF76BFD01212046FFF75BFD10BD8A
S32508004CC0482000200004024028200020A804002010B582B02321104816F06CF9002400940E
S32508004CE0012322460D490E48FFF72AFD22464FF400710C4845F099FCFFF7B0FF4FF40C70B3
S32508004D0013F06AFD204619F061F8012019F054F816F09EFE02B010BD58C10508282000202E
S32508004D20482000200004024008B526210B4816F041F9202013F050FD002019F03DF80020F2
S32508004D4019F044F8FFF7ACFC20B9FFF793FDFFF785FF08BDFFF7EAFCF7E700BF7CC1050801
S32508004D6008B52121104816F025F9104B1A7802F080026FF3C7121A705A7802F080026FF3DC
S32508004D80C7125A709A7802F0F8026FF3C3029A70FFF764FF002018F0D7FF4FF47A7202218A
S32508004DA00020FFF77DFD08BDA4C10508C020002008B52A21054816F0FDF8FFF74FFF012069
S32508004DC018F0FAFF16F044FE08BD00BFC8C1050808B52121054816F0EDF8002018F0F6FF0E
S32508004DE0FFF748FDFFF73AFF08BD00BFF4C1050808B52621094816F0DDF802210020FFF78C
S32508004E002BFDFFF72BFF002018F0B0FF44F6206204210846FFF744FD08BD00BF18C2050894
S32508004E2008B52121094816F0C5F804210846FFF713FDFFF713FF002018F0AAFF4FF47A72D0
S32508004E4008210846FFF72CFD08BD00BF40C2050808B52021054816F0ADF808210846FFF7B8
S32508004E60FBFCFFF7FBFE16F0F3FD08BD64C20508037F022B08D0042B0AD0012B00D070470D
S32508004E80054B01221A707047034B01225A707047014B01229A70F2E7A80400208840104028
S32508004EA0704788401040704788401040704790401840704708411040704708411040704710
S32508004EC0C8401040704730B4C2F12005A2F12004D04001FA05F5284321FA04F42043184004
S32508004EE030BC704710408840C0B270471040884080B270471040884070471040A1F12002EC
S32508004F00C1F1200300FA02F220FA03F3884042EA0301704710400841C0B2704710400841A6
S32508004F2080B270471040C84070471040C84000217047052A4DD9F8B505460E46002707600C
S32508004F408780FF2239463078FFF7A8FF2870802207217078FFF7A2FF0446687040220621CB
S32508004F60B078FFF79BFF0443E4B26C7020220521F078FFF793FF0443E4B26C70102204214A
S32508004F803079FFF78BFF0443E4B26C700F2239467079FFF783FF04436C70D6F80640FF22B8
S32508004FA018212046FFF78CFFA870FF2210212046FFF786FFE870FF2208212046FFF780FFFB
S32508004FC02871FF2239462046FFF76EFF68710620F8BD6FF015007047052A42D970B5054628
S32508004FE00C46FF2200212078FFF794FF2870802207216078FFF78EFF6870402206216078F8
S32508005000FFF788FFA870202205216078FFF782FFE870102204216078FFF77CFF28710F2274
S3250800502000216078FFF776FF6871FF221821A078FFF760FF0646FF221021E078FFF75AFF19
S325080050400643FF2208212079FFF754FF0643FF2200216079FFF766FF0643C5F80660002082
S3250800506070BD6FF015007047072814BF00200120704701288CBF00200120704701288CBFF0
S3250800508000200120704701288CBF00200120704701288CBF0020012070470F288CBF002090
S325080050A001207047012070470170417862F3000163F341019DF8003063F382019DF80430B3
S325080050C063F3C30141709DF808308370039BC0F8033070470170427083709DF80030C370E9
S325080050E09DF8043003719DF808304371039BC0F8063070470B7803704A78437862F30003D6
S3250800510043708A78DBB262F341034370CA78DBB262F3820343700A79DBB262F3C3034370B9
S325080051204B798370D1F80630C0F8033070470B7803704B78C3F3000343704B78C3F3400328
S3250800514083704B78C3F38003C3704B78C3F3C00303718B784371D1F80330C0F80630704717
S3250800516070B586B0024608469378D17814795579D2F8066004960395029401910093537899
S325080051801278024952F034F806B070BDE0C2050870B586B0024608469378D178147955798C
S325080051A0D2F806600496039502940191009353781278024950F068FE06B070BDE0C20508EC
S325080051C008B59F22024950F0CDFE9E2008BD00BF04C3050808B5024950F056FE08BD00BFB7
S325080051E004C3050810B40B4607280AD10B4C07CC186059609A6022781A730C205DF8044B62
S325080052007047074C07CC186059609A602188A27899819A734FF0FF30F0E700BFA4C3050816
S32508005220B4C30508052A4DD9F8B505460E46002707608780FF2239463078FFF72FFE2870A3
S32508005240802207217078FFF729FE0446687040220621B078FFF722FE0443E4B26C7020228D
S325080052600521F078FFF71AFE0443E4B26C70102204213079FFF712FE0443E4B26C700F22DB
S3250800528039467079FFF70AFE04436C70D6F80640FF2218212046FFF713FEA870FF22102132
S325080052A02046FFF70DFEE870FF2208212046FFF707FE2871FF2239462046FFF7F5FD687116
S325080052C00620F8BD6FF015007047052A42D970B505460C46FF2200212078FFF71BFE28702D
S325080052E0802207216078FFF715FE6870402206216078FFF70FFEA870202205216078FFF76B
S3250800530009FEE870102204216078FFF703FE28710F2200216078FFF7FDFD6871FF22182114
S32508005320A078FFF7E7FD0646FF221021E078FFF7E1FD0643FF2208212079FFF7DBFD064360
S32508005340FF2200216079FFF7EDFD0643C5F80660002070BD6FF015007047062814BF00203F
S325080053600120704701288CBF00200120704701288CBF00200120704701288CBF00200120BA
S32508005380704701288CBF0020012070470F288CBF002001207047012070470170417862F30B
S325080053A0000163F341019DF8003063F382019DF8043063F3C30141709DF808308370039BB6
S325080053C0C0F8033070470170427083709DF80030C3709DF8043003719DF808304371039BB3
S325080053E0C0F8063070470B7803704A78437862F3000343708A78DBB262F341034370CA785F
S32508005400DBB262F3820343700A79DBB262F3C30343704B798370D1F80630C0F8033070472E
S325080054200B7803704B78C3F3000343704B78C3F3400383704B78C3F38003C3704B78C3F3E2
S32508005440C00303718B784371D1F80330C0F80630704770B586B0024608469378D1781479DD
S325080054605579D2F806600496039502940191009353781278024951F0BBFE06B070BD00BFF7
S32508005480E0C2050870B586B0024608469378D17814795579D2F80660049603950294019125
S325080054A0009353781278024950F0EEFC06B070BDE0C2050808B59F22024950F053FD9E20D8
S325080054C008BD00BFC4C3050808B5024950F0DCFC08BD00BFC4C3050810B40B4606280AD150
S325080054E00B4C07CC186059609A6022781A730C205DF8044B7047074C07CC186059609A604A
S325080055002188A27899819A734FF0FF30F0E700BF64C40508B4C30508052A4DD9F8B5054689
S325080055200E46002707608780FF2239463078FFF7B5FC2870802207217078FFF7AFFC044650
S32508005540687040220621B078FFF7A8FC0443E4B26C7020220521F078FFF7A0FC0443E4B222
S325080055606C70102204213079FFF798FC0443E4B26C700F2239467079FFF790FC04436C70C0
S32508005580D6F80640FF2218212046FFF799FCA870FF2210212046FFF793FCE870FF220821A7
S325080055A02046FFF78DFC2871FF2239462046FFF77BFC68710620F8BD6FF015007047052ADE
S325080055C042D970B505460C46FF2200212078FFF7A1FC2870802207216078FFF79BFC6870D4
S325080055E0402206216078FFF795FCA870202205216078FFF78FFCE870102204216078FFF75F
S3250800560089FC28710F2200216078FFF783FC6871FF221821A078FFF76DFC0646FF22102177
S32508005620E078FFF767FC0643FF2208212079FFF761FC0643FF2200216079FFF773FC06431A
S32508005640C5F80660002070BD6FF015007047052814BF00200120704701288CBF00200120F4
S32508005660704701288CBF00200120704701288CBF00200120704701288CBF00200120704721
S325080056800F288CBF002001207047012070470170417862F3000163F341019DF8003063F377
S325080056A082019DF8043063F3C30141709DF808308370039BC0F803307047017042708370AF
S325080056C09DF80030C3709DF8043003719DF808304371039BC0F8063070470B7803704A780B
S325080056E0437862F3000343708A78DBB262F341034370CA78DBB262F3820343700A79DBB28F
S3250800570062F3C30343704B798370D1F80630C0F8033070470B7803704B78C3F30003437030
S325080057204B78C3F3400383704B78C3F38003C3704B78C3F3C00303718B784371D1F803301A
S32508005740C0F80630704770B586B0024608469378D17814795579D2F80660049603950294FE
S325080057600191009353781278024951F041FD06B070BD00BFE0C2050870B586B00246084695
S325080057809378D17814795579D2F806600496039502940191009353781278024950F074FBE0
S325080057A006B070BDE0C2050808B59822024950F0D9FB972008BD00BF74C4050808B50249EB
S325080057C050F062FB08BD00BF74C4050810B40B46052808D10A4C07CC186059609A600B20BB
S325080057E05DF8044B7047074C07CC186059609A602188A27899819A734FF0FF30F0E700BF01
S325080058000CC50508B4C30508072A40F22F8670B504460D46002101604160FF222878FFF764
S325080058203DFB20702B78803B7F2B00F22286DFE813F080009700AE00ED0020062006200602
S325080058402006200620062006200620062006200620062C0159018601B301E0010D023902F7
S3250800586065022006200620062006200691022006BD02E9021103390361038A03B303DC03BC
S325080058800504200620062006200620062006200620062E045A04A804CD04DB04F9041605BD
S325080058A020062006330568059C05B60520062006E905200620062006200620062006200649
S325080058C020062006200620062006200620062006200620062006200620062006200620065A
S325080058E020062006200620062006200620062006200620062006200620062006200620063A
S32508005900200620062006200620062006200620062006200620062006200620062006200619
S32508005920200620062006200620062006200620061506FF2200216879FFF7B0FA6070FF225A
S325080059400821B5F85500FFF7B8FAA070FF220021B5F85500FFF7A5FAE070082000F08ABDCE
S32508005960FF220021A879FFF799FA6070FF220821B5F85700FFF7A1FAA070FF220021B5F87F
S325080059805700FFF78EFAE070082000F073BDFF220021E879FFF782FA6070FF232822D5F86E
S325080059A05900D5F85D10FFF78EFAA070FF232022D5F85900D5F85D10FFF785FAE070FF230D
S325080059C01822D5F85900D5F85D10FFF77CFA2071FF231022D5F85900D5F85D10FFF773FA0B
S325080059E06071FF230822D5F85900D5F85D10FFF76AFAA071FF230022D5F85900D5F85D100D
S32508005A00FFF755FAE071082000F034BDFF220021287AFFF743FA6070FF232822D5F8610058
S32508005A20D5F86510FFF74FFAA070FF232022D5F86100D5F86510FFF746FAE070FF23182211
S32508005A40D5F86100D5F86510FFF73DFA2071FF231022D5F86100D5F86510FFF734FA607151
S32508005A60FF230822D5F86100D5F86510FFF72BFAA071FF230022D5F86100D5F86510FFF786
S32508005A8016FAE071082000F0F5BCFF220821B5F80900FFF712FA6070FF220021B5F8090004
S32508005AA0FFF7FFF9A070FF221821D5F88600FFF707FAE070FF221021D5F88600FFF700FA51
S32508005AC02071FF220821D5F88600FFF7F9F96071FF220021D5F88600FFF7E6F9A07108202E
S32508005AE000F0C8BCFF220821B5F80B00FFF7E5F96070FF220021B5F80B00FFF7D2F9A070B3
S32508005B00FF221821D5F88A00FFF7DAF9E070FF221021D5F88A00FFF7D3F92071FF22082167
S32508005B20D5F88A00FFF7CCF96071FF220021D5F88A00FFF7B9F9A071082000F09BBCFF2292
S32508005B400821B5F80D00FFF7B8F96070FF220021B5F80D00FFF7A5F9A070FF221821D5F816
S32508005B608E00FFF7ADF9E070FF221021D5F88E00FFF7A6F92071FF220821D5F88E00FFF72F
S32508005B809FF96071FF220021D5F88E00FFF78CF9A071082000F06EBCFF220821B5F80F001D
S32508005BA0FFF78BF96070FF220021B5F80F00FFF778F9A070FF221821D5F89200FFF780F9F0
S32508005BC0E070FF221021D5F89200FFF779F92071FF220821D5F89200FFF772F96071FF22C1
S32508005BE00021D5F89200FFF75FF9A071082000F041BCFF220821B5F81100FFF75EF960707E
S32508005C00FF220021B5F81100FFF74BF9A070FF221821D5F89600FFF753F9E070FF2210218B
S32508005C20D5F89600FFF74CF92071FF220821D5F89600FFF745F96071FF220021D5F89600D0
S32508005C40FFF732F9A071082000F014BCFF220821B5F81300FFF731F96070FF220021B5F833
S32508005C601300FFF71EF9A070FF221821D5F89A00FFF726F9E070FF221021D5F89A00FFF711
S32508005C801FF92071FF220821D5F89A00FFF718F96071FF220021D5F89A00FFF705F9A07116
S32508005CA00820E7E3FF220821B5F81500FFF705F96070FF220021B5F81500FFF7F2F8A07020
S32508005CC0FF221821D5F89E00FFF7FAF8E070FF221021D5F89E00FFF7F3F82071FF22082140
S32508005CE0D5F89E00FFF7ECF86071FF220021D5F89E00FFF7D9F8A0710820BBE3FF220821EB
S32508005D00B5F81700FFF7D9F86070FF220021B5F81700FFF7C6F8A070FF221821D5F8A20087
S32508005D20FFF7CEF8E070FF221021D5F8A200FFF7C7F82071FF220821D5F8A200FFF7C0F8DB
S32508005D406071FF220021D5F8A200FFF7ADF8A07108208FE3FF220821B5F81900FFF7ADF8C2
S32508005D606070FF220021B5F81900FFF79AF8A070FF221821D5F8A600FFF7A2F8E070FF22D7
S32508005D801021D5F8A600FFF79BF82071FF220821D5F8A600FFF794F86071FF220021D5F818
S32508005DA0A600FFF781F8A071082063E3FF220821B5F81B00FFF781F86070FF220021B5F801
S32508005DC01B00FFF76EF8A070FF221821D5F8AA00FFF776F8E070FF221021D5F8AA00FFF7EA
S32508005DE06FF82071FF220821D5F8AA00FFF768F86071FF220021D5F8AA00FFF755F8A071A8
S32508005E00082037E380220721687FFFF747F8064660704022062195F83C00FFF73FF8064368
S32508005E20F6B266700322002195F84400FFF736F806436670FF220821B5F86900FFF73DF8F1
S32508005E40A070FF220021B5F86900FFF72AF8E07008200FE380220721A87FFFF71FF8064600
S32508005E6060704022062195F83D00FFF717F80643F6B266700322002195F84500FFF70EF811
S32508005E8006436670FF220821B5F86B00FFF715F8A070FF220021B5F86B00FFF702F8E070C6
S32508005EA00820E7E280220721E87FFEF7F7FF064660704022062195F83E00FEF7EFFF06432B
S32508005EC0F6B266700322002195F84600FEF7E6FF06436670FF220821B5F86D00FEF7EDFFDF
S32508005EE0A070FF220021B5F86D00FEF7DAFFE0700820BFE28022072195F82000FEF7CEFF08
S32508005F00064660704022062195F83F00FEF7C6FF0643F6B266700322002195F84700FEF772
S32508005F20BDFF06436670FF220821B5F86F00FEF7C4FFA070FF220021B5F86F00FEF7B1FF47
S32508005F40E070082096E28022072195F82100FEF7A5FF064660704022062195F84000FEF7CB
S32508005F609DFF0643F6B266700322002195F84800FEF794FF06436670FF220821B5F8710086
S32508005F80FEF79BFFA070FF220021B5F87100FEF788FFE07008206DE28022072195F8220038
S32508005FA0FEF77CFF064660704022062195F84100FEF774FF0643F6B266700322002195F8EE
S32508005FC04900FEF76BFF06436670FF220821B5F87300FEF772FFA070FF220021B5F87300AA
S32508005FE0FEF75FFFE070082044E28022072195F82300FEF753FF064660704022062195F8AF
S325080060004200FEF74BFF0643F6B266700322002195F84A00FEF742FF06436670FF2208216E
S32508006020B5F87500FEF749FFA070FF220021B5F87500FEF736FFE07008201BE28022072116
S3250800604095F82400FEF72AFF064660704022062195F84300FEF722FF0643F6B266700322EC
S32508006060002195F84B00FEF719FF06436670FF220821B5F87700FEF720FFA070FF22002119
S32508006080B5F87700FEF70DFFE0700820F2E1FF220821B5F82500FEF710FF6070FF22002150
S325080060A0B5F82500FEF7FDFEA070FF221821D5F8AE00FEF705FFE070FF221021D5F8AE0015
S325080060C0FEF7FEFE2071FF220821D5F8AE00FEF7F7FE6071FF220021D5F8AE00FEF7E4FE1C
S325080060E0A0710820C6E1FF2200216878FEF7D6FE60708022072195F84D00FEF7CFFE064645
S32508006100A0704022062195F87900FEF7C7FE0643F6B2A6702022052195F87A00FEF7BEFEF1
S325080061200643F6B2A6701022042195F87B00FEF7B5FE0643F6B2A6700822032195F87C00E5
S32508006140FEF7ACFE0643F6B2A6700422022195F87D00FEF7A3FE0643F6B2A6700222012155
S3250800616095F87E00FEF79AFE0643F6B2A6700122002195F87F00FEF791FE0643A670082017
S3250800618078E1FF22002195F82700FEF787FE6070FF221821D5F84E00FEF792FEA070FF222D
S325080061A01021D5F84E00FEF78BFEE070FF220821D5F84E00FEF784FE2071FF220021D5F83B
S325080061C04E00FEF771FE6071082053E1FF220821288DFEF772FE6070FF220021288DFEF7B2
S325080061E060FEA070082045E10122002195F84C00FEF754FE60700122002195F88000FEF75B
S325080062004DFEA070FF220821B5F8B200FEF755FEE070FF220021B5F8B200FEF742FE20716D
S32508006220082027E16E8DFF2208213046FEF745FE6070FF2200213046FEF733FEA070B5F8C2
S32508006240B450FF2208212846FEF737FEE070FF2200212846FEF725FE207108200AE1AE8D53
S32508006260FF2208213046FEF728FE6070FF2200213046FEF716FEA070B5F8B650FF22082197
S325080062802846FEF71AFEE070FF2200212846FEF708FE20710820EDE0FF22002195F82E00F7
S325080062A0FEF7FCFD6070FF220421B5F85300FEF704FEA070F0220421B5F85300FEF7F1FDAB
S325080062C00646E0700F22002195F8B800FEF7E6FD0643E670FF22002195F8BA00FEF7DEFDAD
S325080062E02071FF22002195F8BC00FEF7D7FD6071FF22002195F8BE00FEF7D0FDA071082052
S32508006300B8E0FF22002195F82F00FEF7C7FD6070FF22002195F85200FEF7C0FDA070FF224C
S32508006320002195F88500FEF7B9FDE070FF22002195F8B900FEF7B2FD207195F9BB00FF22FA
S325080063400021C0B2FEF7AAFD6071FF22002195F8BD00FEF7A3FDA071FF22002195F8BF006F
S32508006360FEF79CFDE071082084E0FF221821286BFEF7A6FD6070FF221021286BFEF7A0FDD8
S32508006380A070FF220821286BFEF79AFDE070FF220021286BFEF788FD207108206AE0FF23B2
S325080063A03022686BA96BFEF78EFD6070FF232822686BA96BFEF787FDA070FF232022686B33
S325080063C0A96BFEF780FDE070FF231822686BA96BFEF779FD2071FF231022686BA96BFEF76A
S325080063E072FD6071FF230822686BA96BFEF76BFDA071FF230022686BA96BFEF758FDE071E8
S32508006400082037E0FF220821B5F80300FEF755FD6070FF220021B5F80300FEF742FDA070E8
S32508006420FF221821D5F88100FEF74AFDE070FF221021D5F88100FEF743FD2071FF2208216A
S32508006440D5F88100FEF73CFD6071FF220021D5F88100FEF729FDA07108200BE0FF220021D0
S32508006460A878FEF71BFD6070082003E06FF015007047082070BD072A40F297862DE9F041BF
S3250800648004460D46FF2200212878FEF743FD207080387F2800F28C86DFE810F08000990067
S325080064A0B20002018A068A068A068A068A068A068A068A068A068A068A068A065201850180
S325080064C0B801EB011E0251028402B6028A068A068A068A068A06E8028A061A034C0372032D
S325080064E09803BE03E5030C0433045A048A068A068A068A068A068A068A068A068104B304E9
S32508006500F3041C052C054C0569058A068A068605BB05EE050C068A068A064D068A068A0662
S325080065208A068A068A068A068A068A068A068A068A068A068A068A068A068A068A068A064D
S325080065408A068A068A068A068A068A068A068A068A068A068A068A068A068A068A068A062D
S325080065608A068A068A068A068A068A068A068A068A068A068A068A068A068A068A068A060D
S325080065808A068A068A068A068A068A068A068A068A068A068A068A068A067F06FF220021D6
S325080065A06878FEF7B7FC6071FF220821A878FEF79DFC0646A4F85500FF220021E878FEF7A8
S325080065C0ADFC0643A4F85560002000F0F2BDFF2200216878FEF79EFCA071FF220821A8787F
S325080065E0FEF784FC0646A4F85700FF220021E878FEF794FC0643A4F85760002000F0D9BD70
S32508006600FF2200216878FEF785FCE071FF222821A878FEF772FC80460E46C4F85900C4F8AB
S325080066205D10FF222021E878FEF767FC48EA00080E43C4F85980C4F85D60FF221821287931
S32508006640FEF75BFC48EA00080E43C4F85980C4F85D60FF2210216879FEF74FFC48EA00089A
S325080066600E43C4F85980C4F85D60FF220821A879FEF743FC48EA00080E43C4F85980C4F832
S325080066805D60FF220021E879FEF74FFC48EA00080E43C4F85980C4F85D60002000F089BD5D
S325080066A0FF2200216878FEF735FC2072FF222821A878FEF722FC80460E46C4F86100C4F862
S325080066C06510FF222021E878FEF717FC48EA00080E43C4F86180C4F86560FF2218212879C9
S325080066E0FEF70BFC48EA00080E43C4F86180C4F86560FF2210216879FEF7FFFB48EA00088B
S325080067000E43C4F86180C4F86560FF220821A879FEF7F3FB48EA00080E43C4F86180C4F8CA
S325080067206560FF220021E879FEF7FFFB48EA00080E43C4F86180C4F86560002000F039BD45
S32508006740FF2208216878FEF7D1FB0646A4F80900FF220021A878FEF7E1FB0643A4F80960CE
S32508006760FF221821E878FEF7C5FB0646C4F88600FF2210212879FEF7BDFB0643C4F8866083
S32508006780FF2208216879FEF7B5FB0643C4F88660FF220021A879FEF7C5FB0643C4F886602D
S325080067A0002000F006BDFF2208216878FEF79EFB0646A4F80B00FF220021A878FEF7AEFB4D
S325080067C00643A4F80B60FF221821E878FEF792FB0646C4F88A00FF2210212879FEF78AFB20
S325080067E00643C4F88A60FF2208216879FEF782FB0643C4F88A60FF220021A879FEF792FB2B
S325080068000643C4F88A60002000F0D3BCFF2208216878FEF76BFB0646A4F80D00FF22002120
S32508006820A878FEF77BFB0643A4F80D60FF221821E878FEF75FFB0646C4F88E00FF2210217C
S325080068402879FEF757FB0643C4F88E60FF2208216879FEF74FFB0643C4F88E60FF220021B0
S32508006860A879FEF75FFB0643C4F88E60002000F0A0BCFF2208216878FEF738FB0646A4F801
S325080068800F00FF220021A878FEF748FB0643A4F80F60FF221821E878FEF72CFB0646C4F80F
S325080068A09200FF2210212879FEF724FB0643C4F89260FF2208216879FEF71CFB0643C4F8FE
S325080068C09260FF220021A879FEF72CFB0643C4F89260002000F06DBCFF2208216878FEF7EA
S325080068E005FB0646A4F81100FF220021A878FEF715FB0643A4F81160FF221821E878FEF725
S32508006900F9FA0646C4F89600FF2210212879FEF7F1FA0643C4F89660FF2208216879FEF7EA
S32508006920E9FA0643C4F89660FF220021A879FEF7F9FA0643C4F89660002000F03ABCFF22FE
S3250800694008216878FEF7D2FA0646A4F81300FF220021A878FEF7E2FA0643A4F81360FF22B8
S325080069601821E878FEF7C6FA0646C4F89A00FF2210212879FEF7BEFA0643C4F89A60FF2259
S3250800698008216879FEF7B6FA0643C4F89A60FF220021A879FEF7C6FA0643C4F89A60002004
S325080069A000F007BCFF2208216878FEF79FFA0646A4F81500FF220021A878FEF7AFFA064318
S325080069C0A4F81560FF221821E878FEF793FA0646C4F89E00FF2210212879FEF78BFA064300
S325080069E0C4F89E60FF2208216879FEF783FA0643C4F89E60FF220021A879FEF793FA064301
S32508006A00C4F89E600020D4E3FF2208216878FEF76DFA0646A4F81700FF220021A878FEF7FB
S32508006A207DFA0643A4F81760FF221821E878FEF761FA0646C4F8A200FF2210212879FEF7D9
S32508006A4059FA0643C4F8A260FF2208216879FEF751FA0643C4F8A260FF220021A879FEF704
S32508006A6061FA0643C4F8A2600020A2E3FF2208216878FEF73BFA0646A4F81900FF2200216A
S32508006A80A878FEF74BFA0643A4F81960FF221821E878FEF72FFA0646C4F8A600FF22102158
S32508006AA02879FEF727FA0643C4F8A660FF2208216879FEF71FFA0643C4F8A660FF22002180
S32508006AC0A879FEF72FFA0643C4F8A660002070E3FF2208216878FEF709FA0646A4F81B00C6
S32508006AE0FF220021A878FEF719FA0643A4F81B60FF221821E878FEF7FDF90646C4F8AA0067
S32508006B00FF2210212879FEF7F5F90643C4F8AA60FF2208216879FEF7EDF90643C4F8AA606D
S32508006B20FF220021A879FEF7FDF90643C4F8AA6000203EE3802207216878FEF7EBF960774F
S32508006B40402206216878FEF7E5F984F83C00032200216878FEF7DEF984F84400FF22082137
S32508006B60A878FEF7C3F90646A4F86900FF220021E878FEF7D3F90643A4F86960002018E3B9
S32508006B80802207216878FEF7C5F9A077402206216878FEF7BFF984F83D000322002168787E
S32508006BA0FEF7B8F984F84500FF220821A878FEF79DF90646A4F86B00FF220021E878FEF781
S32508006BC0ADF90643A4F86B600020F2E2802207216878FEF79FF9E077402206216878FEF771
S32508006BE099F984F83E00032200216878FEF792F984F84600FF220821A878FEF777F90646B8
S32508006C00A4F86D00FF220021E878FEF787F90643A4F86D600020CCE2802207216878FEF727
S32508006C2079F984F82000402206216878FEF772F984F83F00032200216878FEF76BF984F8B9
S32508006C404700FF220821A878FEF750F90646A4F86F00FF220021E878FEF760F90643A4F80B
S32508006C606F600020A5E2802207216878FEF752F984F82100402206216878FEF74BF984F8EB
S32508006C804000032200216878FEF744F984F84800FF220821A878FEF729F90646A4F87100B0
S32508006CA0FF220021E878FEF739F90643A4F8716000207EE2802207216878FEF72BF984F888
S32508006CC02200402206216878FEF724F984F84100032200216878FEF71DF984F84900FF2235
S32508006CE00821A878FEF702F90646A4F87300FF220021E878FEF712F90643A4F87360002078
S32508006D0057E2802207216878FEF704F984F82300402206216878FEF7FDF884F842000322BB
S32508006D2000216878FEF7F6F884F84A00FF220821A878FEF7DBF80646A4F87500FF220021CA
S32508006D40E878FEF7EBF80643A4F87560002030E2802207216878FEF7DDF884F8240040228B
S32508006D6006216878FEF7D6F884F84300032200216878FEF7CFF884F84B00FF220821A87869
S32508006D80FEF7B4F80646A4F87700FF220021E878FEF7C4F80643A4F87760002009E2FF22AA
S32508006DA008216878FEF7A2F80646A4F82500FF220021A878FEF7B2F80643A4F82560FF2294
S32508006DC01821E878FEF796F80646C4F8AE00FF2210212879FEF78EF80643C4F8AE60FF2231
S32508006DE008216879FEF786F80643C4F8AE60FF220021A879FEF796F80643C4F8AE600020DC
S32508006E00D7E1FF2200216878FEF784F8607080220721A878FEF77EF884F84D0040220621A2
S32508006E20A878FEF777F884F8790020220521A878FEF770F884F87A0010220421A878FEF784
S32508006E4069F884F87B0008220321A878FEF762F884F87C0004220221A878FEF75BF884F8EA
S32508006E607D0002220121A878FEF754F884F87E0001220021A878FEF74DF884F87F0000202D
S32508006E8097E1FF2200216878FEF744F884F82700FF221821A878FEF72DF80646C4F84E008C
S32508006EA0FF221021E878FEF725F80643C4F84E60FF2208212879FEF71DF80643C4F84E60A5
S32508006EC0FF2200216879FEF72DF80643C4F84E6000206EE1FF2208216878FEF707F80646DB
S32508006EE02085FF220021A878FEF718F80643268500205EE1012200216878FEF70BF884F88D
S32508006F004C0001220021A878FEF704F884F88000FF220821E878FDF7E9FF0646A4F8B200A6
S32508006F20FF2200212879FDF7F9FF0643A4F8B26000203EE1FF2208216878FDF7D7FF0646FE
S32508006F40FF220021A878FDF7E9FF06436685FF220821E878FDF7CAFF0646FF22002128791B
S32508006F60FDF7DCFF0643A4F8B460002021E1FF2208216878FDF7BAFF0646FF220021A87894
S32508006F80FDF7CCFF0643A685FF220821E878FDF7ADFF0646FF2200212879FDF7BFFF06433C
S32508006FA0A4F8B660002004E1FF2200216878FDF7B1FF84F82E00FF220421A878FDF796FFAD
S32508006FC00646A4F85300F0220421E878FDF7A6FF0643A4F853600F220021E878FDF79AFF61
S32508006FE084F8B800FF2200212879FDF793FF84F8BA00FF2200216879FDF78CFF84F8BC00D6
S32508007000FF220021A879FDF785FF84F8BE000020CFE0FF2200216878FDF77CFF84F82F0042
S32508007020FF220021A878FDF775FF84F85200FF220021E878FDF76EFF84F88500FF22002164
S325080070402879FDF767FF84F8B900FF2200216879FDF760FF84F8BB00FF220021A879FDF7EE
S3250800706059FF84F8BD00FF220021E879FDF752FF84F8BF0000209CE0FF2218216878FDF784
S3250800708039FF06462063FF221021A878FDF732FF06432663FF220821E878FDF72BFF064361
S325080070A02663FF2200212879FDF73CFF0643266300207EE0FF2230216878FDF71EFF074627
S325080070C00E466063A163FF222821A878FDF715FF07430E436763A663FF222021E878FDF7D1
S325080070E00CFF07430E436763A663FF2218212879FDF703FF07430E436763A663FF22102158
S325080071006879FDF7FAFE07430E436763A663FF220821A879FDF7F1FE07430E436763A6636A
S32508007120FF220021E879FDF700FF07430E436763A66300203DE0FF2208216878FDF7D6FE0E
S325080071400646A4F80300FF220021A878FDF7E6FE0643A4F80360FF221821E878FDF7CAFE3E
S325080071600646C4F88100FF2210212879FDF7C2FE0643C4F88160FF2208216879FDF7BAFE14
S325080071800643C4F88160FF220021A879FDF7CAFE0643C4F8816000200BE0FF2200216878C9
S325080071A0FDF7B8FEA070002003E06FF0150070470020BDE8F08101207047012070470120D2
S325080071C07047012070470120704701207047012070470120704701207047012070470120E1
S325080071E07047012070470120704701207047012070470120704701207047012070470128B9
S325080072008CBF00200120704701288CBF00200120704701288CBF00200120704701288CBFD1
S3250800722000200120704701288CBF00200120704701288CBF00200120704701288CBF0020DC
S325080072400120704701288CBF0020012070470120704701207047012070470120704701205B
S325080072607047012070470120704701207047B1F1807F08BF002834BF01200020704701281D
S325080072808CBF00200120704701288CBF00200120704701288CBF00200120704701288CBF51
S325080072A000200120704701288CBF00200120704701288CBF00200120704701288CBF00205C
S325080072C00120704701288CBF00200120704702288CBF00200120704702288CBF0020012039
S325080072E0704702288CBF00200120704702288CBF00200120704702288CBF00200120704782
S3250800730002288CBF00200120704702288CBF00200120704702288CBF0020012070470128EF
S325080073208CBF00200120704701288CBF0020012070470120704701207047B0F5805F2CBF71
S325080073400020012070470120704701207047B1F5803F08BF002834BF012000207047B1F592
S32508007360803F08BF002834BF012000207047012070470120704701207047012070470120E5
S32508007380704701207047012070470120704701288CBF00200120704701288CBF002001207F
S325080073A0704701288CBF00200120704701288CBF00200120704701288CBF002001207047C4
S325080073C001288CBF00200120704701288CBF00200120704701288CBF00200120704701203A
S325080073E07047012070470120704701207047012070470120704701207047012070470120BF
S325080074007047012070470120704701207047012070470120704701207047012070470F2888
S325080074208CBF002001207047012070470120704701207047012070470120704701207047EB
S3250800744001207047017042708370BDF80030A0F803309DF8043043719DF8083083719DF8AD
S325080074600C30C3719DF810300372BDF81430A0F80930BDF81830A0F80B30BDF81C30A0F811
S325080074800D30BDF82030A0F80F30BDF82430A0F81130BDF82830A0F81330BDF82C30A0F852
S325080074A01530BDF83030A0F81730BDF83430A0F81930BDF83830A0F81B30437F9DF83C20D8
S325080074C062F300039DF8402062F341039DF8442062F382039DF8482062F3C3039DF84C20CC
S325080074E062F304139DF8502062F345139DF8542062F386139DF8582062F3C7134377BDF8BE
S325080075005C30C3839DF8603080F82030BDF86430A0F82130BDF96830A0F82330BDF96C30E1
S32508007520A0F825309DF8703080F827309DF8743080F828301E9BC0F82930209BC0F82D30A9
S32508007540219BC0F8313090F835309DF8882062F300039DF88C2062F341039DF8902062F352
S3250800756082039DF8942062F3C3039DF8982062F304139DF89C2062F345139DF8A02062F3B3
S3250800758086139DF8A42062F3C71380F835309DF8A83080F836309DF8AC3080F837309DF8AF
S325080075A0B03080F838309DF8B43080F839309DF8B83080F83A309DF8BC3080F83B309DF84B
S325080075C0C03080F83C309DF8C43080F83D309DF8C83080F83E3090F83F309DF8CC2062F31B
S325080075E0000380F83F30349B03649DF8D43080F84430BDF8D830A0F84530BDF8DC30A0F8B5
S325080076004730BDF8E030A0F849303A9BC0F84B303B9BC0F84F303C9BC0F853303D9BC0F858
S325080076205730BDF8F830A0F85B30BDF8FC30A0F85D30BDF80031A0F85F30BDF80431A0F820
S325080076406130BDF80831A0F86330BDF80C31A0F86530BDF81031A0F86730BDF81431A0F89C
S32508007660693090F86B309DF8182162F300039DF81C2162F341039DF8202162F382039DF86A
S32508007680242162F3C3039DF8282162F304139DF82C2162F345139DF8302162F3861380F857
S325080076A06B309DF8343180F86C304E9BC0F86D309DF83C3180F87130509BC0F87230519B89
S325080076C0C0F87630529BC0F87A30539BC0F87E30549BC0F88230559BC0F88630569BC0F83B
S325080076E08A30579BC0F88E30589BC0F89230599BC0F896305A9BC0F89A30BDF86C31A0F81A
S325080077009E30BDF97031A0F8A030BDF97431A0F8A2309DF8783180F8A4309DF87C3180F8C5
S32508007720A5309DF8803180F8A6309DF9843180F8A7309DF8883180F8A8309DF88C3180F8D0
S32508007740A9309DF8903180F8AA309DF8943180F8AB307047017042708370BDF80030A0F8A3
S3250800776003309DF8043043719DF8083083719DF80C30C3719DF810300372BDF81430A0F8AA
S325080077800930BDF81830A0F80B30BDF81C30A0F80D30BDF82030A0F80F30BDF82430A0F87F
S325080077A01130BDF82830A0F81330BDF82C30A0F81530BDF83030A0F81730BDF83430A0F8FF
S325080077C01930BDF83830A0F81B309DF83C3043779DF8403083779DF84430C3779DF8483048
S325080077E080F820309DF84C3080F821309DF8503080F822309DF8543080F823309DF85830F9
S3250800780080F82430BDF85C30A0F825309DF8603080F82730BDF864300385BDF96830438585
S32508007820BDF96C3083859DF8703080F82E309DF8743080F82F301E9B0363209B4363219B89
S3250800784083639DF8883080F83C309DF88C3080F83D309DF8903080F83E309DF8943080F8C1
S325080078603F309DF8983080F840309DF89C3080F841309DF8A03080F842309DF8A43080F8CC
S3250800788043309DF8A83080F844309DF8AC3080F845309DF8B03080F846309DF8B43080F85C
S325080078A047309DF8B83080F848309DF8BC3080F849309DF8C03080F84A309DF8C43080F8EC
S325080078C04B309DF8C83080F84C309DF8CC3080F84D30349BC0F84E309DF8D43080F8523080
S325080078E0BDF8D830A0F85330BDF8DC30A0F85530BDF8E030A0F857303A9BC0F859303B9BF4
S32508007900C0F85D303C9BC0F861303D9BC0F86530BDF8F830A0F86930BDF8FC30A0F86B30AD
S32508007920BDF80031A0F86D30BDF80431A0F86F30BDF80831A0F87130BDF80C31A0F87330A9
S32508007940BDF81031A0F87530BDF81431A0F877309DF8183180F879309DF81C3180F87A30AA
S325080079609DF8203180F87B309DF8243180F87C309DF8283180F87D309DF82C3180F87E30B7
S325080079809DF8303180F87F309DF8343180F880304E9BC0F881309DF83C3180F88530509B2E
S325080079A0C0F88630519BC0F88A30529BC0F88E30539BC0F89230549BC0F89630559BC0F80D
S325080079C09A30569BC0F89E30579BC0F8A230589BC0F8A630599BC0F8AA305A9BC0F8AE304A
S325080079E0BDF86C31A0F8B230BDF97031A0F8B430BDF97431A0F8B6309DF8783180F8B83063
S32508007A009DF87C3180F8B9309DF8803180F8BA309DF9843180F8BB309DF8883180F8BC30AD
S32508007A209DF88C3180F8BD309DF8903180F8BE309DF8943180F8BF3070470B7803704B7894
S32508007A4043708B788370B1F80330A0F803304B7943718B798371CB79C3710B7A0372B1F83D
S32508007A600930A0F80930B1F80B30A0F80B30B1F80D30A0F80D30B1F80F30A0F80F30B1F814
S32508007A801130A0F81130B1F81330A0F81330B1F81530A0F81530B1F81730A0F81730B1F8B4
S32508007AA01930A0F81930B1F81B30A0F81B304A7F437F62F3000343778A7FDBB262F34103EB
S32508007AC04377CA7FDBB262F38203437791F82020DBB262F3C303437791F82120DBB262F39D
S32508007AE00413437791F82220DBB262F34513437791F82320DBB262F38613437791F824201A
S32508007B00DBB262F3C7134377B1F82530C38391F8273080F820300B8DA0F82130B1F92A3070
S32508007B20A0F82330B1F92C30A0F8253091F82E3080F8273091F82F3080F828300B6BC0F8BD
S32508007B4029304A6B8B6BC0F82D20C0F8313091F83C2090F8353062F3000380F8353091F865
S32508007B603D20DBB262F3410380F8353091F83E20DBB262F3820380F8353091F83F20DBB2F7
S32508007B8062F3C30380F8353091F84020DBB262F3041380F8353091F84120DBB262F34513FC
S32508007BA080F8353091F84220DBB262F3861380F8353091F84320DBB262F3C71380F8353012
S32508007BC091F8443080F8363091F8453080F8373091F8463080F8383091F8473080F839301F
S32508007BE091F8483080F83A3091F8493080F83B3091F84A3080F83C3091F84B3080F83D30DF
S32508007C0091F84C3080F83E3091F84D2090F83F3062F3000380F83F30D1F84E30036491F808
S32508007C20523080F84430B1F85330A0F84530B1F85530A0F84730B1F85730A0F84930D1F848
S32508007C405920D1F85D30C0F84B20C0F84F30D1F86120D1F86530C0F85320C0F85730B1F832
S32508007C606930A0F85B30B1F86B30A0F85D30B1F86D30A0F85F30B1F86F30A0F86130B1F84A
S32508007C807130A0F86330B1F87330A0F86530B1F87530A0F86730B1F87730A0F8693091F80A
S32508007CA0792090F86B3062F3000380F86B3091F87A20DBB262F3410380F86B3091F87B200F
S32508007CC0DBB262F3820380F86B3091F87C20DBB262F3C30380F86B3091F87D20DBB262F334
S32508007CE0041380F86B3091F87E20DBB262F3451380F86B3091F87F20DBB262F3861380F8BD
S32508007D006B3091F8803080F86C30D1F88130C0F86D3091F8853080F87130D1F88630C0F810
S32508007D207230D1F88A30C0F87630D1F88E30C0F87A30D1F89230C0F87E30D1F89630C0F891
S32508007D408230D1F89A30C0F88630D1F89E30C0F88A30D1F8A230C0F88E30D1F8A630C0F8F1
S32508007D609230D1F8AA30C0F89630D1F8AE30C0F89A30B1F8B230A0F89E30B1F9B430A0F8D2
S32508007D80A030B1F9B630A0F8A23091F8B83080F8A43091F8B93080F8A53091F8BA3080F8A4
S32508007DA0A63091F9BB3080F8A73091F8BC3080F8A83091F8BD3080F8A93091F8BE3080F8A0
S32508007DC0AA3091F8BF3080F8AB3070470B7803704B7843708B788370B1F80330A0F8033030
S32508007DE04B7943718B798371CB79C3710B7A0372B1F80930A0F80930B1F80B30A0F80B3029
S32508007E00B1F80D30A0F80D30B1F80F30A0F80F30B1F81130A0F81130B1F81330A0F8133050
S32508007E20B1F81530A0F81530B1F81730A0F81730B1F81930A0F81930B1F81B30A0F81B30F0
S32508007E404B7FC3F3000343774B7FC3F3400383774B7FC3F38003C3774B7FC3F3C00380F822
S32508007E6020304B7FC3F3001380F821304B7FC3F3401380F822304B7FC3F3801380F82330CD
S32508007E804B7FC3F3C01380F82430CB8BA0F8253091F8203080F82730B1F821300385B1F99E
S32508007EA023304385B1F92530838591F8273080F82E3091F8283080F82F30D1F8293003639C
S32508007EC0D1F82D20D1F831304263836391F83530C3F3000380F83C3091F83530C3F3400357
S32508007EE080F83D3091F83530C3F3800380F83E3091F83530C3F3C00380F83F3091F8353046
S32508007F00C3F3001380F8403091F83530C3F3401380F8413091F83530C3F3801380F84230A1
S32508007F2091F83530C3F3C01380F8433091F8363080F8443091F8373080F8453091F8383028
S32508007F4080F8463091F8393080F8473091F83A3080F8483091F83B3080F8493091F83C3087
S32508007F6080F84A3091F83D3080F84B3091F83E3080F84C3091F83F30C3F3000380F84D3087
S32508007F800B6CC0F84E3091F8443080F85230B1F84530A0F85330B1F84730A0F85530B1F810
S32508007FA04930A0F85730D1F84B20D1F84F30C0F85920C0F85D30D1F85320D1F85730C0F8E5
S32508007FC06120C0F86530B1F85B30A0F86930B1F85D30A0F86B30B1F85F30A0F86D30B1F8E1
S32508007FE06130A0F86F30B1F86330A0F87130B1F86530A0F87330B1F86730A0F87530B1F897
S325080080006930A0F8773091F86B30C3F3000380F8793091F86B30C3F3400380F87A3091F8B4
S325080080206B30C3F3800380F87B3091F86B30C3F3C00380F87C3091F86B30C3F3001380F815
S325080080407D3091F86B30C3F3401380F87E3091F86B30C3F3801380F87F3091F86C3080F8E1
S325080080608030D1F86D30C0F8813091F8713080F88530D1F87230C0F88630D1F87630C0F81C
S325080080808A30D1F87A30C0F88E30D1F87E30C0F89230D1F88230C0F89630D1F88630C0F80E
S325080080A09A30D1F88A30C0F89E30D1F88E30C0F8A230D1F89230C0F8A630D1F89630C0F86E
S325080080C0AA30D1F89A30C0F8AE30B1F89E30A0F8B230B1F9A030A0F8B430B1F9A230A0F894
S325080080E0B63091F8A43080F8B83091F8A53080F8B93091F8A63080F8BA3091F9A73080F876
S32508008100BB3091F8A83080F8BC3091F8A93080F8BD3091F8AA3080F8BE3091F8AB3080F835
S32508008120BF3070472DE9F04FADF52D7DAB9183786793B0F8032068924479699485796A953D
S32508008140C6796B96077A6C97B0F809106D91B0F80BC0CDF8B8C1B0F80DC0CDF8BCC1B0F87E
S325080081600FC0CDF8C0C1B0F811C0CDF8C4C1B0F813C0CDF8C8C1B0F815C0CDF8CCC1B0F8D9
S3250800818017C0CDF8D0C1B0F819C0CDF8D4C1B0F81BC0CDF8D8C190F81DC0CDF8DCC190F899
S325080081A01EC0CDF8E0C190F81FC0CDF8E4C190F820C0CDF8E8C190F821C0CDF8ECC190F863
S325080081C022C0CDF8F0C190F823C0CDF8F4C190F824C0CDF8F8C1B0F825C0CDF8FCC190F8D3
S325080081E027C0CDF800C2078D8197B0F92AC0CDF808C2B0F92CC0CDF80CC290F82EC0CDF8D2
S3250800820010C290F82FC0CDF814C290F83CC0CDF818C290F83DC0CDF81CC290F83EC0CDF8D6
S3250800822020C290F83FC0CDF824C290F840C0CDF828C290F841C0CDF82CC290F842C0CDF85A
S3250800824030C290F843C0CDF834C290F844C0CDF838C290F845C0CDF83CC290F846C0CDF8EA
S3250800826040C290F847C0CDF844C290F848C0CDF848C290F849C0CDF84CC290F84AC0CDF87A
S3250800828050C290F84BC0CDF854C290F84CC0CDF858C290F84DC0CDF85CC290F852C0CDF806
S325080082A060C2B0F853C0CDF864C2B0F855C0CDF868C2B0F857C0CDF86CC2B0F869C0CDF8F4
S325080082C070C2B0F86BC0CDF874C2B0F86DC0CDF878C2B0F86FC0CDF87CC2B0F871C0CDF844
S325080082E080C2B0F873C0CDF884C2B0F875C0CDF888C2B0F877C0CDF88CC290F879C0CDF8E4
S3250800830090C290F87AC0CDF894C290F87BC0CDF898C290F87CC0CDF89CC290F87DC0CDF8CD
S32508008320A0C290F87EC0CDF8A4C290F87FC0CDF8A8C290F8803090F88520B0F8B210B0F96E
S32508008340B440B0F9B65090F8B86090F8B97090F8BAC090F9BBE090F8BC8090F8BD9090F8D4
S32508008360BEA090F8BFB0CDF894B1CDF890A1CDF88C91CDF88881CDF884E1CDF880C15F97C4
S325080083805E965D955C945B91D0F8AE105A91D0F8AA105991D0F8A6105891D0F8A210579167
S325080083A0D0F89E105691D0F89A105591D0F896105491D0F892105391D0F88E105291D0F848
S325080083C08A105191D0F8861050914F92D0F881204E924D93AA9E4C96A99D4B95A89C4A9458
S325080083E0A79A4992A69B4893A5994791A49F4697A39E4596A29D4495A19C4394A09A4292AB
S325080084009F9B41939E9940919D9F3F979C9E3E96D0F86120D0F865303C923D93D0F8592093
S32508008420D0F85D303A923B939B9D38959A9C3794999A3692989B3593D0F84E303493979906
S325080084403391969F3297959E3196949D3095939C2F94929A2E92919B2D9390992C918F9F7E
S325080084602B978E9E2A968D9D29958C9C28948B9A27928A9B269389992591889F2497879ED9
S325080084802396869D2295426B836B20922193036B1F93859C1E94849A1D92839B1C93829992
S325080084A01B91819F1A97809E19967F9D18957E9C17947D9A16927C9B15937B9914917A9F86
S325080084C01397799E1296789D1195779C1094769A0F92759B0E9374990D91739F0C97729EE1
S325080084E00B96719D0A95709C09946F9A08926E9B07936D9906916C9F05976B9E04966A9D43
S325080085000395699C0294689A0192679B0093437802780449AB984EF06BFE0DF52D7DBDE833
S32508008520F08F00BF18C505082DE9F04FADF52D7DAB9183786793B0F80320689244796994B4
S3250800854085796A95C6796B96077A6C97B0F809106D91B0F80BC0CDF8B8C1B0F80DC0CDF8A2
S32508008560BCC1B0F80FC0CDF8C0C1B0F811C0CDF8C4C1B0F813C0CDF8C8C1B0F815C0CDF8E5
S32508008580CCC1B0F817C0CDF8D0C1B0F819C0CDF8D4C1B0F81BC0CDF8D8C190F81DC0CDF885
S325080085A0DCC190F81EC0CDF8E0C190F81FC0CDF8E4C190F820C0CDF8E8C190F821C0CDF86F
S325080085C0ECC190F822C0CDF8F0C190F823C0CDF8F4C190F824C0CDF8F8C1B0F825C0CDF8DF
S325080085E0FCC190F827C0CDF800C2078D8197B0F92AC0CDF808C2B0F92CC0CDF80CC290F83C
S325080086002EC0CDF810C290F82FC0CDF814C290F83CC0CDF818C290F83DC0CDF81CC290F8E2
S325080086203EC0CDF820C290F83FC0CDF824C290F840C0CDF828C290F841C0CDF82CC290F85A
S3250800864042C0CDF830C290F843C0CDF834C290F844C0CDF838C290F845C0CDF83CC290F8EA
S3250800866046C0CDF840C290F847C0CDF844C290F848C0CDF848C290F849C0CDF84CC290F87A
S325080086804AC0CDF850C290F84BC0CDF854C290F84CC0CDF858C290F84DC0CDF85CC290F80A
S325080086A052C0CDF860C2B0F853C0CDF864C2B0F855C0CDF868C2B0F857C0CDF86CC2B0F807
S325080086C069C0CDF870C2B0F86BC0CDF874C2B0F86DC0CDF878C2B0F86FC0CDF87CC2B0F848
S325080086E071C0CDF880C2B0F873C0CDF884C2B0F875C0CDF888C2B0F877C0CDF88CC290F8E8
S3250800870079C0CDF890C290F87AC0CDF894C290F87BC0CDF898C290F87CC0CDF89CC290F8CD
S325080087207DC0CDF8A0C290F87EC0CDF8A4C290F87FC0CDF8A8C290F8803090F88520B0F8D3
S32508008740B210B0F9B440B0F9B65090F8B86090F8B97090F8BAC090F9BBE090F8BC8090F83A
S32508008760BD9090F8BEA090F8BFB0CDF894B1CDF890A1CDF88C91CDF88881CDF884E1CDF822
S3250800878080C15F975E965D955C945B91D0F8AE105A91D0F8AA105991D0F8A6105891D0F8C6
S325080087A0A2105791D0F89E105691D0F89A105591D0F896105491D0F892105391D0F88E1055
S325080087C05291D0F88A105191D0F8861050914F92D0F881204E924D93AA9E4C96A99D4B95CB
S325080087E0A89C4A94A79A4992A69B4893A5994791A49F4697A39E4596A29D4495A19C439493
S32508008800A09A42929F9B41939E9940919D9F3F979C9E3E96D0F86120D0F865303C923D93C2
S32508008820D0F85920D0F85D303A923B939B9D38959A9C3794999A3692989B3593D0F84E30B8
S32508008840349397993391969F3297959E3196949D3095939C2F94929A2E92919B2D9390996E
S325080088602C918F9F2B978E9E2A968D9D29958C9C28948B9A27928A9B269389992591889FCA
S325080088802497879E2396869D2295426B836B20922193036B1F93859C1E94849A1D92839B78
S325080088A01C9382991B91819F1A97809E19967F9D18957E9C17947D9A16927C9B15937B9976
S325080088C014917A9F1397799E1296789D1195779C1094769A0F92759B0E9374990D91739FD2
S325080088E00C97729E0B96719D0A95709C09946F9A08926E9B07936D9906916C9F05976B9E2D
S3250800890004966A9D0395699C0294689A0192679B0093437802780449AB984DF0B5FA0DF598
S325080089202D7DBDE8F08F00BF18C5050808B540F6AA0203494DF016FB40F6A90008BD00BF16
S32508008940E4C6050808B502494DF09EFA08BD00BFE4C60508F0B40C4680387F2800F27882F9
S32508008960DFE810F0650259024902380276027602760276027602760276027602760276022B
S3250800898076027602C3012C02E301D701CD01B901AD01A10176027602760276027602970163
S325080089A076028B017F01730167015B014F01430137012B0176027602760276027602760225
S325080089C07602760219010D010101F400EA00DB00CC0076027602BE00B300A6009A007602D1
S325080089E076028E0076027602760276027602760276027602760276027602760276027602D3
S32508008A007602760276027602760276027602760276027602760276027602760276027602C8
S32508008A207602760276027602760276027602760276027602760276027602760276027602A8
S32508008A40760276027602760276027602760276027602760276027602760276027602760288
S32508008A6076028000B74D0FCD20606160A260E36028682061AA88AB79A282A37516209AE037
S32508008A80B14D0FCD20606160A260E3602A88AB782282A37412208EE0AC4D0FCD2060616022
S32508008AA0A260E3602A88AB782282A374122082E0A74D0FCD20606160A260E36003CD206198
S32508008AC061612B882383192075E0A24D0FCD20606160A260E36003CD2061616117206AE0FA
S32508008AE09D4D0FCD20606160A260E36028682061AA88AB79A282A37516205CE0974D0FCD47
S32508008B0020606160A260E36003CD206161612A88AB782283A3761A204DE0914D0FCD20607A
S32508008B206160A260E36003CD206161612A88AB782283A3761A203EE08A4D0FCD206061602F
S32508008B40A260E3602B882382112034E0864D0FCD20606160A260E36003CD206161612B882A
S32508008B602383192027E0814D0FCD20606160A260E3602A88AB782282A37412201BE07C4D4B
S32508008B800FCD20606160A260E360286820612B79237514200FE0774E06F1200735460FCDBB
S32508008BA020606160A260E3602E461034BD42F5D12B7823702020F0BC70476F4D0FCD2060B3
S32508008BC06160A260E36028682061AB88A3821520F1E76A4D0FCD20606160A260E360286862
S32508008BE02061AB88A3821520E5E7654D0FCD20606160A260E360286820612B7923751420F8
S32508008C00D9E7604D0FCD20606160A260E360286820612B7923751420CDE75B4D0FCD20603E
S32508008C206160A260E36028682061AB88A3821520C1E7564D0FCD20606160A260E360286845
S32508008C402061AB88A3821520B5E7514D0FCD20606160A260E36028682061AB88A3821520BE
S32508008C60A9E74C4D0FCD20606160A260E360286820612B79237514209DE7474D0FCD206066
S32508008C806160A260E360286820612B792375142091E7424D0FCD20606160A260E360286846
S32508008CA02061132087E73E4D0FCD20606160A260E3602A88AB782282A37412207BE7394DED
S32508008CC00FCD20606160A260E3602A88AB782282A37412206FE7344D0FCD20606160A2606C
S32508008CE0E3602B882382112065E7304D0FCD20606160A260E3602B88238211205BE72C4D2B
S32508008D000FCD20606160A260E3602B882382112051E7284D0FCD20606160A260E3602A8899
S32508008D20AB782282A374122045E7234D0FCD20606160A260E3602A88AB782282A374122055
S32508008D4039E700BF90CF0508A8CF0508BCCF0508D0CF0508ECCF050804D005081CD0050850
S32508008D6038D0050854D0050868D0050884D0050898D00508B0D00508D4D00508ECD005087D
S32508008D8004D105081CD1050834D105084CD1050864D105087CD1050894D10508ACD1050815
S32508008DA0C0D10508D4D10508E8D10508FCD1050810D2050824D2050838D205082A4D0FCD59
S32508008DC020606160A260E3602A88AB782282A3741220F0E6254E06F1200735460FCD2060FF
S32508008DE06160A260E3602E461034BD42F5D12B7823702020DFE61E4D0FCD20606160A2601D
S32508008E00E36007CD20616161A2612A88AB78A283A3771E20CFE6174D0FCD20606160A2605D
S32508008E20E36007CD20616161A2611B20C3E6124E06F1200735460FCD20606160A260E36088
S32508008E402E461034BD42F5D12B7823702020B2E60A4B07CB20606160A2601A889B78A28137
S32508008E60A3734FF0FF30A6E64CD2050860D2050884D20508A4D20508C0D20508B4C3050861
S32508008E80F0B40C460F2800F2D780DFE800F0CABDAFA193857D705E52463A2E2114086C4D67
S32508008EA00FCD20606160A260E36007CD20616161A2611B2059E0674D0FCD20606160A260E1
S32508008EC0E36003CD206161612B88238319204CE0614D0FCD20606160A260E36003CD20610F
S32508008EE061612B88238319203FE05C4D0FCD20606160A260E36007CD20616161A2611B2091
S32508008F0033E0574D0FCD20606160A260E36007CD20616161A2611B2027E0524D0FCD2060D3
S32508008F206160A260E36007CD20616161A2611B201BE04D4D0FCD20606160A260E36007CDFD
S32508008F4020616161A2611B200FE0484E06F1200735460FCD20606160A260E3602E4610344A
S32508008F60BD42F5D12B7823702020F0BC7047404D0FCD20606160A260E3600FCD2061616137
S32508008F80A261E3611F20F0E73A4D0FCD20606160A260E3600F20E8E7374D0FCD20606160DE
S32508008FA0A260E36007CD20616161A2612B88A3831D20DAE7314D0FCD20606160A260E3608D
S32508008FC007CD20616161A2612B7823771C20CCE72B4D0FCD20606160A260E36007CD20610E
S32508008FE06161A2612B88A3831D20BEE7254D0FCD20606160A260E36007CD20616161A261F5
S325080090002B7823771C20B0E71F4D0FCD20606160A260E36003CD206161612B7823761820DD
S32508009020A3E71A4D0FCD20606160A260E36003CD20616161172098E7154B07CB2060616093
S32508009040A2601A889B78A281A3734FF0FF308CE7E4D2050800D305081CD3050838D305087A
S3250800906054D3050870D305088CD30508A8D30508CCD30508ECD30508FCD305081CD4050819
S325080090803CD405085CD405087CD4050898D40508B4C30508F0B40C46102800F2EE80DFE8B9
S325080090A010F0DF00D500C800BB00AA00A000940087007C006E0061004F00430037002A00C8
S325080090C01D001100734D0FCD20606160A260E360286820612B792375142041E06E4D0FCDF9
S325080090E020606160A260E36003CD206161612B882383192034E0694D0FCD20606160A2604E
S32508009100E3600FCD20616161A261E3611F2027E0634D0FCD20606160A260E360286820612F
S325080091202B79237514201BE05E4D0FCD20606160A260E360286820612B79237514200FE039
S32508009140594E06F1200735460FCD20606160A260E3602E461034BD42F5D12B78237020206C
S32508009160F0BC7047514D0FCD20606160A260E36003CD206161612B7823761820F0E74C4D87
S325080091800FCD20606160A260E36028682061AA88AB79A282A3751620E2E7464D0FCD2060CE
S325080091A06160A260E36003CD206161611720D7E7414D0FCD20606160A260E36003CD206152
S325080091C061612B7823761820CAE73C4D0FCD20606160A260E360286820612B79237514202E
S325080091E0BEE7374D0FCD20606160A260E360286820611320B4E7334E06F1200735460FCD01
S3250800920020606160A260E3602E461034BD42F5D12B7823702020A3E72B4D0FCD20606160A8
S32508009220A260E3600FCD20616161A261E3611F2096E7264D0FCD20606160A260E36003CD14
S32508009240206161612B782376182089E7204D0FCD20606160A260E3602868206113207FE760
S325080092601C4D0FCD20606160A260E36003CD206161612B782376182072E7174B07CB206081
S325080092806160A2601A889B78A281A3734FF0FF3066E700BFB0D40508C8D40508E4D4050896
S325080092A004D505081CD5050834D5050858D5050874D505088CD50508A4D50508C0D5050880
S325080092C0D8D50508ECD5050810D6050830D605084CD6050860D60508B4C3050830B40C46C6
S325080092E02A2800F29A81DFE810F08C018101740168015C014E0141019801980198019801FB
S325080093009801980198019801980137012B011D010D010001F000E300D300C600B800AA00E3
S325080093209B008C009801980198019801800074006C0064005A0052004A00420036002B0037
S32508009340BC4D0FCD20606160A260E3602B882382112030BC7047B84D0FCD20606160A26044
S32508009360E3602A88AB782282A3741220F1E7B34D0FCD20606160A260E3600F20E9E7B04DA4
S325080093800FCD20606160A260E3600F20E1E7AD4D0FCD20606160A260E3600F20D9E7AA4D24
S325080093A00FCD20606160A260E3602B7823741020CFE7A64D0FCD20606160A260E3600F2099
S325080093C0C7E7A34D0FCD20606160A260E3600F20BFE7A04D0FCD20606160A260E3602868CB
S325080093E020612B7923751420B3E79B4D0FCD20606160A260E360286820612B792375142009
S32508009400A7E7964D0FCD20606160A260E36003CD206161612A88AB782283A3761A2098E70C
S325080094208F4D0FCD20606160A260E36003CD206161612A88AB782283A3761A2089E7894DBA
S325080094400FCD20606160A260E36007CD20616161A2612B88A3831D207BE7834D0FCD2060DE
S325080094606160A260E36007CD20616161A2612B7823771C206DE77D4D0FCD20606160A26008
S32508009480E3600FCD20616161A261E3611F2060E7774D0FCD20606160A260E36007CD206114
S325080094A06161A2612A88AB78A283A3771E2050E7704D0FCD20606160A260E3600FCD2061D4
S325080094C06161A261E3611F2043E76B4D0FCD20606160A260E36007CD20616161A2612A8826
S325080094E0AB78A283A3771E2033E7644D0FCD20606160A260E3600FCD20616161A261E3612B
S325080095001F2026E75E4D0FCD20606160A260E36007CD20616161A2612A88AB78A283A377B6
S325080095201E2016E7574D0FCD20606160A260E36007CD20616161A2612B7823771C2008E75A
S32508009540514D0FCD20606160A260E36007CD20616161A2611B20FCE64C4D0FCD2060616010
S32508009560A260E3602B7823741020F2E6484D0FCD20606160A260E3600FCD20616161A2613D
S32508009580E3611F20E5E6434D0FCD20606160A260E36007CD20616161A2612B7823771C20EA
S325080095A0D7E63D4D0FCD20606160A260E36007CD20616161A2611B20CBE6384D0FCD20600D
S325080095C06160A260E36007CD20616161A2611B20BFE6334D0FCD20606160A260E36003CDCB
S325080095E0206161612B7823761820B2E62D4D0FCD20606160A260E36003CD206161611720E8
S32508009600A7E6294D0FCD20606160A260E36007CD20616161A2611B209BE6244B07CB206040
S325080096206160A2601A889B78A281A3734FF0FF308FE600BF7CD6050890D60508A4D6050870
S32508009640B4D60508C4D60508D4D60508E8D60508F8D6050808D7050820D7050838D7050855
S3250800966054D7050870D7050890D70508B0D70508D0D70508F0D7050810D8050830D80508B6
S3250800968050D8050870D8050890D80508ACD80508C0D80508E0D8050800D905081CD90508DA
S325080096A038D9050854D905086CD90508B4C3050830B40C462A2800F29B81DFE810F08C0184
S325080096C08101740168015C014E01410199019901990199019901990199019901990137018C
S325080096E02B011D010D010001F000E300D300C600B800AA009B008C009901990199019901A6
S32508009700800074006C0064005A0052004A00420036002B00BC4D0FCD20606160A260E36073
S325080097202B882382112030BC7047B84D0FCD20606160A260E3602A88AB782282A3741220C6
S32508009740F1E7B34D0FCD20606160A260E3600F20E9E7B04D0FCD20606160A260E3600F2034
S32508009760E1E7AD4D0FCD20606160A260E3600F20D9E7AA4D0FCD20606160A260E3602B78CC
S3250800978023741020CFE7A64D0FCD20606160A260E3600F20C7E7A34D0FCD20606160A260FD
S325080097A0E3600F20BFE7A04D0FCD20606160A260E360286820612B7923751420B3E79B4D31
S325080097C00FCD20606160A260E360286820612B7923751420A7E7964D0FCD20606160A26008
S325080097E0E36003CD206161612A88AB782283A3761A2098E78F4D0FCD20606160A260E3607B
S3250800980003CD206161612A88AB782283A3761A2089E7894D0FCD20606160A260E36007CDDE
S3250800982020616161A2612B88A3831D207BE7834D0FCD20606160A260E36007CD2061616113
S32508009840A2612B7823771C206DE77D4D0FCD20606160A260E3600FCD20616161A261E36198
S325080098601F2060E7774D0FCD20606160A260E36007CD20616161A2612A88AB78A283A37700
S325080098801E2050E7704D0FCD20606160A260E3600FCD20616161A261E3611F2043E76B4D9F
S325080098A00FCD20606160A260E36007CD20616161A2612A88AB78A283A3771E2033E7644D01
S325080098C00FCD20606160A260E3600FCD20616161A261E3611F2026E75E4D0FCD206061609E
S325080098E0A260E36007CD20616161A2612A88AB78A283A3771E2016E7574D0FCD20606160EB
S32508009900A260E36007CD20616161A2612B7823771C2008E7514D0FCD20606160A260E36072
S3250800992007CD20616161A2611B20FCE64C4D0FCD20606160A260E3602B7823741020F2E6A5
S32508009940484D0FCD20606160A260E3600FCD20616161A261E3611F20E5E6434D0FCD2060A6
S325080099606160A260E36007CD20616161A2612B7823771C20D7E63D4D0FCD20606160A260DA
S32508009980E36007CD20616161A2611B20CBE6384D0FCD20606160A260E36007CD2061616172
S325080099A0A2611B20BFE6334D0FCD20606160A260E36003CD206161612B7823761820B2E6B5
S325080099C02D4D0FCD20606160A260E36003CD206161611720A7E6294D0FCD20606160A26031
S325080099E0E3600FCD20616161A261E3611F209AE6234B07CB20606160A2601A889B78A28196
S32508009A00A3734FF0FF308EE67CD6050890D60508A4D60508B4D60508C4D60508D4D60508F2
S32508009A20E8D60508F8D6050808D7050820D7050838D7050854D7050870D7050890D7050866
S32508009A40B0D70508D0D70508F0D7050810D8050830D8050850D8050870D8050890D80508D3
S32508009A60ACD80508C0D80508E0D8050800D905081CD9050838D9050854D9050888D905082F
S32508009A80B4C30508F0B40C460F2840F23C8140F22A23984200F2DF84B0F5807FC0F0DB84B7
S32508009AA0A0F58070B0F5957F00F2D584DFE810F0AD03A203980389037D0372036A03600307
S32508009AC054034A03400334032C03240318030C030403D304D304D304D304D304D304D304F2
S32508009AE0D304D304D304D304D304D304D304D304D304D304D304D304D304D304D304D304E8
S32508009B00D304D304D304D304D304D304D304D304D304D304D304D304D304D304D304D304C7
S32508009B20D304D304D304D304D304D304D304D304D304D304D304D304D304D304D304D304A7
S32508009B40D304D304D304D304D304D304D304D304D304D304D304D304D304D304D304D30487
S32508009B60D304D304D304D304D304D304D304D304D304D304D304D304D304D304D304D30467
S32508009B80D304D304D304D304D304D304D304D304D304D304D304D304D304D304D304D30447
S32508009BA0D304D304D304D304D304D304D304D304D304D304D304D304D304D304D304D30427
S32508009BC0D304D304D304D304D304D304D304D304D304D304D304D304D304D304D304D30407
S32508009BE0D304D304D304D304D304D304D304D304D304D304D304D304D304D304D304D304E7
S32508009C00D304D304D304D304D304D304D304D304D304D304D304D304D304D304D304D304C6
S32508009C20D304D304D304D304D304D304D304D304D304D304D304D304D304D304D304D304A6
S32508009C40D304D304D304D304D304D304D304D304D304D304D304D304D304D304D304D30486
S32508009C60D304D304D304D304D304D304D304D304D304D304D304D304D304D304D304D30466
S32508009C80D304D304D304D304D304D304D304D304D304D304D304D304D304D304D304D30446
S32508009CA0D304D304D304D304D304D304D304D304F602AF02A2029402860278026702D304B9
S32508009CC0D304D304D304D304D304D304D304D3045B024D023F023202210214020302F60168
S32508009CE0E401D601C601B901AC01D304D304D304D304A00194018A01800176016C01620187
S32508009D0058014C0140010F2800F2A583DFE810F0950388037A032E03200312030803FB0225
S32508009D20ED02DC02CB02BA02A9029E0293028802BD4D0FCD20606160A260E3602A88AB7814
S32508009D402282A3741220A7E0B84D0FCD20606160A260E3602A88AB782282A37412209BE0DD
S32508009D60B34D0FCD20606160A260E3602B782374102091E0AF4D0FCD20606160A260E3603A
S32508009D802B782374102087E0AB4D0FCD20606160A260E3602B78237410207DE0A74D0FCDF3
S32508009DA020606160A260E3602B782374102073E0A34D0FCD20606160A260E3602B782374C6
S32508009DC0102069E09F4D0FCD20606160A260E3602B78237410205FE09B4D0FCD2060616000
S32508009DE0A260E36028682061AB88A382152053E0964D0FCD20606160A260E36028682061E9
S32508009E00AB88A382152047E0914D0FCD20606160A260E3600FCD20616161A261E3611F209B
S32508009E203AE08C4D0FCD20606160A260E3600FCD20616161A261E3611F202DE0864D0FCD5E
S32508009E4020606160A260E36007CD20616161A2612A88AB78A283A3771E201DE07F4D0FCD5D
S32508009E6020606160A260E36007CD20616161A2612B88A3831D200FE0794E06F120073546CF
S32508009E800FCD20606160A260E3602E461034BD42F5D12B7823702020F0BC7047714D0FCD62
S32508009EA020606160A260E3600FCD20616161A261E3611F20F0E76C4E06F1200735460FCD63
S32508009EC020606160A260E3602E461034BD42F5D12B7823702020DFE7644D0FCD2060616067
S32508009EE0A260E3600FCD20616161A261E3611F20D2E75F4E06F1200735460FCD206061604E
S32508009F00A260E3602E461034BD42F5D12B7823702020C1E7574D0FCD20606160A260E3604D
S32508009F200FCD20616161A261E3611F20B4E7524D0FCD20606160A260E36007CD20616161BB
S32508009F40A2612B88A3831D20A6E74C4D0FCD20606160A260E36007CD20616161A2612B7895
S32508009F6023771C2098E7464D0FCD20606160A260E36028682061AB88A38215208CE7414EE9
S32508009F8006F1200735460FCD20606160A260E3602E461034BD42F5D12B78237020207BE763
S32508009FA0394D0FCD20606160A260E36007CD20616161A2612B88A3831D206DE7334D0FCDCB
S32508009FC020606160A260E36007CD20616161A2612B7823771C205FE72D4D0FCD206061607D
S32508009FE0A260E36007CD20616161A2612B7823771C2051E7274D0FCD20606160A260E3606D
S3250800A00003CD206161612B882383192044E7224D0FCD20606160A260E36003CD206161617E
S3250800A0202B782376182037E7A8D90508BCD90508D0D90508E4D90508F8D905080CDA0508FF
S3250800A04020DA050834DA050848DA050860DA050878DA050898DA0508B8DA0508D8DA05081E
S3250800A060F8DA05081CDB05083CDB050860DB050880DB0508A4DB0508C4DB0508E4DB050817
S3250800A08004DC05081CDC050840DC050860DC050880DC0508A0DC0508BCDC0508BA4D0FCDD4
S3250800A0A020606160A260E36007CD20616161A2612B88A3831D20EFE6B44D0FCD20606160E9
S3250800A0C0A260E3600F20E7E6B14D0FCD20606160A260E360286820612B7923751420DBE68F
S3250800A0E0AC4D0FCD20606160A260E360286820612B7923751420CFE6A74D0FCD20606160B0
S3250800A100A260E3600F20C7E6A44D0FCD20606160A260E3600F20BFE6A14D0FCD20606160DE
S3250800A120A260E36007CD20616161A2611B20B3E69C4D0FCD20606160A260E3602868206182
S3250800A1401320A9E6984D0FCD20606160A260E3602B88238211209FE6944D0FCD20606160DC
S3250800A160A260E3602A88AB782282A374122093E68F4D0FCD20606160A260E3602868206102
S3250800A180132089E68B4D0FCD20606160A260E3600F2081E6884B07CB20606160A2601A88B5
S3250800A1A09B78A281A3730E2076E6844D0FCD20606160A260E36007CD20616161A2611B2033
S3250800A1C06AE67F4D0FCD20606160A260E36003CD206161612A88AB782283A3761A205BE6D2
S3250800A1E0784D0FCD20606160A260E36028682061132051E6744B07CB20606160A2601A8839
S3250800A2009B78A281A3730E2046E6704D0FCD20606160A260E36003CD2061616117203BE600
S3250800A2206B4D0FCD20606160A260E36003CD20616161172030E6674D0FCD20606160A260C3
S3250800A240E36003CD20616161172025E6624D0FCD20606160A260E36003CD206161611720FD
S3250800A2601AE65E4E06F1200735460FCD20606160A260E3602E461034BD42F5D12B78237076
S3250800A280202009E6564E06F1200735460FCD20606160A260E3602E461034BD42F5D12B78C2
S3250800A2A023702020F8E54F4E06F1200735460FCD20606160A260E3602E461034BD42F5D1CB
S3250800A2C02B7823702020E7E5474E06F1200735460FCD20606160A260E3602E461034BD42E7
S3250800A2E0F5D12B7823702020D6E5404D0FCD20606160A260E36007CD20616161A2612B78AD
S3250800A30023771C20C8E53A4D0FCD20606160A260E3600FCD20616161A261E3611F20BBE57E
S3250800A320344D0FCD20606160A260E3602B7823741020B1E5304D0FCD20606160A260E3604D
S3250800A34007CD20616161A2612B88A3831D20A3E52A4D0FCD20606160A260E36007CD206109
S3250800A3606161A2612B7823771C2095E5244D0FCD20606160A260E36007CD20616161A2612A
S3250800A3802B88A3831D2087E5D8DC0508F8DC050808DD050820DD050838DD050848DD05083B
S3250800A3A058DD050874DD050888DD05089CDD0508B0DD0508C4DD0508D4DD0508E4DD050823
S3250800A3C000DE05081CDE050830DE050840DE050858DE050870DE050888DE0508A0DE05089B
S3250800A3E0C4DE0508E8DE05080CDF050830DF050850DF050870DF050884DF0508A4DF050821
S3250800A400C4DF05081A4D0FCD20606160A260E36007CD20616161A2612B7823771C203BE502
S3250800A420144D0FCD20606160A260E36003CD206161612B88238319202EE50F4D0FCD2060DB
S3250800A4406160A260E36007CD20616161A2612B7823771C2020E5094B07CB20606160A260E7
S3250800A4601A889B78A281A3734FF0FF3014E500BFE4DF050804E0050820E00508B4C3050868
S3250800A4800B46012808D002280CD10E4A1068086092888A80052070470B4A03CA18605960CA
S3250800A4A00720704710B4094C07CC186059609A602188A27899819A734FF0FF305DF8044B9D
S3250800A4C0704700BF40E0050848E00508B4C305080B4601281AD002280FD0F8B110B4134CD9
S3250800A4E007CC186059609A602188A27899819A734FF0FF305DF8044B70470D4A1068086066
S3250800A5009188927999809A7106207047094A03CA1860596012881A8109207047064A03CA85
